:020000040800F2
:10000000B8110020F1DF000885DE000887DE000857
:1000100099DE00089BDE00089DDE0008000000005D
:10002000000000000000000000000000A1DE000849
:100030009FDE000800000000A3DE000889DE000843
:1000400019E000081DE0000821E0000825E0000894
:1000500029E000082DE0000831E0000835E0000844
:1000600039E000083DE0000841E0000845E00008F4
:1000700049E000084DE0000851E0000855E00008A4
:1000800059E000085DE0000861E0000865E0000854
:1000900069E000086DE0000871E0000875E0000804
:1000A00079E000087DE0000881E0000885E00008B4
:1000B00089E000088DE0000891E0000895E0000864
:1000C00099E000089DE00008A1E00008A5E0000814
:1000D000A9E00008ADE00008B1E00008B5E00008C4
:1000E000B9E00008BDE00008C1E00008C5E0000874
:1000F000C9E00008CDE00008D1E00008D5E0000824
:10010000D9E00008DDE00008E1E00008E5E00008D3
:10011000E9E00008EDE00008F1E00008F5E0000883
:10012000F9E00008FDE0000801E1000805E1000831
:1001300009E100080DE1000811E1000815E10008DF
:1001400019E100081DE1000821E1000825E100088F
:1001500029E100082DE1000831E1000835E100083F
:1001600039E100083DE1000841E1000845E10008EF
:1001700049E100084DE1000851E1000855E100089F
:1001800059E100085DE1000861E1000865E100084F
:1001900069E100086DE1000871E1000875E10008FF
:1001A000A5DE000879E10008A9DE000800000000D3
:1001B000000000000000000000000000000000003F
:1001C00000000060600060606060606060606060AF
:1001D0000000000000000C000C001E803F806D80BD
:1001E000CC00CC00CC00CC80ED807F001E000C0049
:1001F0000C000000000000000000000007C01FE02D
:1002000018603800300030007FC07FC01000180038
:10021000180018103E303FF001E000000000000020
:100220000000C000E0C07FC07F8063006300630007
:100230007E00FF00C180018000000000000000007F
:1002400000000000000061806180330073807380D3
:100250001E000C003F003F000C000C000C000000D2
:10026000000000000000606060606000006060608E
:1002700060606000000000000000000000003E0020
:100280007F0063006000FC00C70073001E00830055
:10029000C3007F003E0000000000000000000000DE
:1002A0000000000066006600000000000000000082
:1002B000000000000000000000000000000000003E
:1002C0000000000007801FE03860333067306C307A
:1002D0006CB06FB0676030E03FC00F80000000007E
:1002E000000000000000003C7C6C6C76762600006C
:1002F00000000000000000000000000000000000FE
:1003000000000000198033006600CC006600330056
:100310001980000000000000000000000000000044
:1003200000000000000000000000000000007F004E
:100330007F00030003000000000000000000000038
:100340000000000000000000007C7C0000000000B5
:1003500000000000000000000F801FC038603F70E8
:10036000693069306E306E306D6030E03FC00F0034
:1003700000000000000000000000FFC000000000BE
:10038000000000000000000000000000000000006D
:100390000000000000000000000000000078FCCC1D
:1003A000CCFC78000000000000000000000000000D
:1003B000000000000000181818FFFF18181800FFB0
:1003C000FF00000000000C001E00060004000800F2
:1003D0001E001E00000000000000000000000000E1
:1003E000000000000000000000003C003E0006008D
:1003F0000C0006003E003C00000000000000000071
:1004000000000000000000000000000000001830A4
:10041000604000000000000000000000000000003C
:10042000000000000000006363C2C6C6C4FCFC807C
:100430000000000000000000000003C01FC036C024
:1004400066C066C066C06EC07F803D800D800D8036
:100450001B001B0000000000000000000000000066
:1004600060600000000000000000000000000000CC
:10047000000000000000000000000000000000007C
:10048000000000000000000018000C000C003C0000
:10049000000006000E000600060006000F000F0018
:1004A000000000000000000000000000000000004C
:1004B0000000000000183C6666663E3C000000003C
:1004C000000000000000000000000000000000002C
:1004D000000000009800CC00660033006600CC00ED
:1004E0009800000000000000000000000C001C004C
:1004F0000C000C000C001E001E0000007F807F809E
:1005000000000C000C001C002C007E000C000C00F5
:100510000C001C000C000C000C001E001E00000053
:100520007F807F8000000E001F00130002000C007F
:100530001F001F003C003E0006001E0006003E009B
:100540003C0000007F807F8000000C000C001C003D
:100550002C007E000C000C000000000000000000D9
:1005600006000600000004001C003000600060006F
:10057000600073003F001E00000000000300010047
:10058000000001800180038006C006C00CC01FC0AF
:100590001FC030E03060606060600000000000005C
:1005A00003000200000001800180038006C006C035
:1005B0000CC01FC01FC030E0306060606060000091
:1005C0000000000003C0066000000180018003807D
:1005D00006C006C00CC01FC01FC030E030606060A5
:1005E00060600000000000000FE009C00000018012
:1005F0000180038006C006C00CC01FC01FC030E0D1
:100600003060606060600000000000000CC00CC042
:10061000000001800180038006C006C00CC01FC01E
:100620001FC030E0306060606060000000000000CB
:100630000220022001C001800180038006C006C0A4
:100640000CC01FC01FC030E0306060606060000000
:1006500000000000000000000000003FC0007FC05C
:1006600000F00001B00003300003FF8007FF800CA2
:100670003000183000183000303000603000603F2B
:1006800080001F800000000000000000000000004B
:1006900000000F801F803980300060006000C000C3
:1006A000C000C000E1807F803E000C0004003800E4
:1006B0000600020000007F007F0060006000600014
:1006C0007F007F006000600060007F003F0000004E
:1006D000000000000800000000007F007F006000B4
:1006E000600060007F007F006000600060007F00AD
:1006F0003F000000000000001E00330000007F00EB
:100700007F006000600060007F007F00600060008C
:1007100060007F003F000000000000003300330055
:1007200000007F007F006000600060007F007F00AD
:100730006000600060007F003F00000000000000DB
:10074000180008000000FF00FF0018001800180043
:1007500018001800180018001800FF00FF00000023
:1007600000000000180010000000FF00FF0018004B
:100770001800180018001800180018001800FF00D2
:10078000FF00000000000000660000000000FF0005
:10079000FF001800180018001800180018001800B2
:1007A0001800FF00FF000000000000006600660067
:1007B0000000FF00FF0018001800180018001800C3
:1007C000180018001800FF00FF00000000000000E3
:1007D00000000000000030003E00378031C0306073
:1007E000FE70FE3030303030307030E03FC01F805F
:1007F000000000001FC013800000602060307030D7
:1008000078306C3066306230633061B060F06070B8
:10081000603000000000000001800080000007C080
:100820001FE0387030307030603060306070606071
:1008300030E03FC00F000000000000000300020095
:10084000000007C01FE0387030307030603060301A
:100850006070606030E03FC00F00000000000000EA
:100860000CC00000000007C01FE03870303070304E
:10087000603060306070606030E03FC00F000000AA
:10088000000000000FE009C0000007C01FE0387042
:1008900030307030603060306070606030E03FC099
:1008A0000F000000000000000CC00CC0000007C0DA
:1008B0001FE03870303070306030603060706060E1
:1008C00030E03FC00F00000000000000000000000A
:1008D000000000663E181C362200000000000000E8
:1008E00000000000000007C80FF0186030F031B0C1
:1008F000613062306470686078E03FC07F804000A3
:10090000000000000600020000006060606060609F
:100910006060606060606060606070C031C03F8037
:100920000F000000000000000600040000006060EE
:10093000606060606060606060606060606070C047
:1009400031C03F800F00000000000000198000004F
:100950000000606060606060606060606060606057
:10096000606070C031C03F800F00000000000000D8
:100970001980198000006060606060606060606085
:1009800060606060606070C031C03F800F00000038
:10099000000000000C000800000060C060C031C012
:1009A00031801B801B000F000F0006000E000C00A2
:1009B0001800000000000000000000607E7F6361FE
:1009C00061637F7E606060000000000000001C3EEC
:1009D0007666666E6C6E6666767E6C600000000001
:1009E000000020301808003E7EE6C6C6C6FE7B002A
:1009F000000000000000060C1810003E7EE6C6C68F
:100A0000C6FE7B00000000000000183C6600003EAF
:100A10007EE6C6C6C6FE7B0000000000000000396E
:100A20007F4E003E7EE6C6C6C6FE7B00000000008C
:100A3000000000006666003E7EE6C6C6C6FE7B007D
:100A400000000000001C22221C00003E7EE6C6C6FC
:100A5000C6FE7B0000000000000000000000000057
:100A60000000000000000E703FF871B861F061C036
:100A700071843FFC1EF80000000000000000000030
:100A80000000003C7E62C0C0C6FE7C1808780000F2
:100A9000000020301808003C7EE6CCD8E2FE3C0086
:100AA000000000000000060C1810003C7EE6CCD8C8
:100AB000E2FE3C0000000000000000183C66003C24
:100AC0007EE6CCD8E2FE3C0000000000000000669C
:100AD0006600003C7EE6CCD8E2FE3C000000000050
:100AE000000080C060200060606060606060600046
:100AF0000000000000003060C08000606060606046
:100B0000606060000000000000000060F09800607D
:100B10006060606060606000000000000000000035
:100B20009898006060606060606060000000000095
:100B3000000060603E387C6C0E3E66C6C6FC7800E5
:100B400000000000000000397F4E00DCFEE6C6C653
:100B5000C6C6C60000000000000010180C040038D3
:100B60007CC6C6C6C67C3800000000000000060C2B
:100B7000181000387CC6C6C6C67C380000000000CD
:100B80000000003078CC00387CC6C6C6C67C380071
:100B90000000000000000072FE9C00387CC6C6C643
:100BA000C67C3800000000000000000066660038C7
:100BB0007CC6C6C6C67C38000000000000000000ED
:100BC00000000000000008000800000000007F0096
:100BD0007F00000008000800000000000000000086
:100BE000000000000000003A7EE6DEE6CEFCB80021
:100BF0000000000000002030180800C6C6C6C6C6A7
:100C0000C6FE7E00000000000000060C181000C6A2
:100C1000C6C6C6C6C6FE7E0000000000000000304A
:100C200078CC00C6C6C6C6C6C6FE7E000000000060
:100C300000000066660000C6C6C6C6C6C6FE7E00C8
:100C4000000000000000000006000C00180010006A
:100C50000000C300E3006300760036003C001C0087
:100C60001800180030003000000000006000600034
:100C70006000600060006E007F006300630063003E
:100C800063007E007C0060006000600000000000E7
:100C900000000000CC00CC000000C300E3006300B3
:100CA000760036003C001C001800180030003000B0
:100CB00005050100AC01000804040100C0010008A2
:100CC0000A0A0200D40100080D0D0200F801000814
:100CD0000A0A02001C0200080A0A02004002000878
:100CE00006060100640200080A0A020078020008F1
:100CF000090902009C0200080D0D0200C002000854
:100D000008080100E402000809090200F8020008CE
:100D1000090902001C03000807070100400300083E
:100D20000D0D0200540300080A0A020078030008AF
:100D3000070701009C03000808080100B003000831
:100D40000A0A0200C40300080A0A0200E8030008B5
:100D5000080801000C04000808080100200400082D
:100D60000B0B0200340400080404010058040008BE
:100D7000090902006C0400080A0A02009004000835
:100D800008080100B404000809090200C8040008AA
:100D90000A0A0200EC0400080A0A02001005000812
:100DA0000A0A020034050008090902005805000873
:100DB0000C0C02007C0500080C0C0200A0050008C9
:100DC0000C0C0200C40500080C0C0200E805000829
:100DD0000C0C02000C0600080C0C02003006000887
:100DE00013130300540600080A0A02008C060008C8
:100DF0000A0A0200B00600080A0A0200D406000827
:100E00000A0A0200F80600080A0A02001C07000885
:100E100009090200400700080909020064070008E8
:100E2000090902008807000809090200AC07000848
:100E30000C0C0200D00700080D0D0200F40700089A
:100E40000D0D0200180800080D0D02003C080008F6
:100E50000D0D0200600800080D0D02008408000856
:100E60000D0D0200A808000808080100CC080008C1
:100E70000D0D0200E00800080C0C02000409000837
:100E80000C0C0200280900080C0C02004C09000898
:100E90000C0C0200700900080B0B020094090008FA
:100EA00008080100B809000808080100CC0900087A
:100EB00008080100E009000808080100F40900081A
:100EC00008080100080A0008080801001C0A0008B8
:100ED00008080100300A000808080100440A000858
:100EE0000F0F0200580A0008080801007C0A0008D9
:100EF00008080100900A000808080100A40A000878
:100F000008080100B80A000808080100CC0A000817
:100F100005050100E00A000805050100F40A0008C3
:100F200005050100080B0008050501001C0B000861
:100F300008080100300B000808080100440B0008F5
:100F400008080100580B0008080801006C0B000895
:100F500008080100800B000808080100940B000835
:100F600008080100A80B000809090200BC0B0008D2
:100F700008080100E00B000808080100F40B000855
:100F800008080100080C0008080801001C0C0008F3
:100F900008080100300C000809090200440C000890
:100FA00009090200680C0008090902008C0C0008FD
:100FB0000000000000000000000000000000000031
:100FC0000000000000000000000000000000000021
:100FD0000000000000000000000000000000000011
:100FE0000000000000000000000000000000000001
:1012B0000000000000000000A000FF00B00C0008CB
:1012C0000474000835D80008FDD8000839D9000892
:1012D0003FD90008000000000000000012120101C8
:1012E000B81200080F080C00DFF8042C136A002164
:1012F000984201D108467047526A01219042F9D0C4
:101300004FF0FF3070473EB50446DFF8E80B056844
:10131000696C19B9204601F04BF837BD00F09BFE0F
:10132000DFF8CC0BC06D00B9A86C01F02DFB00906C
:1013300001A900F01DF900F07CFB214601A801F095
:1013400091FB01A801F034F837BD70B504460D4695
:10135000164600F01EFE3246806AC0034CBF4FF4B2
:101360008043202329462046BDE870406CE1FEB54D
:1013700006460C46154601F0FFFA0090876AB8074A
:1013800035D5204600F09BF900281EBF40F601002D
:10139000384001282BD000F05AFA0090024621462E
:1013A00000F0EAF901A800F08AF9F0B10098806A2B
:1013B00044F22001084207D0009800F1080101AA78
:1013C000083001F06FFB10E00098083001A900F030
:1013D00043FE00980099806A28438862DFF8100B6A
:1013E000818B491C818301F089FB00F022FBF7BD52
:1013F0002022BCE738B504460D4602E0054600F061
:1014000018FB00F082F800F01AF903D400F011FB89
:10141000002032BD0099204601F024FB009880692D
:101420000028EBD100F005FB2846FFF75DFFC04325
:10143000C00F32BD10B5DFF8BC0ADFF8B44A84B083
:1014400000684830017B21B104F10800FFF75BFF21
:101450001FBD006801F098FA009001A8009900F003
:10146000FBFD00F0E6FAE16D11B101A8FFF7C2FF44
:1014700001A8FFF748FF1FBD70B50D0084B00446FA
:1014800042D001F081FA0190002001990862019890
:10149000856100F03AF80290019890F8280000F079
:1014A00008050298C6691EB900F076FD02A829E079
:1014B00000F0CDF9009065B990F82800000708D534
:1014C00001980662029800F067FD00F0F0FB6846A4
:1014D00018E000F0ECFB00F0ACFA00F048F90090E6
:1014E0000098066A0EB904620BE000F040F9002D86
:1014F000F5D190F828100907F1D5009804620198F9
:10150000066201A801F04BFA7FBD284601F03CBA03
:1015100070B5044601F030FA0546A869A0B101F0A3
:101520002BFA0646F169A14205D1084601F024FADA
:10153000006AF06170BD39B1084601F01DFA016A18
:10154000A142F8D1296A016270BD10B582B000F0E5
:1015500027FD0090816941B1026A00F0AEF8204693
:10156000FFF7D6FF00990020886100F062FA13BDF2
:101570000B46B0F90220B0F90010184601F0C6BAC7
:1015800010B50446DFF86809C06B02E001F0F4F919
:10159000406910B1A042F9D1012010BD10B504007E
:1015A00082B021D001F0F0F900F049F81AD5009886
:1015B000406A00281EBFDFF8B01C0968A14204D0B1
:1015C00001F05DFB009900204862204601F02CFCF0
:1015D000044605E02046FFF7E1FF00F0C9FA046A7F
:1015E000002CF7D100F025FA13BD70B5040084B0CB
:1015F0000D46164622D001F0C7F900F020F804D5B8
:10160000009A294600F0B8F810B900F012FA7FBD30
:1016100000F00FFA324601A92046FFF7A8FE204647
:1016200001F002FC044607E0324601A92046FFF71C
:10163000DCFF00F09DFA046A002CF5D17FBD00901C
:1016400090F82800800770472DE9F0410F0084B022
:101650000646144698462ED0384601F095F900907B
:10166000856AA80725D5009A314600F085F800B3B1
:1016700040F601002840012807D10098026A8169DC
:10168000434601A8FFF7E0FF04E0424601A93846BF
:10169000FFF76DFE0098C66907E0424601A9304693
:1016A000FFF7A3FF00F063F8066A002E18BFA642FA
:1016B000F3D100F0BEF9BDE8FF812023C4E7B0F903
:1016C0000410B0F900209142A2BFB0F90610B0F9A1
:1016D00002008142B4BF00200120704770B584B081
:1016E00006460C4615460BE001AA21463046FFF798
:1016F000F5FF00F03CF8066A002EF5D100F097F9EE
:10170000002E33D000F0A3F80090866AB007F5D51C
:1017100015B100F02FF801E000F09CFC00F065F836
:101720000028EBD0F0071ED40098B0F90200002D7D
:1017300004D0B5F902108142A8BF0846B4F90210DE
:10174000814209DABDF90600B4F90620411E914232
:10175000D4DA401EE080D1E7BDF90A00B4F90610E2
:101760008842CBDAF6E70098C669C5E77FBD304608
:1017700001F002B900992A4601A801F05CBBFEB550
:1017800007460C461546002610E001AA21463846B9
:10179000FFF7F5FF00B10126384601F0EDF8076AC2
:1017A000002FF2D10098076A00F043F9DFB1384604
:1017B00001F0EAF80090876AB807F3D515B1FFF792
:1017C000D9FF01E000F046FC00F00FF80028E9D056
:1017D000F80705D4BDF80800401C20800126E1E789
:1017E0000098C769DCE73046FEBD01A9204601F03C
:1017F00052BB70B584B006460C4615460BE001AAF4
:1018000021463046FFF7F5FFFFF7B1FF066A002ECD
:10181000F5D100F00CF9CEB100F019F80090866A0D
:10182000B007F6D515B1FFF7A5FF01E000F012FCF7
:10183000FFF7DBFF0028ECD0F00704D4BDF804006C
:10184000401EA080E5E70098C669E0E77FBD30460E
:1018500001F09AB800B585B000910190694601F099
:1018600045FB05B000BD00224A800A8003888288BB
:10187000D21A8A80C2884088101AC880704770B512
:10188000040086B00D4630D001F07EF80090866AE4
:10189000B00728D500F0DEFBF00344BF2046FFF779
:1018A0007DFE5DB103A8294600F0D6FB009803A990
:1018B000FFF75EFE03A901A801F0D4F8214601A8B4
:1018C000FFF798FD78B140F601003040012806D1BD
:1018D0000098026A816901A8FFF7EFFE03E001A901
:1018E0002046FFF785FD00F0A4F806B070BD00218A
:1018F000C5E72DE9F04F83B0DFF8804A07468846F8
:101900000D98E16C0C9E91469A4641EA000546B955
:10191000608B50B3DFF8DC050068407C04EB80008E
:10192000066A16F1010F08BF00261ED0EEB1FFF7C0
:101930008EFF01900199B0F90000B1F90210C719AA
:10194000B9F1000F884405D1019AB2F90420101AA8
:1019500000F10109BAF1000F05D10198B0F90600B4
:10196000401A00F1010A00F018FB0F982C3001F02A
:10197000DDFA5FEA000B57D0608B401C608358464D
:1019800001F002F8009007800098A0F8028009EBAF
:1019900007000099401E88800AEB08000099401E4D
:1019A000C88000990E980861DFF8D4190098806A01
:1019B000294008430099886200F03BF8E06B50B181
:1019C00000F0DAFF0746584600F0D6FF796941611A
:1019D000C7F814B001E0C4F83CB031465846FFF7F0
:1019E0004BFDA80644BF584600F0A7F8E80702D50B
:1019F000A06D401CA065680644BF584601F0A8FAD7
:101A0000A8070DD5584600F0BFFF00900099806AE6
:101A100040F00200886200F00CF85846FFF767FFBC
:101A200001215846FFF716FF5846BDE8FE8F009883
:101A3000066A684600F0B3BFF8B5040066D0FFF749
:101A40009FFD002862D0204600F061F805460B217A
:101A50002046FFF7FFFE204601F0BCFA204600F0CA
:101A600093FF0090406A08B101F009F9DFF80C69B2
:101A700000207066B06B06EB8000016BA14204BFD2
:101A800000210163816AA14204BF00218162306CA0
:101A900005E04168A14204BF0021416000680028C0
:101AA000F7D10721204601F0CEFA009FF869FFF731
:101AB000C3FFF8690028F9D12046FFF746FDF06B17
:101AC00048B100F059FF07467869A042F8D100F00C
:101AD0004FF8406978610098806AC10702D5B16DFE
:101AE000491EB165800602D5B08B401EB083FFF75A
:101AF000A0FF708B401E7083204600F096FF002DE3
:101B000004D406EB8500006A00F017F8F1BD10B5AB
:101B1000044600F031FF80690028F9D12046BDE875
:101B20001040FFF7E1BB80B5FFF7F1FF00285CBF75
:101B3000BDE8024001F0A0BA01BD70B5DFF8B453B2
:101B400004002868866C04BFDFF83018CC6B84640E
:101B50002046FFF7E8FF01F0F7FC00F009F82968DC
:101B6000B0F90020CA64B0F902000865304670BDC3
:101B7000204600F001BF70B5DFF8004884B0D4E91A
:101B80000201CDE90001206920B92088ADF80000EC
:101B9000608811E0A089401CADF800006089BDF9A3
:101BA0000010ADF80200B4F90400884206DA20887B
:101BB000ADF80000E089401CADF80200B4F9060061
:101BC000BDF90210884264DBDFF8B85700F094F9E1
:101BD0000290B4F90010BDF90000884217D1E088E6
:101BE000ADF80600A088ADF804002868806C08E015
:101BF00000F0C2FE06460022306A6946FFF76EFD1D
:101C0000B0690028F4D100F04DF8FFF767FDBDF88A
:101C10000000ADF804002868806C0AE000F0ACFE1B
:101C200006460022306A6946FFF7A9FD0028EED17A
:101C3000B0690028F2D100F035F8FFF7A0FD0028C8
:101C4000E5D1BDF90010B4F90400ADF804008842F4
:101C500006DADDE90001C4E9020100F028F8A6E790
:101C60002868806C08E000F087FE05460022286A9C
:101C70006946FFF7BEFDA8690028F4D100F012F80C
:101C8000FFF7B7FD00F013F8206944F621618842A0
:101C900001DB002004E0DDE90001C4E902010120CC
:101CA00004B070BD0298C06900226946704702A85E
:101CB00000F075BE8F48006890F8540000B9704776
:101CC00010B5DFF8B8466069022805DA2069401CC3
:101CD0002061FFF750FF20B96069401E606100205D
:101CE00010BDFFF7A7FB012010BD70B5814C86B079
:101CF000064620684830017B11B9FFF79BFB06E0E0
:101D0000DFF878566969491C0229696101DB012005
:101D100055E0006800F038FE00904FF0FF30286179
:101D2000287E20B3009902A8083100F095F91EB171
:101D3000314602A800F096FE2068416C29B3009855
:101D40000190082204A801F085FCE86D28B100F09C
:101D500024F9E86D00F018FE019004A90198FFF73E
:101D600007FC04A902A800F07DFE01A80EE000987F
:101D700090F82800800702D5009902A8D5E7686985
:101D8000401E6861FFF755FE11E0684600F007FE4F
:101D9000E96D19B102A8FFF72DFB28B12068816C0D
:101DA00002A8FFF727FB20B96869401E6861002080
:101DB00005E0DDE90201C5E90001FFF77BFF06B0A0
:101DC00070BD80B501F082FCDFF8B815096800200D
:101DD000486401BD70B588B000F0E2F80090866AF2
:101DE0000569009901A8083100F036F9FFF721FED6
:101DF00045B3B00726D52E21204601F087FCDFF839
:101E00007C55287E401C2876F00406D500F01CF88E
:101E100003A9204601F06AF80DE001A8FFF765FF6D
:101E200048B100F011F803A9204601F05FF8FFF770
:101E300041FF0028F5D1287E401E28762F2120461C
:101E400001F064FC08B070BD0F200390049401A859
:101E50000690B6E710B5044600F08EFD806AC00318
:101E60004CBFDFF82415DFF824152046BDE81040EC
:101E700008472DE9FC411F4D804600F03DF80190D8
:101E8000404600F081FD009001460198083001F0C5
:101E900002F828B32868C66C076D01980099DFF82E
:101EA000DC4400F1080201F1080000F0C4FF00F07A
:101EB00074F80099C4F85C802868B1F90010C16416
:101EC0000099B1F902100165FFF7B3FD4046FFF735
:101ED000C1FF0020E0652868C6640765012004E0B2
:101EE00000F05BF8FFF7A5FD0020BDE8F6810000DB
:101EF0008CB40120D40000202868806C00F044BD20
:101F000030B585B000F04CF8FFF799FB3DD500984F
:101F1000C56938E0FFF7F9FA019090F8280000F061
:101F2000030003282BD1009800F10801019800F06C
:101F3000B2FF20B3009902A8083100F08DF8FFF736
:101F400078FD00F02AF82846FFF793FF58B100F01B
:101F500020F801902846FFF7D3FF00F01AF801900F
:101F6000FFF706FE0090204600F00EFD0090FFF700
:101F7000CCFA019002A90098083000F06DF80198A1
:101F8000056A00F00AF8002DC4D1FFF752FD05B034
:101F900030BD284600F0F0BCC46101A800F0FFBCD1
:101FA000044600F0F1BC38B5FFF7FAFF009040F6A8
:101FB0000101806A0840012804D0FFF73AFD20465D
:101FC000FFF748FFDFF8B403806D00B32046FFF74A
:101FD00097FFFFF7CDFD8469056A16E0FFF7D9FF8B
:101FE00090F8280000F00300032804BF2846FFF7FC
:101FF00040FF2846FFF784FFFFF7CBFF056A002D5F
:10200000ECD1FFF7B5FD056A8469002CF7D131BD2D
:102010003EB5DFF870530446FFF76EFF009001A84D
:102020000099083100F018F8009829680830083144
:10203000082201F00FFBFFF7FCFC2068FFF7B3FF5D
:10204000FFF75AFF009001A9083000F005F8FFF7EC
:10205000F0FC37BD009901A8082201F0FBBAF1B5E8
:1020600084B000F091FC019002A801990831FFF7BB
:10207000F3FF0198856A86690769FFF78EFF0024E0
:1020800044F22000054231D0EFB1049902A8FFF7D5
:10209000B1F9C0B10498FFF750FD68070FD5002EC5
:1020A0000EBF012005F0010080F001000090002328
:1020B00004AADFF8DC1202A801F02FFB03E0049869
:1020C000FFF771FF0124049800F05EFC0190B14914
:1020D000806A0840810448BF40F00400019988628A
:1020E000FFF75BFFA548818B491E8183204605B021
:1020F000F0BD2DE9F047A14C9EB0206E00250100F7
:1021000002D0804700E00125A06EB8B1E66B06E082
:1021100037460646FFF78DFC3846FFF78DFC5EB16B
:10212000FFF795FB00900099896A40690904EFD494
:102130000646FFF77EFCF2E70020A066206D010056
:1021400018BF804794480068010002D080470028EB
:10215000D9D18C4E306890F8540000284DD001F051
:1021600095FB0028CFD1306890F8540000281CBFA0
:10217000A08B002841D0606D10B10068804704E05A
:10218000012001F0F9FB00E00125306890F85400CF
:1021900060B3A08B50B3676E4FF0010807B9E76BCF
:1021A00001A801F0F3FB3068D0F83090D0F834A0EB
:1021B00057B90EE03846FFF752FF08B1A8F1010801
:1021C000384600F0D9FB4769002F18BFB8F1000F5F
:1021D000F0D16766484601F0EBFB504601F0E6FBA4
:1021E00001A801F0D9FBA08B0028CDD1606D10B102
:1021F0004068804701E001F0BFFB28461EB0BDE803
:10220000F08710B5044620680E2802D00F2809D0A8
:1022100017E0E0684168012917D1BDE81040006867
:1022200001F02EBB6068FFF75FF8544901EB8000B6
:102230006FF07041406C884203D001F0B7FB01F0B1
:10224000FBFB2046BDE8104010E010BD4D49096879
:10225000012081F8540070474A490968002081F83C
:10226000540001F071B9000084B6012010B5044695
:10227000216860680E290ED0142906D0172908D0CD
:1022800022290DD028290ED002E0E16801F074FC6B
:102290000020E06010BD2146BDE8104001F07DBC8B
:1022A0006FF07040F5E7BDE81040FFF720BB334802
:1022B0000021417681660164016381624163C162EC
:1022C0008165C165C164416570472DE9F0432B4CC0
:1022D00085B0607E00284DD12A4DE06360660026FF
:1022E00029682E4F4864A083608343F6FF78304608
:1022F00001F062FCA8B10020039002970220019037
:1023000043464FF0FF300090424600210020FFF787
:10231000F0FA04EB86016FF0704208624A64FFF73E
:10232000E6FA761C022EE2DB0026DFF874801D4FF1
:10233000DFF8749009EBC60001F0D8FC07EBC6008B
:1023400001F0D4FC08EBC60001F0D0FC761C022E94
:10235000F0DB206AFFF7F1FB2968012081F85400C7
:1023600060761248E06605B004F16C00BDE8F04309
:1023700001F0E3BB05B0BDE8F08300008CB40120A0
:102380009F3F3F00D4000020FBD30008D51D00086C
:1023900011200008DFBFFFFF68B6012003220008FC
:1023A00084B5012074B5012014010020AF2200087B
:1023B00030B5094D83B02968497C0446074850F878
:1023C0002100C268126B6946904728686A46214618
:1023D000083000F030FD37BDD4000020D8000020C8
:1023E0000F21DFF8742602EBC1031B6C984201D267
:1023F000491EF8D50846704701600061426083605D
:10240000101840F8042C704710B504466068FFF7B8
:10241000E7FF102812D2DFF8401663680A68D21A64
:102420000A6001EBC00004F1080144300A68496801
:1024300002B1516009B10A6010BD026010BDF8B56B
:10244000DFF814460546A06B0E46E1680818AF1980
:10245000401EB84203D3386808B900F032F8A06BC8
:10246000B04207D256F8040C371A386810B900F099
:1024700028F83E462846FFF7B3FF10281FD204EB8A
:10248000C0072A467B6C00213046FFF7B5FF07F1F5
:10249000440006F10801026802B151600A6000229E
:1024A0004A600160206894F829102818206031B92A
:1024B000E168081AA168814238BF0146A160284638
:1024C000F2BD7868451938469EE72DE9F143DFF8FB
:1024D000884582B0A56BE0684019401E01902846EF
:1024E0004768016899BB019A791991422FD28946B0
:1024F0000091D9F80480D9F8001041B3626B12F84A
:102500003120012A23D1E26A91420CBF0126002624
:10251000FFF77AFF606BD9F8001000EBC10042466C
:1025200045604946284601F0E9FB26B1606B0099F9
:10253000401A2818606308EB05013846FFF77FFF53
:10254000029919B1884201D3002005E0474601985D
:102550007D198542C3D30120BDE8FE83F8B5002371
:102560000446002504E000F06FF844F8046B6D1C8D
:10257000B5EB910FF7D30546002400E0641CB4EBE3
:10258000910F0BD200F05AF855F8046BCCEB0C2CE1
:10259000A7EB0C07BE42F1D00320F2BD5B1C022B5F
:1025A000DED300230446002504E000F04DF824F8B3
:1025B000026B6D1CB5EB510FF7D30546002400E00C
:1025C000641CB4EB510F0CD200F038F8CCEB0C2C9F
:1025D00035F8026BA7EB0C07BFB2BE42F0D0022069
:1025E000F2BD5B1C022BDDD300230246002409E070
:1025F0001D19FF26B5FBF6F6C6EB0626AD1B02F845
:10260000015B641C8C42F3D30246002400E0641C8E
:102610008C420BD21E19FF27B6FBF7F712F8015BAD
:10262000BE19F6B2B542F2D00120F2BD5B1C022BFE
:10263000DBD309B101F09EFB0020F2BD1F194FF062
:10264000FF0CB7FBFCFC70475E19FF27B6FBF7F7E2
:10265000C7EB0727F61B704710B5DFF8FC430020D7
:1026600084F828008022002104F1400001F085FB5D
:10267000C0220021204601F080FBBDE810400C2262
:102680000021DFF8D80301F078BB2DE9F041DFF835
:10269000C843E06A40B9DFF8C40341688068083085
:1026A000B1FBF0F0851C03E0206900EBD000051DB4
:1026B000E80000F08CF85FEA000827D0616BE76A59
:1026C00001EBC800406800F108062069C2003046EE
:1026D00000F0D0FF20696663C4F82C806A1E01E018
:1026E000401C4860904206EBC001F9D300204860CE
:1026F000206921696062256160682818401A60605D
:1027000017B1384600F091F9002000E00120BDE843
:10271000F08170B5DFF8405305F1280420780028D7
:1027200044D10120DFF8346320707168B1F5205F77
:1027300088BF4FF420513068FFF710FFB06810B920
:1027400070688008B060DFF81803F06006F10C00D4
:1027500001F0F3F9281D5A21C1610021102205EB77
:10276000C1038A40491C10291A64F7D30221C160B1
:102770003268716881608B18143BE360226100212C
:1027800005E0E3684A1C03EBC1014A601146C268D8
:10279000521E9142F5D301210162026021698068D5
:1027A000FFF74DFEFFF771FF0120A06070BD10B56F
:1027B000DFF8A4124A684B6A521C4A604A6B02EB6B
:1027C000C0046360002302F83030486210BD2DE978
:1027D000F0410546FFF79DFFDFF87C42206C854203
:1027E00002D3E81C8008800000F10C052068A84294
:1027F0001BD3206B6168884207D3401E2063FFF71C
:1028000044FF216B491C216378B96068D4F82480A7
:10281000401E6060606B00EBC80149686162012185
:1028200000F83810B8F1000F01D1002037E0284639
:10283000FFF7D6FD002601E00026401C102830D20C
:1028400004EBC001496C0029F6D08E68002EF4D04C
:102850007168A94208D2B1680029EDD08E68002EB7
:10286000EBD07168A942F6D37768216C781B0C31E4
:10287000884238BF3D463046FFF7C6FD606B00EB2F
:10288000C800002346602A4641463046FFF7B4FDA3
:10289000BD4203DAA919781BFFF7D1FD4046BDE818
:1028A000F081002EE0D12846FFF70FFE0028BED0B1
:1028B0004046FFF77CFFB8E728B16749CA6B026062
:1028C00002B15060C86370472DE9F8430446FFF732
:1028D00020FFE01C800880005F4C051D206C8542B5
:1028E00038BF0546E66B00E006468EB156F8041C7C
:1028F0003068A942F8D108B171684160706808B1C8
:1029000031680160E06BB0422ED13068E0632BE0AB
:10291000A06BE16801EB0008A8F10409D9F80000F8
:10292000A8EB0007386830B10020FFF7CEFDD9F8DA
:102930000000A8EB00073868B0B97868A84213DB3C
:10294000C019401B061D3846FFF75EFDE068401BBE
:10295000E0606069281860617868401B1CBF3946D8
:10296000FFF76DFD46F8045C3046BDE8F2830028B1
:1029700018BFFFF72CBF704728B13749496B01EBEF
:10298000C0004068083070473349CA69521CCA61A8
:10299000496B01EBC0010A78521C0A70ECE703682E
:1029A0002D4953F8083C4A6B02EBC3021378022B03
:1029B00003DBCB690BB15B1ECB611178491E117033
:1029C000002101600020704710B5FFF7A2FE00242F
:1029D0000F21214800EBC100406C10B9491EF8D509
:1029E00008E0806830B141688C4238BF0C4680688E
:1029F0000028F6D1A4F10C0010BD80B5FFF7E4FF6C
:102A00001549096AB0F5800F04D9642290FBF2F0F1
:102A1000484302BD48436421B0FBF1F002BD0F4AB8
:102A20001060880880005060704710B504001FBF18
:102A30000948406B10F8341000290BD0022909DA3C
:102A400000EBC40041684868FFF7F9FC2046BDE888
:102A50001040ACE610BD0000CCB30120D8B5012079
:102A600059260008B1F90020B0F900309342B8BFF0
:102A70000280B0F90220B1F902309A42B8BF1A467A
:102A80004280B0F90430B1F904209A42C8BF1A4616
:102A90008280B0F90630B1F906209A42C8BF1A46C2
:102AA000C280704700B9704710B509B30AB3B2F9D4
:102AB0000030B1F900409C42B8BF23460380B2F910
:102AC0000240B1F90230A342C8BF23464380B1F9A6
:102AD0000440B2F90430A342B8BF23468380B1F961
:102AE0000640B2F90630A342B8BF2346C38010BDEA
:102AF0001146BDE81040082200F0ACBD0248006855
:102B0000010018BF004770478CB6012058B10388F8
:102B1000CB1803808388C91881804188511841806F
:102B2000C1885118C1807047F8B504460D46164655
:102B3000FFF72AFF00901621009A1268D268526AA5
:102B400000209047074600F0B7F8380003D032461F
:102B500029462046B847F1BD2DE9F14FAE4884B073
:102B60000068DDF840801E46437C0F9889469346F6
:102B70000022414601F032F80027040046D02069C7
:102B80008068804701F0DFF982460AFB0BF0C01D28
:102B9000C0080290FFF731FF0E9DE90705D44110F0
:102BA00000EB9170801000EB4000012E0BDA0299CF
:102BB00000291ABF1838B0FBF1F0002071420E4610
:102BC0008642C8BF0646E80707D4049800973346F4
:102BD0005A46494601F06EFA0746012E03DA2046AE
:102BE00000F0FAFF12E0029870431830E90702D5AE
:102BF000FFF7BDFE01E000F099F9050008D120467D
:102C000000F0EAFF17B13846FFF70FFF002021E080
:102C1000FFF7BAFE0190046001990498888001983A
:102C2000A0F806900198A0F808B001984681019993
:102C30000298C8600198C0F810A00198476101A8E7
:102C4000FFF7ADFEC4F81080A56073480068407CB3
:102C5000A061284605B0BDE8F08F10B582B0002411
:102C600058B1FFF791FE00900068006980688047C6
:102C700001F069F9044600F01FF8204616BD10B5B2
:102C8000040082B017D064480068006EA04208BFFC
:102C900001F048FA2046FFF777FE0090406908B13E
:102CA00001F04AFA0098006800F096FF00F004F87E
:102CB0002046FFF7BAFE13BD6846FFF770BE2DE948
:102CC000F0470446544884B00068407C8846534925
:102CD00051F8207091469A460026F968096804293F
:102CE00003D03F68002FF8D100E01FB900F064FF67
:102CF00007001BD0FA68D26A0121384690470500C8
:102D000013D03F690C9EB868804710F1010F04BFD3
:102D1000434F46F0010602970195009653464A46F6
:102D200041462046FFF718FF0646304604B0BDE88E
:102D3000F08770B5384D82B004002868066E02D165
:102D400001F0F0F914E00EB101F0ECF9FFF784FAAC
:102D50002046FFF719FE0090286804660098006876
:102D600000F074FFFFF7A8FF01F00EFA00F0ECFB93
:102D7000304676BD2DE9FE4304008846914645D095
:102D8000002001F013FA054623480068066E20462D
:102D9000FFF7FAFD00900068806900F06DF90746C2
:102DA0002048804504D10098B0F90480B0F906901D
:102DB0000099ADF80480BDF804000989ADF80690CB
:102DC0000818401E0099ADF808004989BDF80600B2
:102DD0000818401EADF80A00FFF738FAFFF76CFF3D
:102DE00001A8FEF782FF40B14A464146204601F065
:102DF000BCFCFEF75FFF0028F6D1384600F03CF936
:102E00003046FFF796FF284601F0D0F9BDE8F7837A
:102E1000044A1146AEE70000D4000020D80000208C
:102E2000D8DF000801F0FFFF00B9704780B5FFF759
:102E3000A3FDC06902BD10B5B1F90030B2F9004080
:102E40009C42A8BF23460380B1F90240B2F9023088
:102E5000A342B8BF23464380B2F90440B1F904301D
:102E6000A342C8BF23468380B2F90640B1F90630B9
:102E7000A342C8BF2346C380B0F90410B0F90020B4
:102E80009142A2BFB0F90610B0F902008142B4BF6E
:102E90000020012010BDB1F90620B0F902309A429D
:102EA000A2BFB0F90620B1F902309A420DDBB1F9A8
:102EB0000420B0F900309A42A2BFB0F90400B1F981
:102EC0000010884201DB0120704700207047C1B22A
:102ED00000F47F4242EA0141C0F30742114300F08F
:102EE0007F404FF07F4250400843704770B50E4C12
:102EF0000546206814280E4614DA2846FFF73CFDE4
:102F000001697560080008D02068401C20603046C8
:102F100088472068401E206070BD3046BDE8704084
:102F2000FFF7A4B970BD00BF90B6012038B50446C4
:102F3000FFF71DFD050009D0FFF726FD0090224692
:102F4000002100F01AFF6846FFF729FD284632BD30
:102F50002DE9F041040086B039D0FFF715FD00904F
:102F600003A80099082200F075FB0098056A866A9C
:102F70006846FFF714FD204601F01AFC070026D032
:102F8000204601F026FC8046B00704D52A4641467B
:102F900003A8FEF792FB2046FFF7F6FC00904046A0
:102FA000FFF7F2FC01903846FFF7EEFC0290056255
:102FB00001980099C06908620198C4616846FFF7EA
:102FC000EEFC01A8FFF7EBFC02A8FFF7E8FC06B057
:102FD000BDE8F08170B582B00446684601F024FC7B
:102FE000054608E0009E6946284601F02DFC05468E
:102FF000304600F015F895B10121284601F072FC29
:10300000009959B150B10846FFF7B6FC4068A0429C
:10301000E8D06946284601F017FCE1E7F9E773BDFF
:1030200010B5040082B00AD0FFF7AEFC0090006833
:1030300001F029FC00F004F82046FFF7F6FC13BD70
:103040006846FFF7ACBC00B585B02622039100921C
:10305000694600F0A2FD05B000BD0268531C036084
:103060001170704738B50C46154601F0ABFC10B135
:1030700000202060286031BD70B5094D04462868E5
:10308000467C022C09D2204600F096FD28B1286823
:10309000447401F047F803480460304670BD0000F6
:1030A000D4000020C4B4012080B500F038F94A6B88
:1030B000824205D0486300F097FABDE80240AEE2D4
:1030C00001BD80B500F02BF90A6B824205D0086380
:1030D00000F08AFABDE8024098E201BD70B5DFF861
:1030E00064150A68117C80EA01035B0705D5936BC0
:1030F000D56B1C682E681E602C601074084670BD6D
:10310000DFF8441509688968084738B5DFF83425C1
:103110001268B2F90A309942A4BFB2F90E308B425C
:103120001FDBB2F908309842A4BFB2F90C308342D9
:1031300017DBDFF81835547C53F82440137CE5681E
:10314000DB0707D50A46EB690146204601B0BDE81A
:1031500030401847D26B13680A4601462046AC69D6
:10316000A04731BD10B5DFF8DC341B68B3F90A4065
:10317000A142A4BFB3F90E408C420FDBB3F9084063
:10318000A042B8BF2046B3F90C409442B8BF2246D3
:10319000824203DB00F003F8A468A04710BDDFF80B
:1031A000AC445B7C54F8234013460A460146204653
:1031B000E468704738B5DFF88C442468B4F90850E7
:1031C000A842B8BF2846B4F90C509542B8BF2A4669
:1031D000824218DBB4F90A50A942B8BF2946B4F9B3
:1031E0000E509D42B8BF2B468B420CDBDFF85C547F
:1031F000647C55F82440009313460A460146204655
:10320000E4682469A04731BD2DE9F84F0446DFF892
:10321000400486B000F04EF902D000F072F949E0A7
:103220005818421E2819431E1098DDF844C04CEA75
:10323000000001283FD1DFF80C040068B0F90AE073
:10324000AEEB0107012F09DB0699C91B0129069185
:1032500030DBDDF84CC071460CFB0766B0F90E7030
:10326000D71B012F04DB069AD21B012A069221DB11
:10327000B0F90C209A1A012AA8BFAD1A169AB0F913
:103280000830A41A9C4217460BDADF193F1BEB1AD1
:10329000BA1AE51806EBE70622F00702141907F040
:1032A0000707012D06DBDFF8A423407C52F820003D
:1032B00000F037F945E100F0F6F801E000F0E9F838
:1032C000019806998842F5DA00F00FF9A2BFB0F92B
:1032D0000E0000998842F1DB00F0CFF807E000F023
:1032E000FCF800F0D0F80AF1010A10988144AA45D0
:1032F000E4DA00F0E7F800F00AF810B90A7C920767
:10330000F1D400F0B4F8EAD052F82000E7E70499CD
:10331000FFB227FA01F012998F40A8EB0108C949C2
:10332000096870472DE9F84F0446C94886B000F097
:10333000C1F802D000F0E5F86CE0DDF844C05818A0
:10334000109B2A19401E521E4CEA0303012B62D126
:10335000BC4B1B68B3F90AE0AEEB0107012F09DB98
:103360000699C91B0129069154DBDDF84CC0714652
:103370000CFB0766B3F90E70C71B012F04DB069820
:10338000C01B0128069045DBB3F90C00101A012878
:10339000A8BF2D1AB3F908000027844232DA071BB0
:1033A000129AED1B012A0CD0022A12D0042A18D03E
:1033B000082A1ED0102A1ED0182A18BF202A1DD075
:1033C00020E006EBE70627F00700041907F00707DF
:1033D00018E006EBA70627F00300041907F003071F
:1033E00010E006EB670627F00100041907F001075B
:1033F00008E0BE1904E006EB470601E006EB87068D
:1034000004460027012D05DB90485A7C50F8220025
:1034100000F087F895E000F046F801E000F039F898
:10342000019806998842F5DA00F05FF8A2BFB0F97A
:103430000E0000998842F1DB00F01FF807E000F071
:103440004CF800F020F80AF1010A10988144AA45CE
:10345000E4DA00F037F8FFF75AFF10B90A7C920758
:10346000F1D400F004F8EAD052F82000E7E7C96B85
:10347000159AD1F800B0002A70474FF00008039663
:10348000A146C24670476F480068C06BC0F800B0E4
:10349000704701981199401C0190009808180090FD
:1034A00013988619704712980091C0F10800049093
:1034B00001977047D0F800C0149E0027BCF1000FA0
:1034C00015467047B8F1000F06D10398401C0390D1
:1034D0004FF0080810F8017D704708601098029BB3
:1034E00000994844421E484664E61198009908181D
:1034F000401E0290534800680299B0F90A20914298
:1035000070471598069B059004961398039012989F
:10351000029011980190109800902046DCF800402D
:103520002047159A0592049703962B46139A029208
:10353000129A0192069A00920A462146C46864686B
:10354000204707B0BDE8F08F3E4801683F484A7CFD
:1035500050F82200C268126B0831104770B582B073
:10356000FFF7F2FF01F05EFA040013D100252846B0
:1035700000F022FB009050B1009AD268526A0C21F0
:103580006846904701002DD00098884704436D1C81
:10359000022DECDB24BB01F07CFA012543F6FF761B
:1035A000284600F009FB0090C0B12846FFF764FDF3
:1035B0000420FFF7A5FD3346324600210020FFF727
:1035C000F9FD0020FFF79CFD009AD268526A0E2197
:1035D0006846904701001CBF009888476D1EDFD5E4
:1035E000204676BD012076BD164A18491268527CE5
:1035F00051F82210096909680847124A13491268EC
:10360000527C51F822100969496808470D49096838
:103610000A7C52074CBF896BC96B08607047094927
:1036200009680A7C52074CBFC96B896B08607047F8
:10363000054909684968084703490968096808474E
:1036400000000000D4000020E8000020D800002086
:1036500078B6012062B38B0708D0521E11F8013BE7
:1036600000F8013B00F024808B07F6D1830740F07F
:10367000208000BF103A07D330B4B1E83810103AB8
:10368000A0E83810F9D230BC530724BFB1E80810C5
:10369000A0E8081044BF51F8043B40F8043BD207AF
:1036A00024BF31F8022B20F8022B44BF0B780370A3
:1036B0007047083A07D3B1E80810083A40F8043BCD
:1036C00040F804CBF7D25307E4E7704780B50020F9
:1036D00000F06CF96FF07F4000F06AF9012001F012
:1036E00019FA002001F01EFA002001F025FA00204E
:1036F00000F05CFD0448006801F028FABDE80240D3
:10370000002001F02DBA0000D000002001F030BAF6
:103710008142C8BF0146084670472DE9F44F4F4F1C
:1037200084B006463868457C4D48285602288B46AA
:103730009A46284606DB00F069FB8146284600F0E1
:1037400067FB05E000F066FB8146284600F064FB5D
:10375000054626B301A902A801F034FAB6F90080A3
:10376000B8F1000FB8BF4FF00008B6F90240002CC6
:10377000B8BF002402984844411EB6F90400FFF780
:10378000C7FF814601982818411EB6F90600FFF7C9
:10379000BFFFA9EB0801001B4A1C451C03E04FF0CA
:1037A000000800244A46BAF1000F08BFC5F1000A1C
:1037B000012AA8BF012D4ADB0E98009053462146EE
:1037C0004046FFF77CFA5FEA000903D10498D84726
:1037D00001203DE001F0F8F98246AA451EBF386895
:1037E000806C00281CBF322101F0C2F94846FFF767
:1037F000A0FA00261AE0A91B5145BCBF484601F0BB
:10380000F7F93EB132194146484601F009FA4846F7
:1038100001F03AFA0498D8470F48016808001CBF25
:10382000002088474846FFF7F3FA5644AE42E2DBF1
:103830004846FFF724FA0020FFF77BFAAA451EBF8F
:103840003868806C00281CBF332101F091F90020FA
:1038500005B0BDE8F08F000088B60120D40000203C
:1038600094B60120134A02F15003984218BF00F1A8
:10387000080209B18A4200D0104670470021F1E7E2
:103880000D498A6802B98860FFF738B970B50A4CEB
:1038900021686268002091420AD00D684E6808468F
:1038A000FFF7ECFF20603146284601F00BFA0120BB
:1038B00070BD000004B50120040100202DE9F04195
:1038C00080460124B8F1020F82B00F464BDA2D4E2C
:1038D000726810001CBF4046904706EB88053FB356
:1038E000022F13D03FD2A86870B9404600F064F9A7
:1038F0000028009037D000F039F8020033D000984B
:1039000001219047A8680024401C2BE0404600F0AD
:1039100053F9009038B300F029F8050023D030683F
:10392000010018BF804700980221A84700241AE030
:10393000A868012811D1404600F03EF9009060B11E
:1039400000F014F85FEA000807D03068010018BFE3
:10395000804700980021C0470024A868010018BFD4
:103960000121401AA8602046BDE8F681009AD2687D
:10397000526A0D2168461047014603480068407CA2
:103980009CE7000000B60120D4000020014909682E
:1039900009E00000D40000200146014802E000BF19
:1039A000D400002000687022FFF764BEFFF740BE1D
:1039B000FFF742BE10B56349634C002008607022D7
:1039C0000021204600F0D9F904F17800BDE810404C
:1039D0000822002100F0D1B95C49086070472DE948
:1039E000FC4105460E46174698460420FFF788FB23
:1039F00004465548406FC16C006D4D198619CF19AA
:103A00008044ADF80050ADF80470ADF80260ADF838
:103A100006806846FEF769F948B143463A463146A2
:103A20002846FFF7C7FBFEF745F90028F5D12046E9
:103A3000FFF766FBBDE8F38180B50021002001F0AF
:103A400069F9BDE80050424943F6FF721346084643
:103A5000C5E710B53B4C206858B90120206001F043
:103A600063F901F073FD3B486060201DBDE8104024
:103A700063E010BD70B5384801684908490001602D
:103A80000121364881603649016000683549884225
:103A900000D0FEE7FFF7DDFF334C2E20207001F051
:103AA000D7FE294901F1680501F11406E868021DF5
:103AB000C2638063006400F108023260407C01EB65
:103AC00080000831806FC268126B90470FF2A0002F
:103AD0003065A868B060E868083030600120307157
:103AE00001F0B8FE7063032028706FF07040F06141
:103AF00030620020FFF79CFD6FF07F40FFF79CFDD8
:103B00001A486060FFF72AFD054600F0D6F910B1AB
:103B100000F0D6F938B900F0C8F9064600F0C3F94C
:103B2000314600F0C6F90021002001F09FFEFEF7AB
:103B3000CCFB01206070284670BD0B498A6842604A
:103B4000886070471CB60120600000205C000020E7
:103B500001C0FFFFB5390008002000E0003002403E
:103B6000C2A507F4CDB5E8B510B6012010DF0008F6
:103B7000653100080B31000810B582B00C460028F2
:103B800018BF002C08D0FEF7FFFE00902146FDF77D
:103B90006AFE6846FEF703FF13BD38B50D00044604
:103BA00008D000F016FE28B1AC602946BDE83440CC
:103BB000FFF79CB931BD7047022801DB0020704738
:103BC000484951F8200000E0006800281EBFC16885
:103BD00009680029F8D17047FEF76EBEF8B51F4698
:103BE000022F04460D46164603DA1C20FEF76CFE33
:103BF00008B90020F2BD0DB105610AE0394951F85C
:103C0000271031B100E011460A68002AFBD109698A
:103C1000016187618682C46000210160416081602A
:103C2000F2BD81692F4A52F82130834204BF0368F4
:103C300042F82130416809B102680A60016809B19F
:103C400042684A60002101604160704770B560B30E
:103C500081690C46022C28DA224A52F824301BB91A
:103C600042F8240028E023465C68002CFBD1E3B135
:103C7000DC68C56824682E68A642B8BF1B68F6DBFE
:103C8000B44204BF848A012C06D11C6824B12346A7
:103C9000DC682468B442F8DA5C68002C1DBF206040
:103CA0005968416042F8210001E0012070BD586070
:103CB000984208BF00230360002070BD38B51C4641
:103CC000FFF78CFF050009D0FFF7C0FFE868006828
:103CD00020B90548006800EB84008565284632BDA0
:103CE00000000000D8000020D400002002490A682B
:103CF0000260086070470000CCB4012081423ABFE6
:103D000053189842FFF7A6BC8018990707D0521E97
:103D100024BF13F8011D00F8011DF6D87047810774
:103D20001CD1103A07D330B433E93210103A20E9ED
:103D30003210F9D230BC1032121F24BF53F8041DC8
:103D400040F8041DF8D838BF121D521E24BF13F8C6
:103D5000011D00F8011DF8D8704700BF083A07D3CD
:103D600033E90210083A40F804CD40F8041DF7D2B8
:103D70000832EAE7002201F095BD10B502E000F834
:103D8000011B521E002A18BF10F00303F7D193083D
:103D90001AD04FF0013402F003024C4308E040F81F
:103DA000044B40F8044B40F8044B40F8044B1B1FF5
:103DB000042BF4DA002B1CBF40F8044B5B1EF9D136
:103DC00002E000F8011B521E002AFAD110BD0000CB
:103DD00038B5002502280C4607DAFFF7EDFE20B1C2
:103DE000C268926A214690470546284632BD70B5A2
:103DF00004460025012621463046FFF7E9FF8542AB
:103E0000B8BF0546761EF6D5284670BD0121DFE70E
:103E10000221DDE70321DBE70421D9E70821D7E709
:103E20000921D5E70C21D3E70D21D1E70E21CFE7FA
:103E300025480068407CE9E723480068407CE7E7C4
:103E400021480068407CE9E71F480068407CE7E7BC
:103E50001E4951F82000C268926A082110470246A4
:103E60001A4B03EB820053F82220D268526A1047A3
:103E700080B5FFF7A1FE28B1C268D26ABDE808404C
:103E80000221104702BD10480068407CF0E70F494E
:103E900051F820000069406870470C4951F8200033
:103EA0000069006870470120A1E702209FE7032016
:103EB0009DE7074A106051607047054800687047E9
:103EC0000348406870470000D4000020D80000205C
:103ED00028B60120B0B34108490001D10120704744
:103EE0008108890001D102207047C108C90001D1B1
:103EF000032070470109090101D1042070474109DD
:103F0000490101D105207047010A090201D10820A9
:103F10007047410A490208D0010B090305D0C10BC3
:103F2000C90302D0010C090401D110207047810C93
:103F3000890401D11220704710F07F4F01D1182061
:103F400070472020704710B5FFF7C4FF00240128F8
:103F500008BF01240ED0811E072938BF082409D3C9
:103F6000A0F10901082938BF102403D31138102803
:103F700038BF2024204610BDB0F90030C91AB0F96E
:103F80000230D21A036903FB020000EBE100802338
:103F900010F8142F01F00701CB4043EA0201017031
:103FA000704770B5B0F90040091BB0F90440A14258
:103FB0002DDAB0F90240121B0469CD1004FB020097
:103FC000281800F114045818401EC5EBE00500F055
:103FD0000700C0F10700FF2201F0070102FA00F616
:103FE000207822FA01F3F6B21DB906EA030108436C
:103FF0000CE06D1E1843012D04F8010B04DB29466B
:10400000204601F04BFC2C1920783043207070BD05
:10401000B0F90610026951431430FFF7ABBE70B51A
:10402000B0F906500B68B0F90440AA421ADA0669E2
:10403000DD1006FB020028181430A34212DA621EBB
:10404000C5EBE20210F8014B03F00705AC4005E0B8
:1040500010F8014B0833521E23F00703E4B22CB9C9
:10406000002AF5D1002070BD64005B1C2506FBD53D
:10407000E4B2FF2C06D01D46660644BF64006D1CEA
:10408000FAD400E0DD1D05F00704072C04D0E81A7F
:104090000B60401C70BD0835521EF8D410F8014B5F
:1040A000FF2CF8D0200644BF64006D1CFAD4EEE764
:1040B000FEF7BBBC2DE9F8430446164606F10F0097
:1040C00000119846470007FB08F00D461430FEF734
:1040D0002DFF5FEA000917D0FEF756FC0090048020
:1040E00000984580009886800098A0F80680009986
:1040F0000FF21800886001200099888100980761FC
:104100006846FEF74CFC4846BDE8F283793F00085C
:10411000A33F00081140000800000000B140000863
:104120001F40000880B501F0EDFB00F02DF8BDE860
:104130000140FEF78BB8000038B50446FEF724FCBA
:1041400000908089451E009885816846FEF727FC0F
:104150002DB215B92046FEF768FC31BD2DE9F041BE
:10416000069F04460D4616469846D4F808C0DCF86B
:1041700004C04346324629462046E047761C7F1E4F
:10418000F3D1BDE8F081000010B5074C2068006B4A
:10419000FFF72AFAFFF73AFA2068406BFFF724FA94
:1041A000BDE81040FFF73BBAD4000020FEF7A8BFDF
:1041B0002DE9F84F00F01EF839F8020BA847B04778
:1041C000641E4AF8040BF7D1202F00D21BE0BDE893
:1041D000F18F2DE9F84F00F00DF819F8010BA84701
:1041E000B047641E4AF8040BF7D1202F00D20AE032
:1041F000BDE8F18F8A4693460A9D0B9E81461F4675
:10420000D0465C4670473A4659464046BDE8F84FAE
:1042100001F09ABB2DE9F44F88460FF28C5196B00D
:1042200081460CC913A8DFF8E8740CC000F096FAB8
:104230000A904569D0F80CA00669B0F908000B9007
:104240000A98B0F90A0010900A980068006940685E
:104250000D903868407CFFF7FBFD0C903868407C7F
:10426000FFF715FE00900AA8FEF799FB092E05D26C
:10427000012E4FF0010B07D113AC06E0112E2CBF1D
:104280004FF0040B4FF0020B00240D980099884268
:1042900000F093803868407CFFF7FFFD0F900B988B
:1042A0008000FEF764FB00280E9000F0E680484690
:1042B00001F06AFC002D814679D02846FEF764FBA8
:1042C0000890002702E0DDF848907F1C1098874294
:1042D00069DA002000F003F905460AEB09001290A4
:1042E0001698381811900B98854225D10E98FEF734
:1042F0004BFB0990092E0F980C9B099901902A46B7
:104300000D980090484602D3FFF752FF01E0FFF7F7
:1043100060FF0594012309980B9A119904900020DD
:1043200003900C98029001200190009000F0D2F8C8
:1043300009A8FEF734FBC6E7012E1FD1002DC2D01D
:1043400000F09EF811994044FEF75EFF00F0C5F8BA
:104350000546F3E7FFF73DFF0594012309981199FE
:1043600004902A46002003900C98029000F09FF8D9
:1043700009A8FEF714FB00F0B0F80546002DA2D006
:104380000E98FEF701FB0F990C9B01910990092EE5
:104390000D99079800910BFB009009992A46D9D3F3
:1043A000FFF706FFD8E708A8FEF7F9FA01E000F0EA
:1043B00085F80E98FEF739FB5FE0484601F0E4FB14
:1043C000002D814657D02846FEF7DEFA08900027D8
:1043D00013E00594CDF80CA00296012307980C99E0
:1043E0000BFB009004902A4600F061F800F075F88D
:1043F0000546002DEDD1D1447F1C1098874236DA56
:10440000002000F06CF80546169838180C900B98B0
:1044100085421ED1009700E07F1C089883685B6985
:104420007A1C07A99847A842F6D000980594381A34
:10443000451C0120019000900B9A0C99CDF810902A
:10444000CDF80CA002962B4600F044F80AFB059923
:10445000D2E7012ECDD1002DCDD000F011F80C996E
:104460004044FEF7D1FE00F038F80546F3E708A80F
:10447000FEF795FA01E000F021F817B0BDE8F08FE3
:10448000079800F0070006900594CDF80CA002965E
:10449000012307980799801001EB507009EBE000A9
:1044A00004900120019000902A460798704701204F
:1044B0000190009007984044FEF734BF0120059416
:1044C00001900090109B0B9A1699CDF81090CDF8A2
:1044D0000CA002964046FEF725BF079828180790C3
:1044E0003A46089883685B6907A918472DE9F24F97
:1044F0008EB0814692461D46FEF746FA0790B0F907
:104500000880B0F90AB0C0680C900798183009907C
:104510000798006800690A9007A8FEF740FA0A9811
:104520007C4940680B907A480068407C51F8201024
:104530000C692768FFF78CFC092838BF012603D3D4
:10454000112834BF022604260A98A04210D1002068
:1045500005905B460998049042460C98039002959A
:1045600001200190009051460E98FEF7DBFECBE053
:10457000202D18FB06F04ED1FEF7F9F9002809901E
:10458000F5D0FEF701FA00F0E8F800F0CDF82CD0F5
:10459000012E09EB880704D0022E04D0042E04D08B
:1045A0000BE0012302E0022300E004230699D4F883
:1045B00010C042464846E047B94600F0BBF8BBF1A0
:1045C000010BE5D197E0069D59F8040BB847641E2E
:1045D00025F8020BF8D118E0069D59F8040BB847EE
:1045E000641E45F8040BF8D10FE0012E444604D0B8
:1045F000022EE8D0042EEFD007E0069D59F8040BF8
:10460000B847641E05F8010BF8D100F093F8BBF130
:10461000010B70D0E9E7102D76D1FEF7A8F900283C
:10462000099071D0FEF7B0F900F097F800F07CF82F
:104630001EBF0A984069002836D00798B0F90800D4
:104640008000FEF794F90B9090B1FEF79DF90028D9
:10465000089050D009EB4800012E009004D0022EA3
:1046600008D0042E0AD013E000F056F8012308E029
:10467000089040E000F050F8022302E000F04CF80F
:1046800004230898276942462946B847DDF8009078
:1046900000F050F8BBF1010BDCD108A8FEF77FF960
:1046A0000B98FEF7C2F926E0012E444604D0022EF4
:1046B0000BD0042E12D019E0069D00F052F8B84736
:1046C000641E05F8010BF8D110E0069D00F049F8D2
:1046D000B847641E25F8020BF8D107E0069D00F0EC
:1046E00040F8B847641E45F8040BF8D100F022F8F2
:1046F000BBF1010BD8D107A8FEF751F906A8FEF7C8
:104700004EF90998FEF791F90FB0BDE8F08F00005F
:10471000D4000020D80000200A9F069D08997F69D8
:104720000223424648463847079000F1180920699D
:104730000028704700200590012306980490424607
:10474000002003905146F00002900AF1010A012076
:10475000019000900E98FEF7E5BD06904846FEF7E2
:1047600013B939F8020B0B990847F8B504000D4648
:10477000164618D0FEF708F9009047696846FEF71C
:104780000EF92046FEF769FA092800DB2FB1324600
:1047900029462046FFF73EFDF1BD03463246294635
:1047A0002046FFF7A3FEF1BD00000000010000005D
:1047B00038B5044601F0F6F9050008D0A54201D14C
:1047C000002504E0FEF7D8F8006AA042F4D128469C
:1047D00032BD00B9704780B5FEF7CEF8806902BDE2
:1047E00030B5040083B01BD0FEF7CEF801903C48F2
:1047F0004568A54205D10199496841600EE000F085
:104800003FF85DB100F00DF800904568A542F6D183
:10481000019800994068486000F032F800F02AF8EA
:1048200037BD2846FEF7B0B838B5044600202060F2
:104830002B48056835B1FFF7F4FF00900069206050
:1048400000F01EF8284632BD38B504460D4600205B
:1048500028606CB100F011F80090846834B100F069
:104860000FF800F00AF800900069286000F008F8DE
:10487000204632BD01A8FEF792B82046FEF784B864
:104880006846FEF78CB87CB5040026D0144D2E681F
:10489000A64209D13046FEF777F80090806828607C
:1048A000684612E0FFF7E6FF3046FEF76DF801902C
:1048B0008668A642F6D13046FEF766F80090019968
:1048C00080688860FFF7DCFF01A8FEF768F82046E3
:1048D000FFF786FF2046FEF7A8F873BD0000000032
:1048E000ECB5012010B582B00C4648B1FEF74CF88B
:1048F00000908089044018BF0124FFF7C1FF00E049
:104900000124204616BD000038B500F038F8012516
:10491000009050B100F036F8092168469047020037
:1049200003D00098214690470025284632BD70B537
:1049300082B000F02FF80126009050B100F022F86C
:104940000A2168469047030003D000F01FF89847FB
:104950000026304676BD70B582B000F01BF8012607
:10496000009050B100F00EF80B216846904703000C
:1049700003D000F00BF898470026304676BD0C4671
:10498000FFF71AB9009AD268526A704700982A460F
:10499000214670470C461546FFF70EB970B582B038
:1049A000FFF7F8FF0126009050B1FFF7EBFF102151
:1049B00068469047030003D0FFF7E8FF98470026BA
:1049C000304676BD70B582B0FFF7E4FF0126009057
:1049D00050B1FFF7D7FF042168469047030003D08A
:1049E000FFF7D4FF98470026304676BD70B582B0F9
:1049F000FFF7D0FF0126009050B1FFF7C3FF16214B
:104A000068469047030003D0FFF7C0FF9847002691
:104A1000304676BD10B53A4C6068FDF74DFF00207A
:104A2000606010BD10B5364C606868B920688000C1
:104A3000FDF74AFF606008B9012010BD3148A06051
:104A400004F10800FFF779F8002010BDF8B5002840
:104A50001CBF8468002C06D0294D696819B106680E
:104A6000B6F5807F01DD0020F2BD2868B042B8BFF6
:104A70000646002707E054F82700FEF7B5FD6968F1
:104A800041F827007F1CB742F5DB6868F2BDDDE71F
:104A9000DCE72DE9F84F01F08DF880460024DFF8BF
:104AA0006890DFF868B01A4F0DE0F0B2FEF7A5FD90
:104AB0000246F1B22046FFF771FF761C5645F4DB43
:104AC00038684574641C444517DA2046FFF774F8CB
:104AD0000028F7D03868457C44742046FFF79EF9DB
:104AE0000928EDDA5BF8240000694845E8D0204643
:104AF000FFF796F982460026E0E7BDE8F18F000057
:104B0000EC000020154A0008C0DF0008D800002093
:104B1000D400002002490A68117E107608467047CA
:104B2000D400002003490A68B2F92C109085084689
:104B3000704700BFD400002003490A68B2F92A1068
:104B400050850846704700BFD400002003490A681A
:104B5000D16900B1D0610846704700BFD400002081
:104B600002490A68917E907608467047D40000207A
:104B70007FB505460C460FF220000FC86E4686E84A
:104B80000F002846FDF7F8FE0169080003D00195E3
:104B90000094684688477FBD0000000000000000C8
:104BA0000000000000000000044AB2F9002002608A
:104BB0000348B0F9000008607047000096B6012075
:104BC00098B60120F0E7000010B582B0002410B9BB
:104BD00006480068006E38B1FDF7D6FE0090B0F9C7
:104BE0000A406846FDF7DBFE204616BDD4000020D3
:104BF00010B582B00C4610B908480068006E58B174
:104C0000FDF7C2FE0090B0F90A008442BCBF0098D4
:104C100044816846FDF7C3FE13BD00BFD4000020E9
:104C200030B583B0002801BF16480068006E002828
:104C30000C46154625D0FDF7A7FE0090C5800098CC
:104C40008480FEF781FC00984069B8B1FDF79CFEB6
:104C5000019000980199B0F9080088800028009917
:104C6000019AB1F90A10D18018BF002903D0019828
:104C700004800198458001A8FDF791FE6846FDF784
:104C80008EFE37BDD40000201CB5002801BF0C48A3
:104C90000068006E002811D0FDF776FE019044698F
:104CA00001A8FDF77CFE4CB12046FDF76DFE00909B
:104CB0008168896888476846FDF771FE13BD00BFAB
:104CC000D400002010B50B4C0B4B86B0246853F871
:104CD00024300246002053B10E2001910290009230
:104CE000CDF814D002A91846FEF700F9012006B04D
:104CF00010BD00BFC4B40120BCB401200449096840
:104D00008884002070470249096848840020704761
:104D1000D400002038B50C46FFF7F5FF05462046C5
:104D2000FFF7ECFF284332BD4FF4A0310148FDF7F7
:104D300076BE00BFB811002010B502E010B507E044
:104D400010B582B00024009400F011F913BD10B525
:104D500082B00024009400F0F7F813BD10B582B0C3
:104D60000224F0E710B582B00224F3E710B582B058
:104D70000324E8E710B582B00324EBE710B582B056
:104D80000424E0E710B582B00424E3E70020704774
:104D900030B550F8043B1C0404F47F0403F47F4551
:104DA0002C43C3F3074503F07F432C4383F07F4339
:104DB0002343521E41F8043BEBD130BD50F8043B75
:104DC00083F07F43521E41F8043BF7D1704701F056
:104DD0007F43B3F17F4F83B027D080F07F400290B4
:104DE00081F07F400190DFF87819DFF878090160E1
:104DF00002A9C16001A94161C0F83CD0110641F48B
:104E00008031C161C2F1FF010906416200214163A5
:104E10004FF001114164016841F001010160016836
:104E2000C907FCD4009880F07F4003B0704730B5CC
:104E300000F002FA002020612064E261636340E038
:104E400038B50C460546E1880829104609D12521C8
:104E5000FFF705F800281CBFE068002801D00079A2
:104E600020B12846BDE83240FFF711BEDFF8F84810
:104E70002A68A8682146FFF78BFF2868DFF8EC183E
:104E8000401E000200F47F400C6140F00100086009
:104E9000086840F020000860204632BD30B5DFF8D9
:104EA000C448DFF8BC582560E06061611806E26321
:104EB00040F48030E061C3F1FF0000066062002032
:104EC00060630398000440F001006064206840F0D3
:104ED000010020602068C007FCD430BD2DE9F843F4
:104EE0008846DFF884684FF4F05191461D467718E4
:104EF0002A463946FFF762FF4FF4705034182A46AD
:104F000021464046FFF75AFFDFF85808DFF85018EF
:104F10000160C7604461C663002101618161016471
:104F2000C16141624163290441F0010141640168AA
:104F300041F0010101600168C907FCD42A464946D5
:104F40003046BDE8F84339E770B582B00C461546E7
:104F5000DFF81468069A009500233146FFF767FFD3
:104F60002A462146304602B0BDE8704010E770B5D1
:104F70000C46DFF8F46782B015463146FFF708FFAC
:104F8000069B0095002221463046FFF750FF73BD77
:104F90002DE9F84F82B080460E9DDFF8CC47894658
:104FA000924600272AE04FF4F05026182A46314650
:104FB0004046FFF703FF4FF4705004EB000B2A4606
:104FC00059464846FFF7FAFE009522469DF84030C4
:104FD00059463046FFF762FF2A4651462046FFF702
:104FE000EDFE0298401908EB80080C98401909EB77
:104FF00080090D9840190AEB800A7F1C0F988742A0
:10500000D1D3BDE8F78FF8B507460C461546FEF735
:10501000FDFE06463846FEF7FBFEDFF8541751F852
:1050200027104A6802F470424A60331904F12B02D7
:105030002A3342EA03424A6040198A6802F4704205
:105040008A600B3005F10C0242EA004088600220C1
:10505000BDE8F24000F011BE70B50D4616461C4684
:10506000FFF794FEDFF8FC164FF400720A60CD6083
:10507000CE63059A0A61069A0A64C86104A800888A
:1050800040EA044013E070B50C4615461E46FFF793
:105090007DFEDFF8D016DFF8DC260A60B6B2059A8E
:1050A0008A63CC63049A0A64486346EA054048640C
:1050B000086840F0010008600868C007FCD470BDB3
:1050C00000B17047F0B5DFF8A846206A00289FB00D
:1050D0004FD10120206200F092F801214FF0806052
:1050E00000F06BFE00F08BF800F0A8FA00201090A2
:1050F0001190129013901C901D901E900322072176
:10510000C02000F035FE4FF4003000F03FFE0120DB
:1051100000F036FE3D2000F059FE0028FAD00020B5
:10512000FEF774FE05460020FEF772FE282114915A
:10513000092115912A2116910B21179105F12A01B8
:10514000189100F10B0119910D3005F12C011B9004
:105150001A9110A800F03CFD0121012000F0F0FDA3
:10516000DFF81416002008704FF08070DFF80C167E
:1051700008600020FEF74AFE07460020FEF748FEC2
:1051800005460020FEF74AFE7843C01DC6082B20C6
:10519000009007F12A0001900C20029005F10B000D
:1051A00003900020FFF7F2FD04900E96FF2005907B
:1051B0000F950020069007900890099069464FF4DB
:1051C00080600A9005200B90F01C0D90A068DFF81D
:1051D000B0450C90204600F051FD0020FEF71EFE69
:1051E000092803D20121204600F09BFD0121204621
:1051F00000F08EFD022000F040FD1FB0F0BD012147
:105200004FF4000000F0C7BDDFF8641501EB80002B
:1052100041698269C06951434843704730B500F025
:105220000BF8226123640520E0610398606305990F
:10523000049841EA004048E6DFF828454FF48135FC
:105240002560E060E1637047FEB504460D461646F2
:10525000FFF7DAFFDFF8181501EB84070022B968C1
:1052600002920192BA69009206FB00127B6905FB6B
:1052700000112046FFF7F0FE3E61F7BDFEB500F0DD
:1052800086F8DFF8EC1401EB840291681369D2F818
:1052900014C003FB0010D169099B002202920CFB91
:1052A0000655ACEB030201920A9A0092089A0CFB95
:1052B000027201FB020201FB050164E02DE9FC41E1
:1052C000089F80460D4616461C4600F09DFD0128AD
:1052D00013D1002219214046FFF788FB3B462246A6
:1052E00031462846FDF766FF404602B0BDE8F04172
:1052F000DFF890241921FFF779BB601B441C40465E
:10530000FFF782FFDFF86814099A01EB8801D1F8F2
:1053100014C001920CFB0655ACEB04020092BA1BC0
:10532000531C22468F680C69C96904FB007001FB9D
:1053300005014046FFF7A7FEBDE8F381FEB500F08A
:1053400026F8DDF828C0DFF82814089B0CEBDC7C7D
:10535000C3EB6C0C01EB84014A69CDF804C0A2EBED
:10536000030EDDF824C0CDF800C0CDF808E002FB44
:105370000652D1F808C0D1F810E0C9690EFB00C090
:1053800001FB020239462046FFF766FEF7BD0446E0
:105390000D4616461F4637E72DE9F04184B080469A
:1053A0000C4615461E46FFF72FFF07464046FFF7FF
:1053B000EDFCDFF8BC130B9B0A9A01EB8801D1F8D6
:1053C00014C0009002930192ACEB02030C98D1F848
:1053D00010E0821A8868C9690EFB07000CFB0544BF
:1053E00001FB04013046FFF719FFBDE8FF81DFF83C
:1053F000981302200860704710B5DFF89013DFF8AB
:10540000704301200860E068002815D4E0686269F4
:10541000A369A1685A435043E26902FB0011D848CE
:1054200000F08CFC012000F028FCE168002000F076
:10543000F6FC4FF0FF30E06010BD0000F0B506460E
:105440000024491ECA480D2983B0174600EB860583
:1054500000F27880DFE801F007760B182A2C3B3841
:10546000304A765566153046FFF72AFE6CE07968BB
:105470006A69A8685143EA6902FB010029688862E9
:105480005CE03868E8605FE0296838793A680B6C5E
:105490000C64130403F47F0302F47F452B43C2F32F
:1054A00007421A4342EA0060086428E0012000E055
:1054B000002000F0D8FB47E0396801B101212868DD
:1054C000C9B200F025FC1AE07A6839680AE06A4639
:1054D00001A93046FDF7C6FD386868617868A861A3
:1054E000009A01993046FFF78EFD2DE02968386853
:1054F0004A69120A12024A61C0F1FF0048610120A4
:105500001DE0386800B1012029680028086812BF32
:1055100040F002006FF002021040086002209C4937
:10552000086011E03868C0F3074100F47F420004CE
:10553000114300F47F0008432968C860022000F08E
:105540009CFB01E04FF0FF342046FEBD10B5002368
:10555000002290499048FEF7B1FB0020FEF766FC60
:1055600058B14FF4F0724FF488710020FFF7F3F94F
:105570004FF4F0724FF4087109E04FF488724FF461
:10558000F071FFF7E8F94FF408724FF4F071002062
:10559000FFF7CDF9764C4FF04040A0604FF040410E
:1055A0004FF0FF30E0600020FFF7AEF90020FEF77B
:1055B00035FCC010E0612121784A00F03CF8784ABF
:1055C000232100F038F80020FFF7E0FB052807D280
:1055D0006C4A192100F02FF8724A252100F02BF8AF
:1055E0000020FFF7D3FB022803D16F4A242100F0EB
:1055F00022F86E496E4800F027FC6E496E4800F0B4
:105600002BFC6E496E4800F02DFC6E496E4800F090
:105610002FFC6E496E4800F073FC6E4800F00FFEE0
:105620006D48FEF7D9F96D4800F00CFEBDE810405A
:105630006B4800F00ABE0020FFF7D8B91CB5012165
:1056400040F2057000F0A7FB664C00F0E1F80E2276
:105650000D2100F0DFF80E220E2100F0DBF80E2203
:105660000F2100F0D7F84FF4704000F0D6F85E4CF0
:105670000E22002100F0CEF80E22012100F0CAF81F
:105680000E22022100F0C6F80E22032100F0C2F81B
:105690000E22042100F0BEF80E22052100F0BAF817
:1056A0000E22062100F0B6F80E22072100F0B2F813
:1056B0000E22082100F0AEF80E22092100F0AAF80F
:1056C0000E220A2100F0A6F80E220B2100F0A2F80B
:1056D00000F09EF80E220D2100F09CF80E220E2103
:1056E00000F098F80E220F2100F094F84FF6FF70AA
:1056F00000906946204600F0C1FD3C4C0E2200217E
:1057000000F088F80E22012100F084F80E22022118
:1057100000F080F80E22032100F07CF80E22042114
:1057200000F078F80E22052100F074F80E22062110
:1057300000F070F80E22072100F06CF8FF2000F056
:105740006CF8402000F058F8294800F097FD4FF41D
:10575000807000F051F8274800F090FD13BD000064
:105760000002020000B00240B85101201CB002400B
:10577000140000200002030058E400E008E100E00B
:1057800084680140BD52000808B002403C680140F6
:1057900024680140A8DF000850DE000849520008D4
:1057A0007D520008995300083D530008754D0008CC
:1057B0006D4D0008654D00085D4D0008854D0008E1
:1057C0007D4D00084F4D0008414D00083D4D00083B
:1057D000394D0008DD4E0008414E0008CF4D00084D
:1057E000914F00080020024000240240002802409F
:1057F00000080240000002400090694602208DF837
:10580000050001208DF804000020ADF80600704767
:105810000E220C21204600F069BD0090694602204E
:105820008DF805008DF804000020ADF80600204634
:1058300000F024BD05480068704704490A688018D4
:105840000A68821A012AFBDA7047000058B6012064
:1058500070477047034904480968497C50F82100A3
:10586000704700BFD4000020ACB40120074A084BA9
:105870001080084A11801B68074A5B7C52F823306D
:105880000A4601461846DB681B6A184796B601208F
:10589000D400002098B60120D800002062F30F2227
:1058A00062F31F42401810F0030308D0C91A1FD337
:1058B000DB0748BF00F8012D28BF20F8022D130098
:1058C00030B414461546103928BF20E93C00FAD8F8
:1058D000490728BF20E90C0048BF40F8042D890083
:1058E00028BF20F8022D48BF00F8012D30BC7047BA
:1058F000C91818BF00F8012DCB0728BF00F8012DEB
:105900007047000010B50E4C0E482168497C50F8D5
:10591000210058B1C16811B10968042903D0006899
:105920000028F7D102E008B1FEF77BF920680021DA
:10593000016600F108014161BDE81040FDF704BEB9
:10594000D4000020D800002010B5092A0EDA012A60
:10595000034617D0022A43D0042A5CD050F8042B07
:1059600003F8012B491EF9D1012010BD112A01DBDA
:10597000002010BD024650F8043B22F8023B491EAD
:10598000F9D1F1E750F8042BD207120E491E22D0AC
:1059900000F058F842EA84121DD000F053F842EAB1
:1059A000441218D000F04EF842EA041213D000F06E
:1059B00049F842EAC4020ED000F044F842EA8402F8
:1059C00009D000F03FF842EA440204D010F8044B3A
:1059D00004F001042243002903F8012BD2D1C3E7CC
:1059E00050F8042B9207120E491E0FD000F024F835
:1059F00042EA04120AD000F01FF842EA840205D0FD
:105A000010F8044B04F003042243491E002903F854
:105A1000012BE5D1A8E750F8042B1207120E491EFE
:105A200005D010F8044B04F00F042243491E00294E
:105A300003F8012BEFD197E710F8044B04F00304AF
:105A4000491E704710F8044B04F00104491E7047CA
:105A50002DE9F041069E80460D4606B946461F6870
:105A6000092A3ADA012A06D0022A48D0042A60D04C
:105A7000082A6CD07BE000F07DF8C4016D1E27D0B1
:105A800000F078F86D1E44EA801421D000F072F81E
:105A90006D1E44EA40141BD000F06CF86D1E44EA01
:105AA000001415D000F066F86D1E44EAC0040FD053
:105AB00000F060F86D1E44EA800409D000F05AF846
:105AC0006D1E44EA400403D000F054F804436D1EF8
:105AD000002D06F8014BCED149E0112A06DAD3F8A1
:105AE00010C0BCF1000F03D0022336E000203FE0DD
:105AF00000F040F86D1E26F8020BF9D137E000F0F7
:105B000039F884016D1E0FD000F034F86D1E44EAA0
:105B1000001409D000F02EF86D1E44EA800403D072
:105B200000F028F804436D1E002D06F8014BE6D165
:105B30001DE000F01FF804016D1E03D000F01AF8FC
:105B400004436D1E002D06F8014BF2D10FE0D3F88F
:105B500010C0BCF1000F04D001232A463146E047B3
:105B600005E000F007F86D1E06F8010BF9D10120E1
:105B7000BDE8F08158F8040B384710B582B0002416
:105B80000094FFF765FF16BD00B9704710B582B0ED
:105B9000FCF7FAFE009000F118046846FCF7FFFEDF
:105BA000204616BD80B5FEF714FE10B1FCF7E4FEEA
:105BB000C06902BD38B5002400252846FDF7FCFF6A
:105BC00000B1641C6D1C022DF7DB204632BD0000C5
:105BD00030B5DFF88011DFF880210B6813400B60CF
:105BE0000B680469456945EA044423430B604B682C
:105BF00013404B604B688469C56945EA04442343FC
:105C00004B608B6813408B608B68046A456A45EA79
:105C1000044423438B60CB681A40CA60CA68836A15
:105C2000C46A44EA03431A43CA60DFF830310A69A0
:105C30001A400A610A69036844682343846823435D
:105C4000C46823431A430A61426B036B4C6A04F035
:105C50007F444C621B044C6A806B43EA022210436F
:105C60002043486230BD3E490028086812BF40F01A
:105C7000010040084000086070475CE030B54A68A9
:105C8000436803F4704343600B6843EA0242426096
:105C9000CA68836803F4704383608B6843EA0242F6
:105CA00082600269D208D20002610A6902610B6A4D
:105CB000CA694C6A8569002585618D6945EA0222B9
:105CC00042EA034242EA04628261264B4269120AB6
:105CD000120242614A694261C2691A40C261CB6ADA
:105CE0008A6A1A43C261826A002282620A6B8262F5
:105CF0008A6BC36A03F0E023C3624B6B43EA024240
:105D0000C262026BD20AD2020263C96B016330BD68
:105D10000029016812BF41F00101490849000160F2
:105D200070470029016812BF41F010016FF01002A6
:105D30001140016001200C49086070478162704782
:105D40000A4A0029116814BF084321EA00001060C4
:105D5000704700000868014000F800F08F88FE0FCF
:105D600018680140F8F8FFFF2468014034680140DA
:105D7000090641EA80101E4940EA02700860704737
:105D80001C49086070471043086070471A490A6848
:105D900022F44032F7E7194A0029116814BF08437A
