:020000040800F2
:10000000F0450020417D08088179080883790808B7
:1000100085790808877908088979080800000000B0
:10002000000000000000000000000000AF220708F0
:100030008B79080800000000512207088D79080814
:10004000757D0808797D08087D7D0808817D080890
:10005000857D0808897D08088D7D0808917D080840
:10006000957D0808997D08089D7D0808A17D0808F0
:10007000A57D0808A97D0808AD7D0808B17D0808A0
:10008000B57D0808B97D0808BD7D0808C17D080850
:10009000C57D0808C97D0808CD7D0808D17D080800
:1000A000D57D0808D97D0808DD7D0808E17D0808B0
:1000B000E57D0808E97D0808ED7D0808F17D080860
:1000C000F57D0808F97D0808FD7D0808017E08080F
:1000D000057E0808097E08080D7E0808117E0808BC
:1000E000157E0808197E08081D7E0808217E08086C
:1000F000257E0808297E08082D7E0808317E08081C
:10010000357E0808397E08083D7E0808417E0808CB
:10011000457E0808497E08084D7E0808517E08087B
:10012000557E0808597E08085D7E0808617E08082B
:10013000657E0808697E08086D7E0808717E0808DB
:10014000757E0808797E08087D7E0808817E08088B
:10015000857E0808897E08088D7E0808917E08083B
:10016000957E0808997E08089D7E0808A17E0808EB
:10017000A57E0808A97E0808AD7E0808B17E08089B
:10018000B57E0808B97E0808BD7E0808C17E08084B
:10019000C57E0808C97E0808CD7E0808D17E0808FB
:1001A0009B790808D57E08089F790808D97E080839
:1001B000DD7E0808000000005600FF10FF20EF1051
:1001C000CE00AC0089000100CD10CE10010000006F
:1001D0003607309F3F909F4F909F3F90240520000F
:1001E00000030210005E0D60008C0F4007DEAFA11F
:1001F00009FDDFB200E67D003BFCDE9019F8DC5023
:1002000005F0D70007C0F4000010100000177100BF
:1002100008FFFF914F8779F77F3660623FEC9200CD
:1002200005CFFFB100069BF79E0660F97F9778F631
:1002300009FFFF8000177000000220000230000458
:1002400030006FDC001E3000D82F50790000F70F0F
:1002500061E20000BB7F2890000019B52E16BA207D
:100260000000983F6BB00002E16F07F0000A704F8A
:1002700028D0003E000BEF600024000021000000A9
:10028000000574000000CFEF800003F80BF00002BF
:10029000FB2DD00000AFFE400008FFFB07503FD20F
:1002A000BFBF906F701DFE203FD67EFF5008FFFB42
:1002B0004E9000121001000045BDBDBD330000008E
:1002C000003700CB04F709F20DD01FB02FB01FB0DC
:1002D0000DD009F204F600CB0037000036006F2085
:1002E0002F900CE008F306F606F706F608F30CE08C
:1002F0002F906F30470000000033001279214FEE3D
:10030000F502FE300A98A001001000000003200052
:10031000000DA000000DB000377ED772AFFFFFF7D1
:10032000022DC220000DB000000B80000DD00EF396
:1003300001D10B501777307FFFB00465200000001B
:100340000DD00DD000000000000450000D90004FB3
:100350003000AD0001F70006F2000CB0003F500085
:100360008E0000D9000020000000000000033000D3
:1003700003DFFD300DF77FD04FA00BF47F7007F641
:100380007F6007F76F7007F64FA00BF30DF78FC074
:1003900002DFFC20000220000000300007F3048F81
:1003A000F41FFFF4012CF4000BF4000BF4000BF429
:1003B000000BF4000AF200001000000000133000EF
:1003C00006EFFE504FD67FF17F500BF425001EF153
:1003D0000005EF7001BFC4001DF700007FD999929E
:1003E0006FFFFFF30013300008FFFD204FC68FB0F2
:1003F0003B200FC00007AF60001EFF7000003FF100
:100400007E200EF17FC6AFC009FFFB200012100056
:10041000000013000001CF30000AFF40007EBF4003
:1004200003F59F401E909F40AFA9DFB49DDDEFE72D
:1004300000009F4000008F300000020000222200D8
:100440000CFFFF901FC999403F5000006FCFFB1079
:100450005FA6BFB000000EF137000EF08FB6AFB050
:100460001BFFFA10001210000003410002CFFF80B2
:100470000CF53DF03F9001306F9BDB407FF98EE241
:100480007F9008F65F9008F60DE76EF203DFFE50EE
:100490000002200002222210CFFFFFF15999AFD0B5
:1004A0000000AE200005F600000DD000006F7000C7
:1004B00000CF200002FD000003F900000020000032
:1004C0000013310006FFFE602FD34DF13FA00AF26A
:1004D0000BE88FB009FDDF906FA00BF57F6008F788
:1004E0003FE66EF306EFFE600002200000133000CE
:1004F00006FFFD303FD55ED07F700AF47F800BF79A
:100500002EF9AFF703BDAAF504100AF20FD47FB09D
:1005100007FFFB100012100009901FF003300000CD
:1005200000000DD00DD0000009901FF00330000036
:1005300000000DD00EF301D10B500000000028F692
:10054000003AFFA23BFE82009FF5000006DFD710B5
:100550000005CFE400000394AFFFFFF7499999939A
:10056000000000008DDDDDD6599999939E71000041
:100570003BFF82000039FFA200008FF7028EFB5084
:100580007FFA300058200000005772000BFFFF5028
:100590005F904FC039103FD00003EF50002EE400B1
:1005A000004F500000010000005F6000005F70001D
:1005B00000010000000379730001BFB9BF900BE395
:1005C0001303E73F46FFCE6E8E1F94DC2F9C5F2007
:1005D000AA3D7E4F75E9B72F7BFDFF8006F73027D8
:1005E00080005DFFFC300000241000000005730057
:1005F00000001FFD0000007FFF300000CF7F900053
:1006000003FB1FE00009F70BF4000EF97BFA005F13
:10061000FFFFFF10BF7000CF60CF10006F701100A0
:100620000002000036666300FFFFFFC1FF545EF664
:10063000FF200AF6FF879FC1FFDDEFD3FF2008FBF5
:10064000FF2006FBFFA9AFF7CFFFFD800004896103
:100650000001BFFFFE5009FD428FE01FF30009A01B
:100660003FE00000004FD00000003FE00002200EFD
:10067000F6001EF007FFA8DFB0007EFFFA100000B2
:10068000331000003666520000FFFFFFB100FF7616
:100690007DFA00FF2003FF10FF2000EF40FF200045
:1006A000DF40FF2000FF30FF2007FE00FFCBCFF52B
:1006B00000CFFFFB4000000026666651EFFFFFF50C
:1006C000FF766650FF200000FFA99950FFFFFFA0B2
:1006D000FF200000FF200000FFCBBBB3BFFFFFF5F2
:1006E00026666640EFFFFFF0FF766640FF200000C1
:1006F000FF877710FFFFFF50FF322200FF2000002E
:10070000FF200000DF1000001100000000037973DB
:100710000001BFFFFF8009FD525EF21FF30004805D
:100720004FE00000004FD008FFF83FE0049BF90EB7
:10073000F60009F907FF96AFF9007EFFF7C9000040
:10074000331011005600005600FF2000FF20FF204C
:1007500000FF20FF2000FF20FFDDDDFF20FFFFFF67
:10076000FF20FF2000FF20FF2000FF20FF2000FFD0
:1007700020DE1000DE101100001100005600FF20E6
:10078000FF20FF20FF20FF20FF20FF20FF20DE10A2
:10079000110000000000271000009F7000009F70F3
:1007A00000009F7000009F7000009F704A009F70C3
:1007B000BF30AF709FB7FF301CFFF8000033100050
:1007C00056000271FF202EF4FF21DF80FF3CF9006C
:1007D000FFDFE100FFFFF800FF84FF30FF209FD024
:1007E000FF201DF8DE1005FA110000205600000061
:1007F000FF200000FF200000FF200000FF2000007D
:10080000FF200000FF200000FF200000FFCBBB7096
:10081000CFFFFF906740000772FFE0005FF9FFF431
:1008200000AFF9FEF800EDF9FDBD04F8F9FD7F39E0
:10083000E4F9FD2F7DA4F9FD0CEF54F9FD07FF1439
:10084000F9EB02FA03F811001000200057100057CE
:1008500000FFA000DF20FFF400DF20FFFD00DF200D
:10086000FF7F70DF20FF0DF2DF20FF03FBDF20FFA3
:10087000009FFF20FF001DFF20EE0005FE1011006D
:1008800000110000000489720001CFFFFF800BFC03
:10089000426EF53FF10007FB6FB00002FF6FB00042
:1008A00002FF5FD00004FD1FF4000AF907FF97CF95
:1008B000E2007EFFFB20000033100000366663007C
:1008C000FFFFFFC1FF545DF8FF2006FBFF322BF94D
:1008D000FFFFFFE2FFA98710FF200000FF200000BC
:1008E000DE10000011000000000489720001CFFF3B
:1008F000FF800BFC426EF53FF10007FB6FB000027A
:10090000FF6FB00002FF5FD00334FE1FF409FCF953
:1009100007FF98FFE2007EFFFDF60000331076002F
:1009200036666510FFFFFFF5FF544AFDFF2002FF0A
:10093000FF5449FAFFFFFFD1FF766DF8FF2006FA5A
:10094000FF2005FCDE1002FD110000110048971089
:10095000000AFFFFF6004FD326FE006FC0004400E0
:100960002FFEB8300003BFFFFA00000048FF304FF1
:100970005000CF503FF869FE1006EFFFD400000290
:10098000420000002666666510CFFFFFFF70377DCE
:10099000FA7610000BF60000000BF60000000BF6D4
:1009A0000000000BF60000000BF60000000BF60044
:1009B000000009F40000000020000000560000566E
:1009C00000FF2000FF20FF2000FF20FF2000FF206D
:1009D000FF2000FF20FF2000FF20FF2000FF20EF6E
:1009E0004002FF108FE88DFA0009FFFFA1000013FD
:1009F000310000005700003710DF5000CF409F90BB
:100A000002FE103FE007FA000DF30BF40008F81F98
:100A1000D00002FC6F800000CFCF3000007FFC00D0
:100A200000002EF6000000012000000046000670C5
:100A30000064DF202FF301FDAF606FF705FA6F90C0
:100A40009EEA08F72FC0DBAE0BF30EF2F77F2EE025
:100A500009F7F43F7FA006FEF00EEF6002FFB00B37
:100A6000FF2000CF7006FD000012000021000000F2
:100A7000271002718FA00BF62FF36FD107FCEF3018
:100A800000CFF800008FF50004FFFD101DF6BF90A9
:100A90009FC02FF4BF3008F71100002047000074FA
:100AA000DF6006FC6FD00DF50CF77FB003FEEF3072
:100AB000009FF800002FF100002FF000002FF00041
:100AC000001EE0000001100004666665103FFFFF95
:100AD000FF6005777DFE2000005FF3000003FF60EC
:100AE00000002EF8000001DFA000000BFC10000049
:100AF0007FFCBBBB407FFFFFFF5000003662DFF78B
:100B0000DD00DD00DD00DD00DD00DD00DD00DD00FD
:100B1000DD00DFF736620000730000CB00006F20BD
:100B2000001F70000AD00004F30000D900008E00FE
:100B3000002F60000BA00001100000004651EFF6EE
:100B400004F704F704F704F704F704F704F704F7CD
:100B500004F7EFF64651000000000000001DB00051
:100B6000007FF50001F9CD0009F14F601F700AD038
:100B70000200001039999998C7008FA00360000007
:100B800003BEEC400EE88FE006202EF207CFFFF206
:100B90005FB31DF27FA26FF21CFFAAF300210020B9
:100BA000073000004F9000004F9000004FBBFC301A
:100BB0004FFA9FE14FB009F54F8006F74FA008F6B6
:100BC0004FF77EF23FAEFE500200200003BEE91058
:100BD0001EF9AFA07F8007509F4000008F60054046
:100BE0003FE67FA006EFFC2000022000000003701B
:100BF00000000BF300000BF404CFACF41EF9AFF4CB
:100C00006F900CF47F6009F47F700BF42FE77FF492
:100C100006FFEAF20012002002AEEB200DE77EE1B3
:100C20006F8228F67FFFFFF67F7000302EE76CF1B1
:100C300004DFFE700002200000693007FF9009F415
:100C4000009EFC704CF93009F40009F40009F4002E
:100C500009F40008F30000100000000003CFB7E122
:100C60001EF9AFF46F800CF47F6009F47F800CF400
:100C70001EFABFF403AB8AF308300CF10EFACF90E2
:100C8000029BB700073000004F9000004F9000001B
:100C90004FAAED504FFBAFF14FC00CF34F900BF448
:100CA0004F900BF44F900BF43F900AF202000010AB
:100CB00007402FB004201E802FB02FB02FB02FB0D0
:100CC0002FB01FA001100000007402FB004201E8D9
:100CD00002FB02FB02FB02FB02FB02FB02FB2CFA03
:100CE00019920000073000004F9000004F90000064
:100CF0004F905E304F94FE204FCEE3004FFFE20056
:100D00004FD8FC004F90BF803F902EB001000110E3
:100D100007402FB02FB02FB02FB02FB02FB02FB073
:100D20002FB01FA0010000002E69ED38EE704FEBD0
:100D3000BFEDAFF34FC00FF20AF44F900FF009F47C
:100D40004F900FF009F44F900FF009F43F900DE031
:100D500008F30200011000202E6AED504FFBAFF1A6
:100D60004FC00CF34F900BF44F900BF44F900BF4DB
:100D70003F900AF20200001002BEEA201DF88FD058
:100D80006F8009F57F6006F77F7008F62FE55EF249
:100D900005EFFE40000220002E7BFC304FFA9FE161
:100DA0004FB00AF54F8006F74FA008F64FF77EF2D6
:100DB0004FBDFF504F9021004F90000019400000A0
:100DC00003CFB7E11EF9AFF46F900CF47F6009F424
:100DD0007F700BF43FE67FF406FFDDF400120BF4A6
:100DE00000000BF3000005901E7BE12FEEC12FE108
:100DF000002FB0002FB0002FB0001FA00001100086
:100E000008DFC7006FB7CF207FB413002CFFFA10A4
:100E10001336CF707F729F601BFFFA000012100024
:100E200008C1000BF2009EFC604DF8300BF2000B85
:100E3000F2000BF2000BF72007FF70001200000019
:100E40002E7008E14F900BF44F900BF44F900BF481
:100E50004FA00CF42FF79FF408FFC8F20012001007
:100E6000BB004E30CF20AF407F70EE001FB4F900C2
:100E70000BF9F30005FFD00001EF70000012000035
:100E80009C00CD10BBBF23FF51FC7F66FE84F82F72
:100E9000A9CAC7F30CDC87FBE008FF43FF9003FE01
:100EA00010DF4000110012006E20AC6FB5FB0BFE8E
:100EB000E203FF800BFFE26FA7FBBE20CE01001113
:100EC000AC005E30BF40BF306F80ED001FC4F70044
:100ED0000AF9F20005FFC00000EF700000BF10002B
:100EE0004FFA0000198100002BBBBB702ABBFF909A
:100EF0000008FA00007FB10006FD10004FF977509E
:100F00007FFFFFB000462008FE500BF0000BF00002
:100F10000BF0001CF000EF70001CF0000BF0000B59
:100F2000F0000BF00008FC500056200018006F4045
:100F30006F406F406F406F406F406F406F405F3059
:100F400003000000463000BEF20008F40007F40081
:100F500007F40006F60000CF7006F70007F400075C
:100F6000F40007F400AEF200563000000ADA41A2A5
:100F70006FAEFFE2230067300101000D04000000A6
:100F8000B4010008030B010304000000B8010008CD
:100F90000505010307000000D0010008080B00034D
:100FA00008000000E0010008080C00030800000031
:100FB0000C0200080B0B01030D0000003C020008AE
:100FC000090B00030900000080020008020501036C
:100FD00004000000B8020008040D00030400000033
:100FE000C0020008040D000304000000DC02000839
:100FF0000606000306000000F802000808080005C5
:10100000080000000C0300080404000B04000000AA
:101010002C03000805030008050000003403000845
:101020000403000B0400000040030008050B00034C
:101030000500000048030008080B0003080000003A
:101040006C030008060BFF0305000000980300086E
:10105000080A000308000000BC030008080B000396
:1010600008000000E4030008080B0003080000006B
:1010700010040008080B0003080000003C040008EE
:10108000080B00030800000068040008080B0003B8
:101090000700000094040008080B0003080000008B
:1010A000C0040008080B000308000000EC0400085E
:1010B00004080006040000001805000804090006E2
:1010C00004000000280500080807000608000000CA
:1010D0003C05000808050007080000005805000846
:1010E00008070006080000006C050008070B000355
:1010F00007000000880500080A0B00030A00000032
:10110000B4050008090B000309000000EC05000805
:10111000080A01030900000024060008090B000367
:10112000090000004C060008090A01030A0000003B
:1011300084060008080A010309000000B806000838
:10114000080B010308000000E00600080A0B00037A
:101150000B0000000C070008090B01030A00000047
:1011600044070008030B0103040000007C0700088B
:10117000070B00030700000094070008080B010399
:1011800009000000C0070008070A0103080000006A
:10119000EC0700080A0B01030C000000140800080B
:1011A000090B01030A0000004C0800080A0B0003A9
:1011B0000B00000084080008080B01030900000070
:1011C000BC0800080A0B00030B000000E808000838
:1011D000080B01030A00000020090008090B0003A6
:1011E000090000004C090008090B00030900000079
:1011F00084090008090B01030A000000BC0900086B
:10120000090B000308000000F40900080C0B0003A0
:101210000C0000002C0A0008080B00030800000066
:10122000700A0008080B0003080000009C0A000870
:10123000090A000309000000C80A0008040D0103A0
:1012400005000000FC0A0008050B00030500000073
:10125000180B0008040D0003050000003C0B0008FB
:101260000707000308000000580B00080801FF0EE4
:1012700007000000740B00080303000304000000D3
:10128000780B00080808000608000000800B000822
:10129000080B000308000000A00B00080708000668
:1012A00007000000CC0B0008080B0003080000003A
:1012B000EC0B00080808000608000000180C0008E5
:1012C000050B000305000000380C0008080A0006A2
:1012D000080000005C0C0008080B00030800000078
:1012E000840C0008030B000304000000B00C00088D
:1012F000040DFF0304000000C80C0008070B0003E6
:1013000007000000E40C0008030B000304000000C9
:10131000100D00080C0800060C000000280D000845
:101320000808000608000000580D0008080800061C
:1013300008000000780D0008080A000608000000F8
:10134000980D0008080A000608000000C00D0008FB
:101350000608000605000000E80D00080708000662
:1013600007000000000E0008050A00040500000048
:10137000200E00080808000608000000400E0008C3
:101380000708000607000000600E00080A080006B3
:101390000A000000800E0008060800060600000093
:1013A000A80E0008070A000607000000C00E00088B
:1013B0000707000607000000E80E0008050D0003FF
:1013C00005000000040F0008030B000303000000E9
:1013D0002C0F0008050D000305000000440F000855
:1013E00008030008080000006C0F000820007E00C1
:1013F000780F00080000000031730808D96A080857
:10140000096B08080F6B08081D6B0808507D080859
:1014100010100101EC13000810080B000000000080
:1014200002106FE29FF49FF49FF47FF25FF03FD0D1
:101430001FB00D8000002BA09FF45FE101000000B1
:10144000011002000EF27F902FF49FB02FF49FB096
:101450002FF49FB01EF28FA0022003000002B408F8
:1014600090000006F70FD0000008F52FB000002B09
:10147000F45FA10007FFFFFFFE10039FE9DFB80044
:10148000001FB0AF3000026FB4DF40000FFFFFFF5E
:10149000F70006BF98FD720000AF33F9000000CFDF
:1014A00015F7000000DD07F4000000220030000006
:1014B00000000B1000000028BFC8300005FFFFFF30
:1014C000F9001EF92F39FF503FF00F209E303FF6F4
:1014D0000F2000000DFFDF73000002CFFFFFC300ED
:1014E00000048FEFFE1003000F25FF707FA00F2078
:1014F000BF807FF30F21EF601DFEAFBEFD1001AF77
:10150000FFFFA20000013F41000000000D1000009D
:10151000000000000003000003ABA200007F0000F9
:101520002EEAFE1001E800007F709F5008E10000E5
:101530009F607F702F7000007F608F609E100000A2
:101540003FD6EF22F700000007EFE60AE0179820E9
:101550000001003F60CFCFE1000000BD04FA09F6B2
:10156000000004F507F706F900000CC006F806F8BD
:1015700000005F4003FC3BF40000CB00008FFF90B5
:101580000000930000014200000001100000000074
:1015900004DFFD500000003FFDCFF40000009FD0AD
:1015A0000BFA0000009FD00BFA0000004FF98FF5F6
:1015B0000000000AFFFF800000009FFFFB005400B6
:1015C00009FFBAFF74FF001FFB00BFFEFC003FF7DE
:1015D000001DFFE3001FFB002CFFE3000AFFEDFFEF
:1015E000EEFD0001AFFFFB24FD00000143100010E1
:1015F0000000000001103FD06FF06FF06FF03FE08F
:1016000003100000000300009F4002FF2008FB00C1
:101610000EF7004FF3007FE000AFC000BFB000BF87
:10162000B000BFB0008FE0005FF2001FF5000AFAC3
:101630000004FE1000CF5000291000000300005FDE
:1016400090002FF2000BF80007FE0003FF3000FFB0
:101650007000CFA000BFB000BFB000CFB000EF80DF
:1016600002FF5005FF100AFA001EF4005FC00019C7
:1016700020000000000010000008E0000529F051E3
:101680002FFEFEF7027FFB4000AFCE2003F72F9026
:101690000030031000000200000000008F50000026
:1016A0000000BF7000000000BF7000000222CF8267
:1016B00022008FFFFFFFFF606FFFFFFFFE40000073
:1016C000BF7000000000BF7000000000BF7000008D
:1016D00000007F40000000003C90BFF56FF701E57F
:1016E0004CC06710014442002FFFFF703FFFFF8096
:1016F000024443003C90BFF36FD10100000003009F
:1017000000006F700000CF400003FD000008F800EB
:10171000000EF200005FB00000BF600001FE10008C
:1017200007F900000DF300003FD000009F7000009B
:10173000CF200000230000000005BBB6000000AF72
:10174000FFFFA00006FFA6AFF7000DFC000CFD0098
:101750002FF80008FF204FF60006FF404FF6000666
:10176000FF404FF60006FF402FF70006FF300EFA4D
:10177000000AFE0009FF404FF90002EFFEFFE20001
:10178000003CFFFC300000002420000000002B7013
:101790000000AFC00149FFD01EFFFFD01BDDFFD00E
:1017A0000000DFD00000DFD00000DFD00000DFD07D
:1017B0000000DFD00000DFD00000DFC00000BFA0CD
:1017C000000013000017BBB6000003EFFFFFD100BD
:1017D0000DFE86AFFB005FF6000DFF004FE1000B32
:1017E000FF000320003FFB00000007EFF3000003B1
:1017F000CFFD3000006FFE70000006FFA200000069
:101800002FFC444442006FFFFFFFFF103EFFFFFF2D
:10181000FD0000000028BBA50005FFFFFFA01FFE84
:1018200076CFF42FF4002FF70440002FF500005A74
:10183000EFB00000FFFF90000038CFF80100001E5D
:10184000FC3FC0000EFD5FF8007FF91DFFFEFFE2C8
:1018500002BFFFFB30000133100000000000009BBE
:101860004000000007FF900000004FFF90000002C2
:10187000EEEF9000000CF4DF9000009F80DF9000FE
:1018800006FB00DF90003FE200DF9000BFFFFFFF9C
:10189000FE508FFFFFFFFF60022222DFA200000048
:1018A00000DF9000000000BF800000000013000077
:1018B000018999997007FFFFFFF30AFDBBBB900CEC
:1018C000F50000000FF34651003FFDFFFE603FFEB4
:1018D000ABFFF30660004FFA0000000DFB1740005D
:1018E0000EFB5FF4008FF73FFFDEFFD104CFFFFA5E
:1018F000100002431000000000049BB93000008F6C
:10190000FFFFF40004FF934EFB000BFC000293006A
:101910001FF7023100003FF9DFFF91004FFFEBDFBF
:10192000FA004FFD100BFF203FF80006FF401FF8A4
:101930000006FF400BFE201CFF1003EFFDEFF70039
:10194000003CFFFE70000000243000004999999986
:1019500094BFFFFFFFFD5BBBBBBFF90000009FC052
:10196000000005FE2000001EF60000009FD00000D1
:1019700002FF70000008FF1000000EFB0000004F87
:10198000F70000007FF30000006FD000000003109C
:10199000000000000017BBB8100002EFFFFFE300DB
:1019A0000BFE626EFB000DFA000AFF000CFB000B41
:1019B000FC0004FFB8BFF40002BFFFFFB2000CFE42
:1019C000646EFD003FF70007FF304FF60006FF4052
:1019D0002FFC101BFF2009FFEDEFF900007EFFFE3A
:1019E00080000000243000000017BBB6000003EFA9
:1019F000FFFFB0000CFE748FF8003FF8000AFE00F5
:101A00004FF60007FF303FF7000AFF400DFF749FBD
:101A1000FF4003EFFFFDFF4000179956FF20003005
:101A20000009FD0009FA003FF80008FFDBFFD100C4
:101A3000019FFFFA200000013310000005309FF2E3
:101A40009FF217400000000000003C90BFF36FD1F0
:101A50000100000005309FF29FF2174000000000D7
:101A600000003C90BFF56FF701E54CC06710000027
:101A7000000000018B200000029FFF500003AFFF19
:101A8000C60005CFFFB400007FFF920000005FFF9B
:101A9000B5000000029FFFD7100000017EFFF81084
:101AA0000000007DFF500000000057100444444433
:101AB00043009FFFFFFFFF705DDDDDDDDC300000D8
:101AC000000000000000000000007FFFFFFFFF504B
:101AD0007FFFFFFFFF500222222221004B700000F7
:101AE00000008FFE8100000017EFFF92000000054C
:101AF000CFFFA300000003AFFF40000006DFFE3071
:101B00000028EFFE71001AFFFD6000009FFC5000EE
:101B100000002730000000000000220000007EFFCF
:101B2000FA2009FFEEFFE12FFA007FF72FE2003FD6
:101B3000F7022000AFF500001BFFA00000CFF70068
:101B40000005FF50000002EC000000000000000053
:101B500002BA10000008FF50000004FE2000000040
:101B6000110000000000003431000000029EFFFF61
:101B7000A200003EFB767AFE5002EF5000003EE2EB
:101B80000BF607EE96B5F82FD07FFFFFF0EC5F91D4
:101B9000EF408FC0BD7F74FA004F90CB6F85FB0084
:101BA0006F71F73FC2FF98EFACD10CF49FFFEFFBD2
:101BB0002003FE4573375700005EFB6669EE100098
:101BC000029FFFFFA200000001343100000000006E
:101BD00000000230000000009FFB00000001FFFF3A
:101BE00030000006FFFF8000000CFDCFE000003F4A
:101BF000F87FF400008FF32FFA0000EFD00DFF10F4
:101C000004FF8008FF600AFFCBBCFFB01FFFFFFF8F
:101C1000FFF27FF944449FF7CFF300003FFCAFC0D1
:101C200000000CFA03100000013000003DFFFFED42
:101C3000A3009FFFFFFFFF309FF8444CFFA09FF6DB
:101C40000004FFB09FF60006FF709FFB99BFFB10DA
:101C50009FFFFFFFFB209FF8444AFFD09FF6000044
:101C6000CFF29FF60000CFF39FF8445AFFE09FFFAA
:101C7000FFFFFF604EFFFFFEB400000000001343B3
:101C80000000002AFFFFE70003EFFFFFFFB01EFF89
:101C9000B325EFF67FFB00004FF7CFF300000361A1
:101CA000FFF000000000FFD000000000FFF0000087
:101CB0000000DFF3000005719FFA00004FF73FFFBF
:101CC0009325EFF506FFFFFFFFA0004CFFFFE700A5
:101CD00000002443000000003DFFFFEC71009FFF67
:101CE000FFFFFE309FF9667DFFD09FF60001CFF623
:101CF0009FF600005FFA9FF600002FFD9FF60000A0
:101D00002FFD9FF600002FFC9FF600006FFA9FF654
:101D10000001DFF59FF9667DFFC09FFFFFFFFD20FB
:101D20004EFFFFFC710000003DFFFFFFFE508FFFE4
:101D3000FFFFFF809FF9666665109FF600000000B8
:101D40009FF6000000009FFDBBBBB6009FFFFFFF9A
:101D5000FB009FFA777773009FF6000000009FF664
:101D6000000000009FF9666665108FFFFFFFFFA06F
:101D70003DFFFFFFFF7000003DFFFFFFFB108FFFE7
:101D8000FFFFFF109FF9666664009FF600000000E9
:101D90009FF6000000009FFB999970009FFFFFFFD6
:101DA000F3009FFDBBBB90009FF6000000009FF674
:101DB000000000009FF6000000009FF600000000F9
:101DC0005FF3000000000320000000000000034358
:101DD000100000002AFFFFFA200003EFFFFFFFE2E0
:101DE000001EFFB423AFFA008FFB00000BF800CFFA
:101DF000F30000002000FFF00000000000FFD00012
:101E00005DDDDD30FFE0008FFFFF60DFF200156970
:101E1000FF609FF900000BFF602FFF82029FFF60B1
:101E200006FFFFFFFEEF60004CFFFFD39F50000056
:101E300024430003000000000210000001206FE2B4
:101E400000002EF69FF500005FF99FF600006FF985
:101E50009FF600006FF99FF600006FF99FFFFFFFEC
:101E6000FFF99FFFFFFFFFF99FFA7777AFF99FF622
:101E700000006FF99FF600006FF99FF600006FF900
:101E80009FF500005FF96FE200002EF703200000CD
:101E90000230000002106FE29FF59FF69FF69FF65A
:101EA0009FF69FF69FF69FF69FF69FF69FF56FE2CF
:101EB000032000000000000200000000BFB000008E
:101EC00000FFF0000000FFF0000000FFF000000045
:101ED000FFF0000000FFF0000000FFF0010000FF35
:101EE000F05FC000FFF09FF100FFE09FF607FFB03A
:101EF0003FFFFFFF5005EFFFF70000034310000016
:101F00000210000011006FE20002EF509FF5001D6B
:101F1000FF609FF601DFF8009FF61BFF90009FF621
:101F2000AFFA00009FFEFFF400009FFFFFFD0000DE
:101F30009FFFADFF80009FFA03FFF3009FF6009F15
:101F4000FD009FF6001DFF709FF50004FFF16FE29A
:101F500000009FE1032000000310000002100000B9
:101F6000006FE20000009FF50000009FF6000000F7
:101F70009FF60000009FF60000009FF60000009F03
:101F8000F60000009FF60000009FF60000009FF69C
:101F90000000009FFA7777729FFFFFFFFB4EFFFF65
:101FA000FFF70000023100000013207FFE30000226
:101FB000EFF7BFFF800008FFF9BFFFD0000CFFF96B
:101FC000BFFFF2002FFFF9BFFBF7007FBFF9BFF79C
:101FD000FC00BF7FF9BFF2FF21FF2FF9BFF0CF65F3
:101FE000FC0FF9BFF08FBAF70FF9BFF03FFEF30F08
:101FF000F9BFF00DFFD00FF9BFF008FF800FF98F88
:10200000B003FF300BF70310002200013000000086
:102010000120000001206FF800001EF8AFFF300023
:102020002FFBBFFFC0002FFBBFFFF7002FFBBFFC44
:10203000FE202FFBBFF4EFB02FFBBFF27FF52FFB8D
:10204000BFF20CFD3FFBBFF203FFAFFBBFF2008FFF
:10205000FFFBBFF2000DFFFBBFF20004FFFA8FE1B0
:1020600000009FF603100000033000000000013460
:102070003000000003BFFFFE9100006FFFFFFFFE76
:102080002003FFF9324BFFD00BFF800000CFF60F8B
:10209000FF1000005FFA2FFC0000002FFD4FFB0037
:1020A00000002FFD2FFC0000002FFC0FFF10000090
:1020B0005FF90AFF700000CFF403FFF8223BFFC076
:1020C000007FFFFFFFFD200005DFFFFF9100000004
:1020D00002443100000000003DFFFFFDA3009FFF10
:1020E000FFFFFF409FF9666BFFC09FF60000EFF116
:1020F0009FF60000EFF19FF60018FFD09FFFFFFF53
:10210000FF609FFFFFFFE6009FF8444300009FF63B
:10211000000000009FF6000000009FF50000000096
:102120006FE2000000000320000000000000013406
:102130003000000003BFFFFE9100006FFFFFFFFEB5
:102140002003FFF9324BFFD00BFF800000CFF60FCA
:10215000FF1000005FFA2FFC0000002FFD4FFB0076
:1021600000002FFD2FFC0000002FFC0FFF1004B219
:102170005FF90AFF7009FECFF403FFF823CFFFC019
:10218000007FFFFFFFFF600005DFFFFFBFF40000DF
:1021900002443008F40000003DFFFFFEC7109FFF1F
:1021A000FFFFFFB09FF96667EFF49FF600009FF70F
:1021B0009FF600008FF59FF84446EFD09FFFFFFF8A
:1021C000FC209FFFFFFFFF709FF60006FFE09FF6D9
:1021D0000000DFF09FF60000BFF19FF50000BFF5A3
:1021E0006FE200005FF403200000032000002441A0
:1021F0000000005DFFFFC40007FFFFFFFF700EFE41
:102200004016EFF02FFA00004D901FFF7200000003
:102210000BFFFFDA610001AFFFFFFE50000169DF35
:10222000FFF201100002CFF72EF400006FF72FFE2F
:102230004002DFF509FFFEDFFFC0006DFFFFF91070
:1022400000003443100000006EFFFFFFFFE7BFFFF8
:10225000FFFFFFFB2777BFFB777200007FF70000CF
:1022600000007FF7000000007FF7000000007FF70C
:10227000000000007FF7000000007FF70000000072
:102280007FF7000000007FF7000000007FF70000EC
:1022900000004FF4000000000220000002100000C7
:1022A00001206FE200002EF69FF500005FF99FF617
:1022B00000006FF99FF600006FF99FF600006FF9BC
:1022C0009FF600006FF99FF600006FF99FF600007F
:1022D0006FF99FF600006FF97FF700007FF83FFE6F
:1022E0006226EFF30AFFFFFFFFA0007EFFFFE7007B
:1022F0000000344300000000020000000110AFC0E5
:1023000000002EF5CFF400007FF77FF90000CFF238
:102310002FFD0002FFB00BFF3007FF6006FF700BC0
:10232000FF1001FFB01FFA0000AFF16FF500005F72
:10233000F6BFE000000EFBFF80000009FFFF300049
:102340000004FFFD00000000CFF6000000000320A5
:1023500000000000020000012000001100AFC000DA
:102360002EFB0001EF50CFF1006FFF1005FF708FC3
:10237000F4009FFF4008FF304FF700CFFF800BFEB7
:10238000001FFA01FFAFB00EFB000CFD05FE4FF081
:102390003FF70008FF18FA0FF36FF30004FF4BF745
:1023A0000BF79FE00000FF8FF308FACFA00000BFFB
:1023B000DFE004FEFF7000007FFFA001FFFF2000B0
:1023C000004FFF7000CFFE0000000CFE20006FF8F1
:1023D0000000000141000003300000000110000077
:1023E00011003FF30004FF205FFC000DFF300DFFE4
:1023F000608FFA0003FFE3FFD100008FFFFF400072
:10240000000DFFF900000007FFF30000002FFFFCA4
:10241000000000CFFDFF700007FFB2FFF3003FFF99
:10242000208FFC00AFF7000DFF60AFC00005FF403C
:1024300003100000320000000210000002009FC0E4
:102440000000BF90BFF70005FFC04FFE100DFF401A
:102450000AFF806FFA0001EFF2EFE200007FFEFF5B
:102460007000000CFFFD00000003FFF400000000FE
:10247000FFF000000000FFF000000000FFF000008F
:102480000000FFF000000000CFC0000000000300CB
:102490000000000009FFFFFFFFE60EFFFFFFFFFA4D
:1024A0000377777BFFF40000003EFF60000001DF50
:1024B000F80000000CFFB0000000AFFC10000007A7
:1024C000FFE20000005FFF30000003FFF5000000A6
:1024D0002EFFD77777727FFFFFFFFFFB3DFFFFFFE8
:1024E000FFF700003DFFE27FFFE27FF0007FF0009A
:1024F0007FF0007FF0007FF0007FF0007FF0007F32
:10250000F0007FF0007FF0007FF0007FF0007FF9A7
:10251000914FFFF30366400012000000CF1000004F
:102520009F7000004FC000000DF3000007F900008D
:1025300002FE000000BF5000005FB000000EF2007D
:102540000009F7000003FD000000CF4000006F709D
:1025500000000400BFFE60CFFFB0009FB0009FB03E
:10256000009FB0009FB0009FB0009FB0009FB000E0
:102570009FB0009FB0009FB0009FB0009FB079DF78
:10258000B0EFFF90256400000003720000000EFB16
:102590000000007FFF500001EFAFD00009FB0DF6F7
:1025A000002FF306FE10AF9000CF70691000395075
:1025B0004999999999401444444444107800EFC2D1
:1025C0003CFE0078000599961002DFFFFFE309FE4C
:1025D000748FFB04B3000EFB001579CFFB06FFFFE1
:1025E000DEFB2FFC410DFB4FF6003FFB2FFE89EE7B
:1025F000FD05EFFE67FE0013300031000200000011
:1026000000CF80000000FF90000000FF900000005D
:10261000FF92897100FFCEFFFE20FFFB69FFB0FF34
:10262000E000AFF2FF90005FF4FF80004FF6FFB0D4
:10263000007FF3FFF302DFE0FFEFDFFF70DF6CFFEF
:10264000F700130033100000000599830001CFFF4D
:10265000FFA00BFFA6BFF33FF9000BD26FF4000001
:10266000007FF20000005FF40004702FFC103FF4C4
:1026700009FFEDFFE1008EFFFC3000003420000078
:10268000000000002000000008FC00000009FF001E
:10269000000009FF00179829FF02EFFFECFF0BFF76
:1026A00096BFFF2FFA000EFF5FF50009FF6FF400E1
:1026B00008FF4FF7000BFF1EFD203FFF07FFFDFE49
:1026C000FF007FFFC6FD0001320031000003899545
:1026D000000000AFFFFFC10009FF746EFB001FF890
:1026E0000005FF304FFCBBBCFF606FFCBBBBBB30C9
:1026F0004FF6000010000EFD2006FA0005FFFDEF6A
:10270000FA00005DFFFE9100000024300000000090
:1027100000014200006FFF5001FFFD4002FF8000FA
:1027200037FFA610BFFFFF7026FFA41002FF700046
:1027300002FF700002FF700002FF700002FF7000D5
:1027400002FF700001EF60000013000000169831D6
:102750009602DFFFFAFE0BFFA6BFFF2FF9000CFF6A
:102760005FF50009FF6FF40009FF3FF8000CFF0E52
:10277000FF648FFF04FFFFFEFF0038BA49FF0161CD
:10278000000BFC09FD326FF705FFFFFFB10039CDEB
:10279000B70000000200000000CF80000000FF90A2
:1027A000000000FF90000000FF91798300FFBEFF52
:1027B000FF40FFFD8BFFB0FFE100DFE0FFA0009FC7
:1027C000F0FF90009FF0FF90009FF0FF90009FF0BF
:1027D000FF90009FF0CF80008FC013000003100017
:1027E0000400AFB0CFC027204940CFC0DFD0DFD03A
:1027F000DFD0DFD0DFD0DFD0DFD0AFA0040000001B
:1028000000040000AFB000CFC00027200049400006
:10281000CFC000DFD000DFD000DFD000DFD000DF8E
:10282000D000DFD000DFD000DFD000DFD005EFB078
:102830004FFF801AB70000000200000000CF8000A8
:102840000000FF90000000FF90000000FF90029346
:1028500000FF901DFC00FF91DFF500FFABFF600063
:10286000FFFFFB0000FFFFFF4000FFE6FFE200FF6D
:10287000906FFB00FF900BFF60CF8001EF501300C3
:10288000001300000200AFA0DFD0DFD0DFD0DFD028
:10289000DFD0DFD0DFD0DFD0DFD0DFD0DFD0AFA020
:1028A000030000005911798203897200EF9DFFFE39
:1028B0006FFFFE20FFFC8CFFFC8CFF70FFE102FF2E
:1028C000D102FF90FFA000FFA000FF90FF9000FF4B
:1028D0009000FF90FF9000FF9000FF90FF9000FF9E
:1028E0009000FF90FF9000FF9000FF90CF8000DFEE
:1028F0008000DF701300001300001300591179836A
:1029000000EF8EFFFF40FFFD8BFFB0FFE100DFE037
:10291000FFA0009FF0FF90009FF0FF90009FF0FF4E
:1029200090009FF0FF90009FF0CF80008FC01300B9
:102930000003100000048984000001BFFFFFB10004
:102940000AFF958FFA001FFA000AFF205FF50005C5
:10295000FF506FF40004FF604FF70006FF400EFDCC
:10296000101DFE1007FFEBEFF700006EFFFE60008A
:1029700000003430000000006913996100EFAFFFE0
:10298000FD20FFFB6AFFB0FFD000AFF2FF90005FB9
:10299000F4FF80004FF6FFB0007FF3FFF301DFE1AB
:1029A000FFFFDEFF80FFABFFF900FF90241000FF68
:1029B00090000000EF900000006B3000000000006D
:1029C000001699319602DFFFFAFE0BFFA6BFFF2F1C
:1029D000FA000DFF5FF50009FF6FF40008FF4FF7E5
:1029E000000BFF1FFD103FFF08FFEDFFFF009FFFE3
:1029F000BAFF00014209FF00000009FF00000009C2
:102A0000FE00000003B6000049229700CF9EFF3071
:102A1000DFFFFB10DFF50000DFE00000DFD000008B
:102A2000DFD00000DFD00000DFD00000AFA000004A
:102A30000400000000489961000AFFFFFE304FFAD1
:102A400046EF806FF70027102FFFFB820004CFFFB7
:102A5000FF50030159EFE04FC100AFF03FFEABFF65
:102A6000A004CFFFF9100001331000000033000074
:102A700002FF400004FF600038FF9510BFFFFF50C9
:102A800027FF940004FF600004FF600004FF600063
:102A900004FF600004FF600003FFEC3000BFFF3064
:102AA000000241005930003950EF90009FE0FF9044
:102AB000009FF0FF90009FF0FF90009FF0FF9000BC
:102AC0009FF0FFA000BFF0EFE206FFF09FFFEFEFE7
:102AD000F01CFFF95FD000241003100049200029EA
:102AE00040DFB000BFD0AFF101FFA05FF505FF50A0
:102AF0000EF909FE0009FE0EF90003FF7FF3000046
:102B0000DFEFD000008FFF8000002FFF20000002C9
:102B10004200000039400189100493BFB007FF80D4
:102B20000BFB9FF10BFFC00FF94FF40EFFF13FF4C9
:102B30000EF72FCCF37FE00AFB5F88F7AFA006FE0D
:102B40009F44FADF6001FFEF11FEFF1000BFFC00A1
:102B5000CFFB00006FF7007FF6000003300003306A
:102B60000000000018700078007FF405FF302FFD92
:102B70001EFD0007FFDFF30000CFFF8000008FFF86
:102B8000500004FFFFD1001DFE6FF9008FF50BFF11
:102B9000308FB002EF3003000022000039400039CE
:102BA00030BFD000CFB08FF201FF803FF705FF307C
:102BB0000DFB09FD0008FE0DF70003FF6FF200009A
:102BC000CFEFB000007FFF7000002FFF1000000C5F
:102BD000FB0000068FF500001FFFC0000007B810C3
:102BE0000000000003666666500FFFFFFFF50799BF
:102BF0009BFFE100001DFE300001DFF400001BFF21
:102C0000500000BFF700000AFF8000005FFFFFFFD9
:102C1000F54FFFFFFFF40000006DFE3001FFC920FB
:102C200003FF400004FF400004FF400004FF400099
:102C300004FF30008DFB0000DFE7000006FF1000FE
:102C400004FF400004FF400004FF400003FF400079
:102C500002FF950000BFFF400003550002201EE167
:102C60002FF22FF22FF22FF22FF22FF22FF22FF25C
:102C70002FF22FF22FF21FF102200000CFEA000006
:102C80008BFF600000DF700000DF700000DF70006D
:102C900000DF700000DF8000007FEA10003CFF30A2
:102CA00000CFA00000DF700000DF700000DF7000C8
:102CB00000DF700036FF7000EFFE2000364100009C
:102CC00002AB830038000DFFFFBAFF004FC6AFFF15
:102CD000F900061001795000010100120600000001
:102CE0001C140008040F0104060000002014000852
:102CF000070701040A000000401400080B0E00053D
:102D00000B0000005C1400080B1000040B00000016
:102D1000B0140008100F0104120000001015000884
:102D20000D0F00040D0000008815000803070104C2
:102D300006000000F415000805120104060000005A
:102D40000416000805120004060000003C160008E6
:102D50000808000408000000741600080B0B0007A8
:102D60000B000000941600080406010F0600000086
:102D7000D81600080704000B07000000E41600083E
:102D80000404010F06000000F4160008070F0004F9
:102D900007000000FC1600080B0E00050B000000E9
:102DA00038170008070EFF05070000008C17000801
:102DB0000B0D00050B000000C41700080A0E0005EB
:102DC0000B000000141800080B0E00050B0000009B
:102DD0005C1800080A0E00050B000000B01800087F
:102DE0000B0E00050B000000F81800080A0E000585
:102DF0000A0000004C1900080B0E00050B00000033
:102E0000941900080B0E00050B000000E8190008DB
:102E1000040B0108060000003C1A0008040D01081C
:102E200006000000541A00080B0A00080B000000FE
:102E3000701A00080B0800090B000000AC1A00080B
:102E40000B0A00080B000000DC1A00080A0F00043F
:102E50000A000000181B00080E0F00040E000000FE
:102E6000641B00080C0F00040C000000D01B0008BD
:102E70000C0D01050D0000002C1C00080C0F0104B6
:102E80000D0000007C1C00080C0D01050E00000068
:102E9000D81C00080B0D01050C000000281D0008BF
:102EA0000B0E01050B000000781D00080D0F01043A
:102EB0000F000000CC1D00080C0F01040E000000E4
:102EC000381E0008040F010406000000941E0008CC
:102ED000090F00040A000000B41E00080C0F0104D2
:102EE0000C000000001F00080A0E01040B00000087
:102EF0005C1F00080E0F010410000000A41F000852
:102F00000C0F01040E000000102000080E0F00043A
:102F10000F0000006C2000080C0E01050D000000E1
:102F2000D82000080E0F00040F0000002C2100081C
:102F30000C0E01050D000000982100080C0F000484
:102F40000C000000EC2100080C0E00050C00000035
:102F5000482200080C0F01040E0000009C2200080B
:102F60000C0F00040C000000F8220008110F0004F0
:102F700011000000542300080B0F00040B00000098
:102F8000DC2300080B0F00040B00000038240008AD
:102F90000C0D00050C00000094240008061101052A
:102FA00006000000E4240008070F000407000000EA
:102FB000182500080511000506000000542500082A
:102FC000090801050B000000882500080B02FF130B
:102FD00009000000B02500080404000405000000FA
:102FE000BC2500080A0B00080B000000C4250008DF
:102FF0000A0F01040B000000FC2500080A0B000862
:103000000A000000482600080A0F00040B00000018
:10301000802600080B0B00080B000000CC260008DF
:10302000070F000407000000102700080A0E000820
:103030000B0000004C270008090F01040B000000E2
:1030400094270008030F010405000000E027000892
:103050000512FF040500000000280008090F010404
:103060000A00000038280008030F010405000000D2
:10307000842800080F0B010811000000A428000894
:10308000090B01080B000000FC2800080B0B0008CE
:103090000B000000342900080A0E01080B00000094
:1030A000782900080A0E00080B000000C02900085B
:1030B000070B010807000000082A0008090B000898
:1030C0000A000000342A0008070E0005070000006F
:1030D0006C2A0008090B01080B000000A42A000854
:1030E000090B000809000000DC2A00080E0B00088C
:1030F0000E000000142B0008090B00080900000056
:10310000642B0008090E0008090000009C2B000831
:103110000A0A00080A000000E42B00080711000555
:1031200006000000182C0008040F00040400000032
:103130005C2C000807110005060000007C2C00082C
:103140000B04000B0B000000C02C000820007E00C8
:10315000D82C00080000000031730808D96A08085C
:10316000096B08080F6B08081D6B0808507D0808DC
:10317000161601014C310008160B0F00000000006C
:10318000CBEDDCBBA997765400CCCC00E0E0C0C00E
:103190008080505000003B02C00000870780000084
:1031A000C20B300002C01D000EFFFFFFFD000C30FF
:1031B000A400002C01D000DFFFFFFFE000C20C30B4
:1031C0000003B03C00000A5096000000000100001F
:1031D000000F000003DFE7000C5F1C300F0F05300D
:1031E0000E3F000007EF3000006FFA10000F4CA0F8
:1031F000000F02F0D00F01E0991F2A7008EFC600FF
:10320000000F0000000900000000000010002CFC6E
:103210006106C000C606EEED4000F000F0190000A7
:10322000C606D08200003CFC3370000000000A009B
:1032300000000000742CFC20000290C606C0000AAA
:1032400020F000F0005700C606C000A0002CFC20B3
:10325000000000000000000001BFD30000000B7060
:103260006D0000000F000F0000000D40790000000D
:1032700008CAA000000005FA008FFC205B7F40090F
:103280009000D208E22B0000F1009EC10000B911AD
:103290007DF932301BFE804ADC800000E0C08050A7
:1032A00002C00A403C008700C300E100F000E100DA
:1032B000C30087003C000A4002B00000C2005A0070
:1032C0000C30078003C001E000F001E003C007807C
:1032D0000C305A00B200000000E000B393B06877F1
:1032E00060687860B393B000E00000000000F00078
:1032F000000000F000000000F000000000F00000FE
:10330000FFFFFFFFF00000F000000000F0000000F1
:1033100000F000000000F00000000000CBDF0752CA
:10332000FFFFCCCC0009000900450081009003702C
:1033300007200900180054009000900004CFC4003A
:103340002D303D2095000590C20002C0F00000F035
:10335000F00000F0F00000F0C20002C095000590FF
:103360002D303D2004CFC40014C000EEF00001F069
:103370000000F00000F00000F00000F00000F0009D
:1033800000F00003F400AFFFD0000000006DFE91DC
:1033900009A2029A0F10000F0C60002E000000B767
:1033A00000002C800004E600005D300003D2000025
:1033B0000D30002D5FFFFFFB02AFFA100C6019A06B
:1033C0000E1001F0000001E000001A60006DF7002F
:1033D00000002A80000001E0D00001E0D7103B800F
:1033E0002BFFC70000008E000008BF00006C1F000C
:1033F00002D20F000B500F004C000F00A5000F0071
:10340000EFFFFFFE00000F0000000F100000CFE0F4
:103410000FFFD9000E0000000D0000000B0000009F
:103420000CBFE8000B501A90000002E0000000F012
:10343000D00004C0C6004E502BFFC5000006BF5090
:1034400001CB41000C7000006A000000B6BFE9002B
:10345000E9202B80F00002E0E10000F0B50003D08D
:103460004E402B6005DFD600EFFFFFE0E100078054
:1034700030000D2000005B000000C4000004D000FC
:10348000000B8000002F3000009C000000E80000CE
:1034900003F3000019DFEB20B82018D0F10001E0A1
:1034A0009C513A3007FFF5001B43AF50A60007D0F0
:1034B000F00000F0E20002D09B203C6008EFC60064
:1034C00006DFD5006B204E40D30005B0F00001E0D0
:1034D000E20000F08B2029E009EFB6B0000009609F
:1034E00000007B00014BB1005FB60000CCCC0000B7
:1034F00000CCCC00CCCC000000CBDF0542000000AB
:1035000000000016C0000039D820016CB500009DF5
:10351000820000009D82000000016CB500000000E8
:1035200039D93000000016C0FFFFFFFFF000000097
:1035300000000000000000FFFFFFFFF0C6100000C9
:103540000028D93000000005BC61000000028D9009
:103550000000028D900005BC610039D9300000C622
:10356000100000002AFFA1CE219BDD001F00001EDD
:10357000000078004A9000F20000E0000000000027
:10358000CC0000CC0000000000018CFFEA400000ED
:103590005D830027E80005C20000002D502D202B80
:1035A000F85505B08801E707C401F0D309B003E07E
:1035B00000F0F00E4006B003C0F00F000D600B707D
:1035C000C30C419B41AC007A03EE33DE91000C70DA
:1035D000000000000001CB51002650000006BEFE96
:1035E000A400000000008700000002EF10000009A6
:1035F0004C8000001B05F100007500D70000C000E2
:103600007D0004FFFFFF300A40000B801E00000712
:10361000D05C000003F3DF50000BFC00BFFFFFC3D2
:10362000000F20028D000F00000F000F0000790036
:103630000F147D90000FDA66BB100F000007A00F7B
:10364000000000F00F000002E00F30015D80CFFFAE
:10365000FFD80000003AEFEB4007C4004CE03D10FB
:103660000001C0A600000000E100000000F0000022
:103670000000E100000000B5000000005C10000048
:103680008509C4003AC1006CFFC70000CFFFFD935D
:10369000001F30037E600F000002D30F0000006A9D
:1036A0000F0000001E0F0000000F0F0000001E0F93
:1036B0000000006A0F000002E31F40038E60CFFF8E
:1036C000FD930000BFFFFFFF400F200039500F00A7
:1036D0000000000F000000000F0001B0000FFFFF0E
:1036E000F0000F0001B0000F000000000F0000000C
:1036F000000F200016D0BFFFFFFFB000BFFFFFFC90
:103700000F20025D0F0000000F0000000F0001A05D
:103710000FFFFFF00F0002A00F0000000F000000DD
:103720000F000000CFB000000028DFFC810003E79D
:103730002014C8002E30000019009800000000007E
:10374000D20000000000F000007FFE00E100000059
:103750003F00B60000000F004E2000001F1007E7DA
:103760003003BC10004BEFEB60000000CFC0000046
:10377000CFC01F1000000F100F0000000F000F003F
:1037800000000F000F0000000F000FFFFFFFFF0001
:103790000F0000000F000F0000000F000F000000DE
:1037A0000F001F0000001F00CFB00000CFB00000CE
:1037B000BFC00F100F000F000F000F000F000F0011
:1037C0000F001F00CFB000000000EFC000002F006E
:1037D00000000F0000000F0000000F0000000F00AD
:1037E00000000F006E900F00F3000F00D6018B0059
:1037F0003BFFB100BFC005FF400F1001E4000F0008
:103800000B70000F00A900000F09E100000FAADBF8
:1038100000000F802E60000F0006E1000F0000C9BD
:10382000001F00005F20CFB000AFC000BFC000008D
:103830000F1000000F0000000F0000000F0000003C
:103840000F0000000F0000000F0000000F0000003C
:103850000F20015DBFFFFFFCAFE1000009FC0CF78A
:1038600000001FE00CAD00007CD00D4F5000D6F0E2
:103870000D2AB006C2F00D23F30D50F00E00BA6C05
:1038800000F00F004FE500F00F000BC000F01F002C
:10389000022000F1CFC000000BFB0000EFB0000BD6
:1038A000FB1FF80000F00F5F4000F00F08E200F08F
:1038B0000F00CB00F00F002E60F00F0006E2F00FBB
:1038C0000000BAF00F00002FF01F100007F0CFD05B
:1038D0000000C00000000000005BFFB50008C3004E
:1038E0003C804C100001C4B50000005BE10000000A
:1038F0001EF00000000FE10000001EB50000005B9C
:103900004C100001C408C3003C80005BFFB5000000
:10391000CFFFFEB6001F50025D800F000002E00FD7
:10392000000001E00F000009900F0137CB100FFEDF
:10393000C930000F000000000F000000000F100051
:103940000000BFE000000000005BFFB50008C300FE
:103950003C804C100001C4B50000005BE100000099
:103960001EF00000000FE10000001EB50000005B2B
:103970004C103801C408C31C4C80005BFFE50000FC
:103980000001C60000000019FC000000BFFFFFDAC4
:10399000200F20013AD00F000000F00F000007B008
:1039A0000F0247CB100FECAEE1000F0003E9000F50
:1039B00000005F200F00000B901F200004E1CFE00B
:1039C000002DFC00005BFFDA3007A203AFE00E1011
:1039D0000005E00F200000000AD7300000018DFF35
:1039E000C7000000248EA000000002F0E5000002E5
:1039F000D06F82014C6004BEFEB40000CFFFFFFF19
:103A0000C0F711F117F02000F000200000F00000D6
:103A10000000F000000000F000000000F0000000D6
:103A200000F000000000F000000000F00000000DB9
:103A3000FB000000CFD00000CFA00D4000003C00F4
:103A40000D2000002D000E1000000E000F000000E1
:103A50000F000F0000000F000F0000000F000E20ED
:103A600000002D000A7000007A0003F71027E20022
:103A7000003BEFEA20000000DFC00007FD6F3000D0
:103A800000D52F300001F10C700005B008C0000A0D
:103A90006002F2001E1000B8006A00005F10D30040
:103AA000000D96B0000005FE30000000A8000000E8
:103AB000CFB002EF7007FC5F10007C0000B41F3035
:103AC00000AC0000C10D6000DF1001C00A9003CE01
:103AD00050049006E0077AB0085002F30D24F10D6F
:103AE0001000D84C00D83B00008DB6007EA7000027
:103AF0003FE1001FF100000B600007900000000094
:103B0000BFD1006FF31DA0000E6004F40079000027
:103B10009E14C100000CCC20000003FB0000000B31
:103B20006D9000007902E60002D1003E200C70008A
:103B30000BC0BFB0001FFB00DFE30005FC1DD00081
:103B400000C204F6000280008E200910000BB06451
:103B5000000001D9A00000003F100000000F00008D
:103B600000000F000000001F00000000CFB00000A8
:103B70003FFFFFFB6B3000D7100008D100004F4023
:103B80000002E800000CB000009D100006F30000E9
:103B90002E700002AD00027EEFFFFFFCFFF0F00090
:103BA000F000F000F000F000F000F000F000F00095
:103BB000F000F000FFF0000090009000630018009B
:103BC00009000720036000A00091005500190009BA
:103BD000FFF000F000F000F000F000F000F000F066
:103BE00000F000F000F000F0FFF00000000AFA0022
:103BF00000008B1B80000880008800850000058085
:103C0000FFFFFFFFD2005C1003700000BEFE8000CB
:103C10000003D70000004C0018CFFF00C8310F0090
:103C2000F3017F006EFC4B908E0000000F0000003F
:103C30000F0000000F0000000F4CFE800F9203B831
:103C40000F00002E0F00000F0F10003C0BA103D53A
:103C500002BFFC5005CFD6005C208D00C3000000E1
:103C6000F0000000E20000008B203C2008EFC400C0
:103C7000000009E0000001F0000000F0000000F08A
:103C800005CFE8F05D4016F0C30000F0F00000F052
:103C9000E20000F07C3015F007DFD7BB04CFD50081
:103CA0004E304E00C4002E00F137D600EEC8300072
:103CB00088104B0008EFB300003EC000B6D000E112
:103CC0000000F0002FFF0000F00000F00000F00006
:103CD00000F00000F0000DFB0000000009FFFF20D5
:103CE0008A11A600E2002D00F0000F00D2002D0086
:103CF0008A11A70009EEE60000002E00C2016D0047
:103D00008EFEB2005E0000000F0000000F000000F9
:103D10000F0000000F5DFC300F8108B00F0001F0B4
:103D20000F0000F00F0000F00F0000F0AFC00AFC21
:103D30000C000C0000008E001F000F000F000F0091
:103D40000F00BFC000C000C0000009E000F000F09C
:103D500000F000F000F000F000E004B0DE30000001
:103D60008E0000000F0000000F0000000F00000098
:103D70000F005FB00F007B000F09B0000FCAE20018
:103D80000F206B000F000B409FC00CD09E001F0047
:103D90000F000F000F000F000F000F000F000F00AB
:103DA000BFC000009B9EE68EE5000F604F604E0096
:103DB0000F000F000F000F000F000F000F000F008B
:103DC0000F000F000F000F00BFC0BFC0BFC000003A
:103DD000AA7DFC301F7107C00F0000F00F0000F03B
:103DE0000F0000F00F0000F0BFC00BFC06DFD70093
:103DF0006D303D70D30003D0F00000F0D30003D04D
:103E00007C303C7007DFD700BB6DFD701F7103C7AE
:103E10000F00002D0F00000F0F00003D0F2203D6F2
:103E20000F6EFC600F0000001F100000DFC00000DC
:103E300005CFE7B05D302AF0C30001F0F00000F0DC
:103E4000E20000F08B3029F008EFC5F0000000F030
:103E5000000000F000000DFCB85DD02EA0000F2087
:103E6000000F00000F00000F0000CFB000000000A6
:103E70003CFE80E404D0E610004CFD500016E0D477
:103E800004D04CFC3000000009000B000E00DFFEE7
:103E90000F000F000F000F000F100EEBBE000BE025
:103EA0001F0001F00F0000F00F0000F00F1000F0F5
:103EB0000B8018F203CFD5BBCF300FD04C00086079
:103EC0001E100A200A601B0003C0750000B8C00065
:103ED000002E3000CF404F800BD06B000D4004808F
:103EE0003D001F7007400D306CD00C100890C2E5EB
:103EF000590002FA707DC200007B000C70000000C7
:103F0000BF407F300C60860002E7A000007F3000D9
:103F100002B6E2000B208C10BF306FC0CF400CD037
:103F20006C0006804B0006602E0009300D400C002E
:103F300007C1680000BFE10000057000005A0000E2
:103F40009E8000007FFFD0820880004C0001D300DB
:103F50000B60007902B0EFFFC0000000004CF000E1
:103F6000D60000F00000F00000E00017A000FB10F9
:103F70000017A00000E00000F00000F00000D600F4
:103F8000004CF000F0F0F0F0F0F0F0F0F0F0F0F0B5
:103F9000F0F0F000FC400006D00000F00000F0005F
:103FA00000E00000A710001BF000A71000E00000D8
:103FB000F00000F00006D000FC400000000000000F
:103FC000004CFD8303C0A3027DFC40000101000EF4
:103FD000040000007C310008020B01030400000013
:103FE0008031000803040103050000008C31000843
:103FF0000A0B01030B00000094310008070F0001B9
:1040000008000000CC3100080B0D01020D0000007B
:10401000083200080B0B01030B00000058320008A7
:1040200001040103030000009C320008030D01039A
:1040300005000000A0320008030D01030500000088
:10404000BC3200080506010307000000D832000852
:10405000090902050C000000EC3200080204010C02
:10406000040000001C3300080401010A05000000E0
:10407000203300080202010C040000002233000873
:10408000040C00030400000024330008070B0003A5
:10409000080000003C330008050B02030800000084
:1040A00068330008080BFF03080000008C33000889
:1040B000070B000308000000B8330008080B0003DA
:1040C00008000000E4330008070B000308000000AC
:1040D00010340008070B0003080000003C340008FF
:1040E000070B01030800000068340008070B0003F9
:1040F0000800000094340008070B000308000000CB
:10410000C03400080207010704000000EC34000876
:104110000209010704000000F43400080908020540
:104120000C00000000350008090402070C00000024
:1041300028350008090802050C0000003C3500087D
:10414000060B010307000000643500080D0D010394
:104150000F000000883500080A0B00030A00000069
:10416000E4350008090B00030A0000001C360008B3
:104170000A0B01030A000000543600080A0B000372
:104180000B0000008C360008090B0003090000003A
:10419000C4360008080B000308000000FC360008C5
:1041A0000B0B01030C000000283700080B0B000369
:1041B0000C0000006C370008030B00030400000033
:1041C000B0370008070B000307000000C8370008DD
:1041D000090B000309000000F4370008080B000376
:1041E000090000002C3800080C0B00030C00000034
:1041F000583800080A0C00030B0000009C38000827
:104200000A0B01030B000000D8380008090B00035B
:1042100009000000103900080A0D01030B0000001E
:10422000483900080A0B00030A0000008C39000816
:10423000090B000309000000C4390008090B000342
:1042400009000000FC3900080B0B00030B00000004
:10425000343A00080A0B00030A000000783A00080C
:104260000E0B00030E000000B03A00080A0B00031A
:104270000A000000003B00080A0B00030A000000CF
:10428000383B0008080B000308000000703B0008E2
:10429000030D0103050000009C3B0008040C000313
:1042A00004000000B83B0008030D000305000000F7
:1042B000D03B0008090403030F000000EC3B00089A
:1042C0000801001107000000003C0008030302037E
:1042D00007000000043C0008070700070800000072
:1042E0000C3C0008080B000308000000283C0008F4
:1042F0000707000707000000543C0008080B0003F4
:1043000008000000703C00080707000707000000D5
:104310009C3C0008050BFF0304000000B83C0008AB
:10432000070A000707000000DC3C0008080B000338
:1043300008000000043D0008030A00040400000017
:10434000303D0008030DFF0404000000443D000858
:10435000070B000307000000603D0008030B00038B
:10436000030000008C3D00080B0700070C00000054
:10437000A43D00080807000708000000D03D000821
:104380000707000708000000EC3D0008080A0007C6
:1043900008000000083E0008080A000708000000A6
:1043A000303E00080507000705000000583E0008E1
:1043B0000507000706000000703E0008040A00041C
:1043C00004000000883E00080807000708000000FD
:1043D0009C3E00080707000707000000B83E0008E1
:1043E0000B0700070B000000D43E0008070700077A
:1043F00007000000003F0008070A00070700000050
:104400001C3F00080507000706000000443F0008A5
:10441000050D0103070000005C3F0008010F0303C6
:1044200007000000843F0008050D0103070000009D
:10443000943F0008090301070C000000BC3F00087E
:1044400020007E00CC3F0008000000003173080807
:10445000D96A0808096B08080F6B08081D6B080863
:10446000507D0808121201014044000812070B0099
:1044700051A8A80058ACAC0062B0B0006DB6B60050
:104480007ABDBD0089C4C40097CBCB00A5D2D200B1
:10449000B4D9D900C1E0E000CCE6E600D6EAEA00F3
:1044A0000C00000000000000704400080304050632
:1044B0000708090A0B0B0A0908070605040302018D
:1044C00000000000000000000000010204050607D3
:1044D00008090A0B0B0A0908070605040302010074
:1044E00000000000000000000001020305060708AC
:1044F000090A0B0B0A09080706050403020100005C
:104500000000000000000000010203040607080983
:104510000A0B0B0A09080706050403020100000044
:104520000000000000000001020304050708090A5A
:104530000B0B0A090807060504030201000000002E
:1045400000000000000001020304050608090A0B30
:104550000B0A090807060504030201000000000019
:10456000000000000001020304050607090A0B0B06
:104570000A09080706050403020100000000000004
:104580000000000001020304050607080A0B0B0ADD
:1045900009080706050403020100000000000000EE
:1045A0000000000102030405060708090B0B0A09B5
:1045B00008070605040302010000000000000000D7
:1045C00000000102030405060708090A0B0A09088E
:1045D00007060504030201000000000000000000BF
:1045E000000102030405060708090A0B20000A005F
:1045F00020000800AC440008A044000800000000AF
:10460000000000FF000000FF000000FF000000FFAE
:10461000319898FF289494FC379B9BCB41A0A07BBA
:1046200045A2A24547A3A33C50A7A70851A8A800AC
:1046300051A8A80051A8A80051A8A80051A8A800F6
:1046400051A8A80051A8A80051A8A80051A8A800E6
:1046500051A8A80051A8A80051A8A80051A8A800D6
:1046600051A8A80051A8A8004BA5A52C45A2A2447A
:1046700044A1A1613B9D9DB2319898F3319898FF78
:10468000000000FF000000FF000000FF000000FF2E
:10469000000000FF000000FF000000FF44A1A1FF98
:1046A0003A9C9CD745A2A26E5DAEAE1A7EBEBE01FC
:1046B00098CBCB0099CCCC009ECFCF009FCFCF0022
:1046C0009FCFCF009FCFCF009FCFCF009FCFCF00F6
:1046D0009FCFCF009FCFCF009FCFCF009FCFCF00E6
:1046E0009FCFCF009FCFCF009FCFCF009FCFCF00D6
:1046F0009FCFCF009FCFCF009ACDCD0098CBCB00DE
:1047000080BFBF0060B0B00C4BA5A54D3F9F9FB7C9
:10471000299494FC319898FF000000FF000000FFEE
:10472000000000FF2C9696FF1F8F8FFC389C9CB6D4
:1047300055AAAA308BC5C500CCE5E500E7F3F30028
:10474000EEF6F600EFF6F600EFF7F700EFF7F700FA
:10475000EFF7F700EFF7F700EFF7F700EFF7F700E5
:10476000EFF7F700EFF7F700EFF7F700EFF7F700D5
:10477000EFF7F700EFF7F700EFF7F700EFF7F700C5
:10478000EFF7F700EFF7F700EFF7F700EEF6F600B8
:10479000E7F3F300CDE6E6008FC7C7005BADAD11D0
:1047A00042A1A18B2B9595F0309898FF000000FF57
:1047B000000000FF409F9FFF399C9CB55CADAD1190
:1047C000B4D9D900E7F3F300E6F2F200DEEEEE0032
:1047D000DBEDED00DCEDED00DDEEEE00DDEEEE00FC
:1047E000DDEEEE00DDEEEE00DDEEEE00DDEEEE00E5
:1047F000DDEEEE00DDEEEE00DDEEEE00DDEEEE00D5
:10480000DDEEEE00DDEEEE00DDEEEE00DDEEEE00C4
:10481000DDEEEE00DDEEEE00DCEDED00DBEDED00BB
:10482000DFEEEE00E7F2F200E7F3F300B7DBDB00C8
:1048300065B2B20140A0A0740D8686FD329898FF43
:104840003E9E9EFF399C9CD855AAAA31B4D9D90066
:10485000EBF5F500DAECEC00D1E8E800CDE5E50099
:10486000CEE6E600CFE6E600D1E7E700D1E7E700D5
:10487000D1E7E700D1E7E700D1E7E700D1E7E700BC
:10488000D1E7E700D1E7E700D1E7E700D1E7E700AC
:10489000D1E7E700D1E7E700D1E7E700D1E7E7009C
:1048A000D1E7E700D1E7E700CFE7E700CEE6E60093
:1048B000CEE6E600D2E8E800DBEDED00EBF5F50032
:1048C000B8DCDC005EAEAE1043A1A1A462B0B0FFC4
:1048D000006C6CFD45A2A26E8BC5C500E1F0F00036
:1048E000D2E8E800C6E2E200C2E0E000C1DFDF009B
:1048F000C3E1E100C5E1E100C7E2E200C7E3E30094
:10490000C7E3E300C7E3E300C7E3E300C7E3E30073
:10491000C7E3E300C7E3E300C7E3E300C7E3E30063
:10492000C7E3E300C7E3E300C7E3E300C7E3E30053
:10493000C7E3E300C7E3E300C5E2E200C4E1E1004E
:10494000C2E0E000C4E1E100C8E3E300D4E9E9002B
:10495000E3F1F10092C8C80050A7A731329898E25D
:10496000369B9BCA5EAEAE1CC7E3E300CFE7E70011
:10497000B7DADA00B2D8D800B4D9D900B8DBDB0096
:10498000BDDDDD00BEDEDE00C1E0E000C1E0E00034
:10499000C1E0E000C1E0E000C1E0E000C1E0E00013
:1049A000C1E0E000C1E0E000C1E0E000C1E0E00003
:1049B000C1E0E000C1E0E000C1E0E000C1E0E000F3
:1049C000C1E0E000C1E0E000BFDFDF00BDDEDE00EF
:1049D000BADCDC00B6DADA00B5D9D900BADCDC0022
:1049E000D1E8E800CAE4E40068B3B30442A1A183BB
:1049F00041A0A07C7EBEBE00C5E1E100A4D1D100F3
:104A0000A5D1D100AFD7D700B9DCDC00C0DFDF0013
:104A1000C5E2E200C7E3E300CAE4E400CAE4E4005C
:104A2000CAE4E400CAE4E400CAE4E400CAE4E4003E
:104A3000CAE4E400CAE4E400CAE4E400CAE4E4002E
:104A4000CAE4E400CAE4E400CAE4E400CAE4E4001E
:104A5000CAE4E400CAE4E400C8E3E300C6E2E2001A
:104A6000C2E0E000BBDDDD00B3D8D800A9D3D3009D
:104A7000A9D3D300C8E3E30087C3C3004CA5A52C8A
:104A800047A3A34486C2C2009CCDCD009BCCCC00E2
:104A9000ABD4D400B7DBDB00C1E0E000C9E4E40044
:104AA000CFE7E700D2E8E800D4E9E900D4EAEA0079
:104AB000D4EAEA00D4EAEA00D4EAEA00D4EAEA0056
:104AC000D4EAEA00D4EAEA00D4EAEA00D4EAEA0046
:104AD000D4EAEA00D4EAEA00D4EAEA00D4EAEA0036
:104AE000D4EAEA00D4EAEA00D2E9E900D0E7E70034
:104AF000CBE5E500C4E1E100BBDDDD00AFD7D700C9
:104B0000A0CFCF00A2D0D00090C7C70054A9A90061
:104B10004BA5A53C77BBBB008EC6C600A1D0D0007C
:104B2000B1D7D700BEDEDE00C8E3E300D1E8E8007D
:104B3000D8EBEB00DBEDED00DDEEEE00DDEEEE00A0
:104B4000DDEEEE00DDEEEE00DDEEEE00DDEEEE0081
:104B5000DDEEEE00DDEEEE00DDEEEE00DDEEEE0071
:104B6000DDEEEE00DDEEEE00DDEEEE00DDEEEE0061
:104B7000DDEEEE00DDEEEE00DCEDED00D9ECEC005C
:104B8000D4E9E900CBE5E500C2E0E000B5DADA00FF
:104B9000A7D2D20095CACA0082C0C00056AAAA00F5
:104BA00055AAAA0882C0C00091C8C800A3D0D000EE
:104BB000B4D9D900C2E0E000CEE6E600D8ECEC00C3
:104BC000DFEFEF00E4F1F100E6F3F300E6F3F300CA
:104BD000E6F3F300E6F3F300E6F3F300E6F3F300A5
:104BE000E6F3F300E6F3F300E6F3F300E6F3F30095
:104BF000E6F3F300E6F3F300E6F3F300E6F3F30085
:104C0000E6F3F300E6F3F300E5F2F200E1F0F00082
:104C1000DBEDED00D2E8E800C6E3E300B9DCDC0040
:104C2000A8D3D30095CACA0085C2C20056AAAA005A
:104C300056AAAA007CBDBD0095CACA00A7D3D3005E
:104C4000B7DBDB00C4E1E100D1E8E800DDEEEE0017
:104C5000E6F2F200ECF5F500EFF7F700EFF7F700FA
:104C6000EFF7F700EFF7F700EFF7F700EFF7F700D0
:104C7000EFF7F700EFF7F700EFF7F700EFF7F700C0
:104C8000EFF7F700EFF7F700EFF7F700EFF7F700B0
:104C9000EFF7F700EFF7F700EDF6F600E8F4F400B1
:104CA000E0EFEF00D5EAEA00C7E3E300B9DCDC009F
:104CB000A8D3D30095CACA007CBDBD0055AAAA00DE
:104CC0004FA7A72C77BBBB0094C9C900A8D3D300BA
:104CD000B9DCDC00C7E3E300D4EAEA00E0EFEF0070
:104CE000EAF5F500F3F8F800F7FBFB00F7FBFB0033
:104CF000F7FBFB00F7FBFB00F7FBFB00F7FBFB0000
:104D0000F7FBFB00F7FBFB00F7FBFB00F7FBFB00EF
:104D1000F7FBFB00F7FBFB00F7FBFB00F7FBFB00DF
:104D2000F7FBFB00F7FBFB00F4F9F900ECF6F600EB
:104D3000E1F0F000D5EAEA00C7E3E300B9DCDC000B
:104D4000A8D3D30095CACA007CBDBD0055AAAA004D
:104D500049A4A44470B8B8008FC6C600A4D1D1003D
:104D6000B7DBDB00C7E3E300D5EAEA00E1F0F000DF
:104D7000EDF6F600F7FBFB00FBFDFD00FBFDFD0083
:104D8000FBFDFD00FBFDFD00FBFDFD00FBFDFD004F
:104D9000FBFDFD00FBFDFD00FBFDFD00FBFDFD003F
:104DA000FBFDFD00FBFDFD00FBFDFD00FBFDFD002F
:104DB000FBFDFD00FBFDFD00F7FBFB00EDF6F60043
:104DC000E1F0F000D5EAEA00C7E3E300B9DCDC007B
:104DD000A8D3D30095CACA007CBDBD0055AAAA00BD
:104DE00044A1A17C68B3B3008AC4C400A1CFCF00A2
:104DF000B3D9D900C3E1E100D2E8E800E0EFEF0069
:104E0000ECF5F500F7FBFB00FBFDFD00FBFDFD00F5
:104E1000FBFDFD00FBFDFD00FBFDFD00FBFDFD00BE
:104E2000FBFDFD00FBFDFD00FBFDFD00FBFDFD00AE
:104E3000FBFDFD00FBFDFD00FBFDFD00FBFDFD009E
:104E4000FBFDFD00FBFDFD00F7FBFB00EDF6F600B2
:104E5000E1F0F000D5EAEA00C7E3E300B8DBDB00ED
:104E6000A7D2D20092C8C80075BABA004EA7A72C24
:104E7000389B9BCA5AADAD1C80BFBF0099CCCC00FB
:104E8000ADD5D500BEDEDE00CCE6E600DAEDED0005
:104E9000E6F3F300F1F8F800F7FBFB00F7FBFB008B
:104EA000F7FBFB00F7FBFB00F7FBFB00F7FBFB004E
:104EB000F7FBFB00F7FBFB00F7FBFB00F7FBFB003E
:104EC000F7FBFB00F7FBFB00F7FBFB00F7FBFB002E
:104ED000F7FBFB00F7FBFB00F3F9F900EAF4F40041
:104EE000DEEFEF00D1E8E800C3E1E100B3D9D9007B
:104EF000A0CFCF0089C4C40068B3B30443A1A18389
:104F0000006969FD49A4A46E6DB6B6008EC6C600E0
:104F1000A2D0D000B4D9D900C3E1E100D0E8E800C4
:104F2000DBEDED00E2F1F100E7F3F300E8F3F3006D
:104F3000E8F3F300E8F3F300E8F3F300E8F3F30039
:104F4000E8F3F300E8F3F300E8F3F300E8F3F30029
:104F5000E8F3F300E8F3F300E8F3F300E8F3F30019
:104F6000E8F3F300E8F3F300E4F2F200DEEFEF0021
:104F7000D4EAEA00C8E3E300B9DCDC00A9D3D3003B
:104F800095CACA007ABCBC0054A9A931319898E2EC
:104F90003E9E9EFF399C9CD856AAAA317ABCBC0082
:104FA00093C9C900A6D2D200B5DADA00C2E0E000A7
:104FB000CBE5E500D0E8E800D5EAEA00D6EAEA0069
:104FC000D6EAEA00D6EAEA00D6EAEA00D6EAEA0039
:104FD000D6EAEA00D6EAEA00D6EAEA00D6EAEA0029
:104FE000D6EAEA00D6EAEA00D6EAEA00D6EAEA0019
:104FF000D6EAEA00D6EAEA00D2E8E800CDE6E60022
:10500000C5E2E200BADCDC00ABD5D50099CCCC001F
:1050100084C1C10062B0B01043A1A1A461B0B0FFCF
:10502000000000FF40A0A0FF3B9D9DB556ABAB111B
:105030007BBDBD0092C8C800A2D0D000AED6D600BD
:10504000B7DBDB00BBDDDD00C1E0E000C2E0E0007B
:10505000C1E0E000C1E0E000C1E0E000C1E0E0004C
:10506000C1E0E000C1E0E000C1E0E000C1E0E0003C
:10507000C1E0E000C1E0E000C1E0E000C1E0E0002C
:10508000C1E0E000C1E0E000BDDEDE00B9DCDC0034
:10509000B2D8D800A7D2D20098CBCB0084C1C1002F
:1050A00063B1B10142A0A074078383FD329898FFD9
:1050B000000000FF2C9696FF1B8D8DFC3B9D9DB63E
:1050C00057ABAB3071B8B80087C3C30095CACA00EC
:1050D0009FCFCF00A1D0D000A8D3D300AAD4D400B2
:1050E000A9D4D400A9D4D400A9D4D400A9D4D4007C
:1050F000A9D4D400A9D4D400A9D4D400A9D4D4006C
:10510000A9D4D400A9D4D400A9D4D400A9D4D4005B
:10511000A9D4D400A9D4D400A4D1D100A0CFCF0069
:1051200099CCCC008DC6C60079BCBC0060AFAF1175
:1051300045A2A28B2A9494F0309797FF000000FFBD
:10514000000000FF000000FF000000FF45A2A2FFDA
:105150003A9C9CD74AA4A46E5DAEAE1A6EB6B60158
:105160007ABDBD007DBEBE0089C4C4008BC5C5002C
:105170008BC5C5008BC5C5008BC5C5008BC5C500DB
:105180008BC5C5008BC5C5008BC5C5008BC5C500CB
:105190008BC5C5008BC5C5008BC5C5008BC5C500BB
:1051A0008BC5C5008BC5C50081C0C0007BBDBD00DF
:1051B00073B9B90063B1B10C50A7A74D3F9F9FB71A
:1051C000279393FC309797FF000000FF000000FF3B
:1051D000000000FF000000FF000000FF000000FFD3
:1051E0002F9797FF239191FC389C9CCB44A1A17BE6
:1051F0004BA5A5454EA6A63C59ACAC085AACAC0094
:105200005AACAC005AACAC005AACAC005AACAC00D6
:105210005AACAC005AACAC005AACAC005AACAC00C6
:105220005AACAC005AACAC005AACAC005AACAC00B6
:105230005AACAC005AACAC0052A8A82C4BA5A54463
:1052400048A3A3613C9D9DB22F9797F32E9797FF9C
:10525000000000FF000000FF000000FF000000FF52
:105260002400160090002000004600080000000006
:10527000207D0808000000FF000000FF000000FF84
:10528000000000FF339999FF349999FA329898C138
:105290002F97976E2E9797382F97972A2F979706C5
:1052A0002F9797002F9797002F9797002F9797008A
:1052B0002F9797002F9797002F9797002F9797007A
:1052C0002F9797002F9797002F9797002F9797006A
:1052D0002F9797002F9797002F9797002F97972337
:1052E0002E9797323097975D329999AA339999F30F
:1052F000FFFFFFFFFFFFFFFFFFFFFFFFFFFFFFFFBE
:10530000FFFFFFFF000000FF000000FF339999FF3F
:10531000359A9AFE339999CE2F979766369A9A16B0
:1053200052A8A8006BB5B5006BB5B5006BB5B5005C
:105330006CB5B5006CB5B5006CB5B5006CB5B50015
:105340006CB5B5006CB5B5006CB5B5006CB5B50005
:105350006CB5B5006CB5B5006CB5B5006CB5B500F5
:105360006CB5B5006CB5B5006CB5B5006BB5B500E6
:105370006BB5B50052A8A800369A9A0C3097974D95
:10538000339999B6339999FAFFFFFFFFFFFFFFFFAB
:10539000FFFFFFFF000000FF339999FF349A9AFC4A
:1053A0003298989A3299991C59ACAC00A7D3D30083
:1053B000D6EAEA00DFEFEF00DFEFEF00DFEFEF000C
:1053C000DFEFEF00DFEFEF00DFEFEF00DFEFEF00E9
:1053D000DFEFEF00DFEFEF00DFEFEF00DFEFEF00D9
:1053E000DFEFEF00DFEFEF00DFEFEF00DFEFEF00C9
:1053F000DFEFEF00DFEFEF00DFEFEF00DFEFEF00B9
:10540000DFEFEF00D6EAEA00A7D3D30059ACAC0037
:105410003299990E32999974339999F0FFFFFFFFF1
:10542000FFFFFFFF339999FF2C9595FF3298989ACB
:10543000359A9A0E80BFBF00D3E9E900D5EAEA00A9
:10544000C3E1E100B9DCDC00B9DBDB00B9DBDB0088
:10545000B9DBDB00B9DBDB00B9DBDB00B9DBDB0090
:10546000B9DBDB00B9DBDB00B9DBDB00B9DBDB0080
:10547000B9DBDB00B9DBDB00B9DBDB00B9DBDB0070
:10548000B9DBDB00B9DBDB00B9DBDB00B9DBDB0060
:10549000B9DCDC00C3E1E100D5EAEA00D3E9E900C8
:1054A00080BFBF00359A9A033299996D339999F666
:1054B000FFFFFFFF339999FF339999CD3299991ED8
:1054C0007FBFBF00D5EAEA00BEDEDE00A5D2D20073
:1054D00095CACA008EC6C6008EC6C6008EC6C60055
:1054E0008EC6C6008EC6C6008EC6C6008EC6C60054
:1054F0008EC6C6008EC6C6008EC6C6008EC6C60044
:105500008EC6C6008EC6C6008EC6C6008EC6C60033
:105510008EC6C6008EC6C6008EC6C6008EC6C60023
:105520008EC6C60095CACA00A5D2D200BEDEDE0075
:10553000D5EAEA0080BFBF0032999908339999A251
:10554000FFFFFFFF349999FB2F97976759ACAC0089
:10555000CBE5E500AED6D60089C3C30070B7B7006F
:1055600060AFAF005BADAD005BADAD005BADAD005E
:105570005BADAD005BADAD005BADAD005BADAD0057
:105580005BADAD005BADAD005BADAD005BADAD0047
:105590005BADAD005BADAD005BADAD005BADAD0037
:1055A0005BADAD005BADAD005BADAD005BADAD0027
:1055B0005BADAD0060AFAF0070B7B70089C3C3008B
:1055C000AED6D600CBE5E50059ACAC0030989838A3
:1055D000339999E7329898C1369B9B17A0CFCF009B
:1055E000A8D3D30065B2B20046A2A200399C9C00A9
:1055F000349A9A0033999900339999003399990014
:105600003399990033999900339999003399990006
:1056100033999900339999003399990033999900F6
:1056200033999900339999003399990033999900E6
:1056300033999900339999003399990033999900D6
:1056400033999900349A9A00399C9C0046A2A20092
:1056500065B2B200A8D3D300A0D0D000369A9A0584
:105660003299998C2F97976E52A9A900A1D0D0009A
:105670004EA6A60033999900329898003399990064
:105680003399990033999900339999003399990086
:105690003399990033999900339999003399990076
:1056A0003399990033999900339999003399990066
:1056B0003399990033999900339999003399990056
:1056C0003399990033999900339999003399990046
:1056D0003399990033999900339999003298980039
:1056E000339999004EA6A600A2D0D00052A9A900D5
:1056F000309898323098983855AAAA0056ABAB002B
:105700003198980033999900339999003399990009
:1057100033999900339999003399990033999900F5
:1057200033999900339999003399990033999900E5
:1057300033999900339999003399990033999900D5
:1057400033999900339999003399990033999900C5
:1057500033999900339999003399990033999900B5
:1057600033999900339999003399990033999900A5
:10577000339999003198980056ABAB0055AAAA000E
:10578000319898063399992B399C9C00349A9A0049
:105790003399990033999900339999003399990075
:1057A0003399990033999900339999003399990065
:1057B0003399990033999900339999003399990055
:1057C0003399990033999900339999003399990045
:1057D0003399990033999900339999003399990035
:1057E0003399990033999900339999003399990025
:1057F0003399990033999900339999003399990015
:105800003399990033999900349A9A003A9C9C00F4
:1058100033999900339999063A9D9D00349A9A00DC
:1058200033999900339999003399990033999900E4
:1058300033999900339999003399990033999900D4
:1058400033999900339999003399990033999900C4
:1058500033999900339999003399990033999900B4
:1058600033999900339999003399990033999900A4
:105870003399990033999900339999003399990094
:105880003399990033999900339999003399990084
:105890003399990033999900349A9A003A9D9D0062
:1058A0003399990033999900339999003399990064
:1058B0003399990033999900339999003399990054
:1058C0003399990033999900339999003399990044
:1058D0003399990033999900339999003399990034
:1058E0003399990033999900339999003399990024
:1058F0003399990033999900339999003399990014
:105900003399990033999900339999003399990003
:1059100033999900339999003399990033999900F3
:1059200033999900339999003399990033999900E3
:1059300033999900339999233399990033999900B0
:1059400033999900339999003399990033999900C3
:1059500033999900339999003399990033999900B3
:1059600033999900339999003399990033999900A3
:105970003399990033999900339999003399990093
:105980003399990033999900339999003399990083
:105990003399990033999900339999003399990073
:1059A0003399990033999900339999003399990063
:1059B0003399990033999900339999003399990053
:1059C000339999003399993833999900339999000B
:1059D0003399990033999900339999003399990033
:1059E0003399990033999900339999003399990023
:1059F0003399990033999900339999003399990013
:105A00003399990033999900339999003399990002
:105A100033999900339999003399990033999900F2
:105A200033999900339999003399990033999900E2
:105A300033999900339999003399990033999900D2
:105A400033999900339999003399990033999900C2
:105A5000339999063399996E33999900339999003E
:105A600033999900339999003399990033999900A2
:105A70003399990033999900339999003399990092
:105A80003399990033999900339999003399990082
:105A90003399990033999900339999003399990072
:105AA0003399990033999900339999003399990062
:105AB0003399990033999900339999003399990052
:105AC0003399990033999900339999003399990042
:105AD0003399990033999900339999003399990032
