:020000040800F2
:10000000482200209D01000805090008DB070008C0
:10001000DF07000893040008A11D0008000000008D
:10002000000000000000000000000000F11A0008BD
:1000300059060008000000006B0200089512000835
:10004000B7010008B7010008B7010008B7010008B0
:10005000B7010008B7010008B7010008B7010008A0
:10006000B7010008B7010008B7010008B701000890
:10007000B7010008B7010008B7010008B701000880
:10008000B7010008B7010008B7010008B701000870
:10009000B7010008B7010008B7010008B701000860
:1000A000B7010008B7010008B7010008B701000850
:1000B000B7010008B7010008B7010008B701000840
:1000C000B7010008B7010008B7010008B701000830
:1000D000B7010008B7010008B7010008B701000820
:1000E000B7010008B7010008B7010008B701000810
:1000F000B7010008B7010008B7010008B701000800
:10010000B7010008B7010008B7010008B7010008EF
:10011000B7010008B7010008B7010008B7010008DF
:10012000B7010008B7010008B7010008B7010008CF
:10013000B7010008B7010008B7010008B7010008BF
:10014000B7010008B7010008B7010008B7010008AF
:10015000B7010008B7010008B7010008B70100089F
:10016000B7010008B7010008B7010008B70100088F
:10017000B7010008B7010008B7010008B70100087F
:10018000B7010008B7010008DFF80CD000F0A0F8B4
:1001900000480047191E00084822002006488047F2
:1001A00006480047FEE7FEE7FEE7FEE7FEE7FEE75C
:1001B000FEE7FEE7FEE7FEE7E11B00088901000815
:1001C00072B6704762B67047EFF3108072B6704730
:1001D00080F31088704730BF704720BF7047B0FA77
:1001E00080F0704790FAA0F0B0FA80F0704790FA73
:1001F000A0F07047EFF3098141B1F1EE101A40F819
:10020000041D20ED200A29490A6810607047B0ECEF
:10021000200A02C8E1EE101A25490A6810607047EA
:10022000EFF3108072B6704780F310887047214852
:100230004FF0FF010170002080F309881E4801681B
:1002400081F308881D48012101701D484FF080513D
:10025000016062B6FEE71A484FF0805101607047B6
:1002600017484FF080510160704772B6EFF3098074
:1002700028B1203880E8F00F0C490968086000B503
:10028000104880475DF804EB0F4810490A78027067
:10029000064807490A680260106890E8F00F2030AD
:1002A00080F309884EF0F40E62B6704760000020BB
:1002B0006800002022ED00E0300000205A000020FD
:1002C00004ED00E0C91000084F000020500000209D
:1002D000064C074D06E0E06840F0010394E8070093
:1002E00098471034AC42F6D3FFF752FFE01F0008E6
:1002F000002000087047000000B585B003200021F1
:100300008022164BCDE90132CDE9031005200346CA
:10031000134A0090134800F0A3FC03200021802220
:10032000114BCDE90132CDE90310062003460F4AF7
:1003300000900F4800F094FC0320002180220D4B18
:10034000CDE90132CDE90310072003460A4A0090A7
:100350000A4800F085FC05B000BD000088020020BE
:100360008404002081030008880400208406002003
:10037000A90300088806002084080020D103000893
:1003800000BF08E004A001F00DFD00230122194682
:10039000184600F0D7FEF5E74C4544315F544F470F
:1003A000474C450D0A00000000BF08E004A001F022
:1003B000F9FC002305221946184600F0C3FEF5E7B4
:1003C0004C4544325F544F47474C450D0A000000EE
:1003D00000BF08E004A001F0E5FC00230A22194652
:1003E000184600F0AFFEF5E74C4544335F544F47E5
:1003F000474C450D0A00000070B5064600F045F870
:1004000000F049F800F03AF804464FF47A70B4FB73
:10041000F0F5284600F052FF00F0ECF900F0F8FB90
:1004200005A001F0BFFCFFF765FF0CA001F0BAFCCE
:10043000FFF762FF70BD00004372656174696E670B
:10044000204170706C69636174696F6E20457665D8
:100450006E74732E2E2E0A0D00000000437265612B
:1004600074696E67204170706C69636174696F6E46
:10047000205461736B732E2E2E0A0D001FB5684633
:1004800001F0C2FA019804B010BD10B500F0E6F812
:1004900010BD00BFFEE710B500F0AEF800F004F8A4
:1004A00000F0A4F810BD000070B500260020184927
:1004B00008801849088018490860184908601849D8
:1004C00008601849086018490860002400BFFFF759
:1004D0007BFE064600BF00250BE0002010490860A7
:1004E00000F024F800F03CF80D4800680444681C53
:1004F00085B2002DF1D00C48046000200849086046
:100500000849086000BF3046FFF762FE00BF70BDBB
:100510001400002016000020180000201C000020FD
:1005200024000020280000202000002010B50948E9
:100530000088401C074908800748008818B900F067
:1005400085F80649086004480088401C0249088074
:1005500010BD00001400002016000020180000202C
:1005600010B50F480088401E0D49088008460088D5
:10057000A0B900F06BF80B490860084600680A490A
:100580000968441A09480068A04201D2074804607B
:1005900007480068A04201D20548046010BD000071
:1005A000160000201C00002018000020240000205D
:1005B0002800002010B5002400BF00BFFFF704FE94
:1005C000044600BFFFF7B2FF00BF1021064800F04D
:1005D00008F900BFFFF7C4FF00BF2046FFF7F8FD92
:1005E00000BF00BF10BD00008808002010B5FFF755
:1005F000E1FF10BD00BFFEE710B500200249086012
:1006000000F00AF810BD0000100000200149086049
:10061000704700001000002010B5FFF72FFF0446C0
:100620000848006840F080700649086000200649CC
:1006300048600846006840F0010008602046FFF767
:10064000E5FF10BDFCED00E0001000E00149486846
:1006500070470000001000E07047000000B587B050
:100660000121084601F0B0F90121102001F0BCF988
:1006700000208DF81A0001208DF81B0002208DF853
:1006800019008DF818000002059005A91B4800F01C
:1006900039F802208DF818004002059005A9174886
:1006A00000F030F807220A21144800F073F80722FE
:1006B0000921124800F06EF84FF4614001900020CB
:1006C000ADF80800ADF80A00ADF80C00ADF8100068
:1006D0000C20ADF80E0001A9094801F0F3FA00F072
:1006E00012F9012240F22551054801F0C6FA012114
:1006F000034801F0A9FA07B000BD00000000024065
:1007000000100140F0B50A4600210023002400BF7C
:100710003DE0012505FA01F3156805EA03049C4252
:1007200034D105684F000326BE40B54305601579F6
:100730004E00B5400668354305601579012D02D09D
:100740001579022D16D185684F000326BE40B543AA
:10075000856055794E00B5408668354385604568AB
:1007600001268E40B5434560456896798E40B6B205
:1007700035434560C5684F000326BE40B543C5609C
:10078000D5794E00B540C6683543C560491C10296F
:10079000BFD3F0BDF0B5002300244D07ED0E02FAE3
:1007A00005F3CE1000F1200555F826504E07F70E40
:1007B0000F26BE40B543CF1000F1200646F8275063
:1007C000CE1000F1200555F8265045EA0304CE105E
:1007D00000F1200545F82640F0BD00BFFEE700BF50
:1007E000FEE730B505460C4622460021284600F0BB
:1007F0005FF830BD3EB500200B4908600B4C02A8E5
:1008000001218B022246CDE90010094909A000F020
:1008100015F8BDF8080042F21071884203D000BFFD
:10082000FFF7E8FE00BF3EBD2C0000209808002026
:10083000980C002048656170000000002DE9F84F19
:1008400005460E4617461C46DDE90A894FF0000AA8
:1008500000BF00BFFFF7B8FC824600BFFFF766FE8F
:1008600000BF43463A4631462846009400F010F84F
:1008700000BFFFF775FE00BF5046FFF7A9FC00BFA1
:1008800000BF42F21070A9F80000BDE8F88F000028
:1008900030B5039C0A60651E15444D608A60034DA7
:1008A0002D68CD600B61014D296030BD2C0000200A
:1008B0002DE9F04105460B4694460027002402E04E
:1008C0003F021F43641C042CFAD3604605F0030664
:1008D000294646B1344603E001F8013B401E641C42
:1008E00008B1042CF8D30A4601E080C2001F042896
:1008F000FBD2114602E001F8013B401E0028FAD16C
:10090000BDE8F081704708B54FF4A06000F04AF8E8
:1009100025208DF8000001208DF801008DF80200DF
:100920008DF80300684600F001F808BD70B500219D
:1009300000230F22C4781CB3174C246804F4E0642D
:10094000C4F5E064C4F30721C1F10404E3B20A4131
:1009500044789C40E1B28478144021430C07210E76
:100960000E4C05786155047804F01F050124AC4055
:1009700005786D11AD0005F1E025C5F8004109E0ED
:10098000047804F01F050124AC40054D067876116B
:1009900045F8264070BD00000CED00E000E400E0EA
:1009A00080E100E002490143024A11607047000003
:1009B0000000FA050CED00E01748184818481948DF
:1009C00019481A481A481B481B481C481C481D480F
:1009D0001D481E481E481F481F48204820482148DF
:1009E00021482248224823482348244824482548AF
:1009F000254826482648274827482848284829487F
:100A000029482A482A482B482B482C482C482D484E
:100A10002D482E4800BF70476C1E0008701E00084D
:100A2000761E0008781E0008741E00087A1E000852
:100A30007C1E00087E1E0008801E0008821E000822
:100A4000841E0008861E0008881E00088A1E0008F2
:100A50008C1E00088E1E0008901E0008921E0008C2
:100A6000941E0008961E0008981E00089A1E000892
:100A70009C1E00089E1E0008A01E0008A21E000862
:100A8000A41E0008A61E0008A81E0008AA1E000832
:100A9000AC1E0008AE1E0008B01E0008B21E000802
:100AA000B41E0008B61E0008B81E0008BA1E0008D2
:100AB000BC1E0008BE1E0008C21E0008C41E00089E
:100AC000C61E0008C81E0008CA1E0008DE1E000858
:100AD00010B500F017F800F0ADFC00F0D9FC00F004
:100AE000F9FC00F077FC00F037FC00F08DFD00F021
:100AF000B7FD00F02FFD00F055FD00F01BF8FFF7EB
:100B00005BFF10BD0848802102E0491E002204C09E
:100B10000029FAD1054A064B1A601A46126822F0DB
:100B200007021A6070470000AC0C0020AC0E0020D9
:100B3000300000207047000010B500241A480078EB
:100B4000012830D1FFF76CFB04461848007820B12B
:100B500016480078401E1549087014480078F8B906
:100B600013480078E0B900F0DDFD12481249097819
:100B700050F82100114908600F48007810490978A1
:100B800088420DD00D480068C06B401C0B490968B5
:100B9000C8630C480068401C0A490860FFF760FB06
:100BA0002046FFF741FB10BD5A0000204D000020F9
:100BB0004E000020DC1400205000002068000020BF
:100BC0004F0000203400002010B50B48007890B989
:100BD00000F0A8FD0948007809490870094807494C
:100BE000097850F82100084908600846006807495C
:100BF0000860FFF71CFB10BD5A00002050000020C9
:100C00004F000020DC14002068000020600000205D
:100C100010B50024022000F059FAFFF701FB04464A
:100C200000200B4908602046FFF7FEFA642000F020
:100C30004DFAFFF7F5FA04460548006805490860D3
:100C40000120054908702046FFF7EEFA10BD0000AC
:100C50005C000020440000204C0000207047000091
:100C60002DE9F04F85B081468A4693461C46DDE962
:100C70000F78129D00200390FFF7D2FA03902348CB
:100C8000007830B10398FFF7CFFA3C2005B0BDE8FB
:100C9000F08F1F4850F8240088BB01201C4941F800
:100CA00024000398FFF7C0FA2A464146384600F070
:100CB0007DFE2B465A465146484600F05FF90490A7
:100CC0001198CDE9008002953A4620460E9B049982
:100CD00000F03EFD064636B90E48007801280CD1DA
:100CE00000F0E6FC09E0FFF79BFA039000200849BA
:100CF00041F824000398FFF797FA3046C6E7FFE76C
:100D00000398FFF791FA2820C0E700004D0000206B
:100D1000DC1400205A000020704700002DE9F0414B
:100D2000054600274A48007810B14020BDE8F08110
:100D30003F2D01D13E20F9E7FFF772FA0746FF2D5C
:100D400003D14448006890F83650434850F8254095
:100D500024B93846FFF768FA4320E7E7012C04D1AD
:100D60003846FFF761FA3D20E0E714F8380F3B49B9
:100D7000085C617888432178384A505414F838095F
:100D80001146085C30B994F83A1035480078884329
:100D900033490870E06918B12046E16900F0A7FA0C
:100DA000206A18B12046216A00F0B8FAA66A16B186
:100DB000304600F0FDFA0020206384F8340084F807
:100DC000350028480078FF2804D226480078401CC7
:100DD000244908703846FFF727FA00F087FAFFF732
:100DE0001FFA07461F48007820B11E480078401EB1
:100DF0001C490870204600F041F81B480078401E4E
:100E0000194908700020144941F82500A06930B93B
:100E100000206169886115496069086005E0D4E9CE
:100E200005014861D4E905108861114800686061D6
:100E30000F4804600FA020653846FFF7F5F90E480B
:100E40000078012801D100F033FC00206EE700009B
:100E50004D00002060000020DC1400205200002023
:100E6000510000204E0000205B0000206C0000209C
:100E7000640000203F0000005A00002070477047C7
:100E80002DE9F04106460F4614464FF0000815487C
:100E9000007818B112202070BDE8F081FFF7C0F98A
:100EA0008046FF2E03D11048006890F836600F4846
:100EB00050F826502DB94046FFF7B6F94320207070
:100EC000EAE7012D05D14046FFF7AEF94320207037
:100ED000E2E72F654046FFF7A7F90020207000BF2A
:100EE000DAE700004D00002060000020DC14002044
:100EF000704770472DE9F04707460D464FF0000A4E
:100F0000002028606860FFF78BF98246FF2F03D12D
:100F10001848006890F83670174850F827402CB9E8
:100F20005046FFF781F94320BDE8F087012C04D13A
:100F30005046FFF779F94320F6E7207C00F00100E6
:100F400020B95046FFF770F94520EDE70026D4F8A8
:100F50000C90D4F808805046FFF766F900E0761C44
:100F600058F8041B0029FAD02E60A9EB060068602F
:100F70000020D9E760000020DC14002070B5044692
:100F8000101D20F007004FF08076051F28462E60C8
:100F9000051F28462C60214E051F28462E604FF065
:100FA0001236051F28462E604FF00336051F2846CF
:100FB0002E604FF00236051F28462E607610051F62
:100FC00028462E60051F284629604FF01136051F60
:100FD00028462E604FF01036051F28462E604FF031
:100FE0000936051F28462E604FF00836051F284693
:100FF0002E604FF00736051F28462E604FF006364C
:10100000051F28462E604FF00536051F28462E6026
:101010004FF00436051F28462E6070BDB918000831
:101020002DE9F04105464FF00008FFF7F9F880463A
:10103000FF2D05D12048006890F83650012608E0C1
:101040001D48006890F83600A84201D1012600E052
:1010500000261A4850F825402CB94046FFF7E4F81E
:101060004820BDE8F081012C04D14046FFF7DCF8B0
:101070004320F6E794F838701148C05D94F83910B1
:1010800088430F49C8550846C05D30B994F83A10F6
:101090000C48007888430B49087094F8340040F0FD
:1010A000080084F834004046FFF7BEF8012E01D155
:1010B00000F0FEFA0020D4E760000020DC140020DD
:1010C00052000020510000207047000070B5054616
:1010D00000261748007800B170BD1648007800B1AE
:1010E000FAE71DB3FFF79CF806461348006890F82E
:1010F00038401248005D1049096891F8391088435A
:101100000E4908550846005D40B90B48006890F844
:101110003A100B480078884309490870064800686F
:1011200005633046FFF780F800F0C2FA00BFD3E74E
:101130004D0000204E0000206000002052000020E2
:10114000510000202DE9F04105460E4617461C4689
:101150001248007810B15520BDE8F08110480078A1
:1011600008B13220F8E74FF47A7060434FF47A7197
:10117000B0FBF1F14FF461606843C6EB061200EB7F
:101180008200384400EB4002C2EBC01001EBC00803
:101190004046FFF79BFF0020DEE700004D000020E7
:1011A0004E00002070B5002600F072F8FFF738F806
:1011B000064631480068401C2F4908603046FFF75A
:1011C00033F82E480078012853D12D48007820B1FB
:1011D000012804D0022809D103E001250BE00025F5
:1011E00009E0012501202649087004E001250020BE
:1011F0002349087000BF00BF05B970BD21480468CD
:1012000033E0FFF70DF80646206B50B3206B401E0D
:101210002063206B28BB94F8340000F0370040B105
:1012200014F8340F00F0C800207001206070343CC6
:1012300002E0002084F8350094F8340000F0080043
:1012400078B93834A0781049097808430E490870F5
:1012500020780E49085C6178084314F838190B4A65
:10126000505464693046FEF7DFFF94F836003F289B
:10127000C7D100BFC1E70000800000205A00002055
:10128000700000206C00002051000020520000205F
:101290007047000010B5FEF7C3FF0446064800780B
:1012A000401C054908702046FEF7BEFFFFF77AFF95
:1012B000FFF742FC10BD00004D00002001464A1E11
:1012C0004FF0E0235A61084A106820F07F4000BFC9
:1012D00010601A46126942F005021A611A46126934
:1012E00042F002021A61704720ED00E0704710B52D
:1012F00090F8382001F10B039B5C90F83940A34330
:1013000001F10B04A35423469B5C23B98B7A90F81C
:101310003A40A3438B720023C36110BDF0B502466F
:1013200012F8384F95785678383A0B4618680FE01F
:1013300000F10B073F5DB74300F10B0C0CF8047094
:1013400067463F5D17B9877AAF4387721B1D1868E0
:101350000028EDD1F0BD00002DE9F04150211148E9
:1013600000F048F900250DE0681C86B20D4800EB3E
:10137000051400EB06170020207067600AA0E060EB
:10138000681C85B2042DEFD3064800EB051400203D
:101390002070606004A0E060024804490860BDE875
:1013A000F08100008C1000203F0000003C00002075
:1013B00030B501464A6808682AB9CC68606028B12F
:1013C0000025456002E0106000B142608B68002596
:1013D0009D6230BD70B54FF4F071134800F00AF90A
:1013E000002411E0601C85B204EB44000E4901EBBF
:1013F000C00305EB450001EBC006002018705E60DD
:101400000AA05861601C84B2132CEBD304EB440097
:10141000054901EBC00300201870586003A0586113
:1014200008460349086070BDAC0E00203F00000074
:101430003800002000200B4908600B4908700B4958
:1014400008700B4908700B4908700B4908600B497C
:1014500008600B4908600B4908600B4908700B498C
:1014600008707047800000204D0000204E000020D2
:101470005B0000205A000020340000205C000020A7
:1014800048000020440000204C0000207C00002088
:1014900000210A4A1170002004E00021084A11547A
:1014A000411CC8B20828F8D30021064A1170064A28
:1014B0001170064A1160064A116070475100002001
:1014C000520000204F000020500000206800002043
:1014D0006000002070B54FF4F261194800F08AF8FE
:1014E0004FF48071174800F085F8002413E0601C69
:1014F000C5B204EB440000EBC400114901EBC0038A
:1015000005EB450000EBC50001EBC0065E610EA0D7
:101510001865601CC4B2152CE9D304EB440000EB41
:10152000C400074901EBC0030020586106A01865FC
:1015300000200649086002480549086070BD0000A7
:10154000DC150020DC1400203F0000006C000020AF
:101550006400002000B587B00320002180220A4BE0
:10156000CDE90132CDE903104FF6FF703F23074A62
:1015700000900748FFF774FB06AA06A13F20FFF77B
:101580007FFC07B000BD0000DC120020D814002052
:101590009118000875432F4F532D49492049646C19
:1015A0006500000000B587B00320002180220A4BAF
:1015B000CDE90132CDE903104FF6FE703E23074A14
:1015C00000900748FFF74CFB06AA06A13E20FFF754
:1015D00057FC07B000BD0000DC100020D81200202E
:1015E000D118000875432F4F532D4949205374617A
:1015F0007400000004E0002200F8012B4A1E91B2A2
:101600000029F8D17047000070B578211148FFF724
:10161000F1FF00240EE004EB44000E4901EBC0058D
:10162000601C00EB400001EBC00068600AA068612C
:10163000601C84B2042CEED304EB4400054901EB9A
:10164000C0050020686004A068610846034908607E
:1016500070BD00006C1D00203F00000074000020E1
:101660002DE9F04160211048FFF7C4FF00240DE090
:10167000601C86B204EB44000B4901EBC00506EB8D
:10168000460001EBC0072F60601C84B2032CEFD32F
:1016900004EB4400044901EBC00500202860084623
:1016A00002490860BDE8F081E41D002078000020B8
:1016B00010B50024FEF7B4FD044613480078F8B9CD
:1016C00012480078E0B900F02DF811481149097866
:1016D00050F82100104908600E4800780F49097839
:1016E00088420DD00C480068C06B401C0A4909684C
:1016F000C8630B480068401C09490860FEF7ABFD51
:101700002046FEF791FD10BD4D0000204E00002048
:10171000DC14002050000020680000204F00002052
:10172000340000200649074A1278885C0649095CA3
:10173000034A515C01EBC001044A1170704700007C
:10174000E01E000851000020520000205000002040
:101750002DE9F84F05460F4690469946DDE90AAB5C
:1017600000200090FEF75CFD009042480468002CC9
:101770007BD01C3454F8080C3E4908600098FEF7F2
:1017800053FD44F81C7CA5760020207660766061CD
:1017900044F818BC44F810AC44F8148C0C9824F8A5
:1017A0000C0C24F80A9C0020E077E810207705F064
:1017B0000700E076217F01208840A077E17E0120AC
:1017C00088406077002020606060E060A060206258
:1017D000A0626062E062206327A060631C3C002678
:1017E00006E0002104F1540040F82610701CC6B237
:1017F000002EF6D02046FFF731FAFEF711FD0090DB
:101800001E4840F825400098FEF70EFD2046FFF7E1
:1018100083FAFEF705FD009019480068606100201A
:10182000A0611748006810B1154800688461144829
:1018300004603834A07813490978084311490870C6
:1018400020781149085C6178084314F838190E4A69
:1018500050540E480078401C0C4908700098FEF760
:10186000E3FC0020BDE8F88FFFE70098FEF7DCFC02
:101870004220F7E7640000203F000000DC14002055
:101880006C00002051000020520000205B0000206E
:10189000002400BF00BFFEF7C3FC044605480068F3
:1018A000401C044908602046FEF7BEFCFFF7E7FA3B
:1018B000F1E700005C00002010B504480068FFF765
:1018C00017FBFF20FFF72AFA10BD00006000002080
:1018D00000BF00BF02E0C820FFF7F8FB1F480078F8
:1018E0000028F8D01E4800686421B0FBF1F01C49C4
:1018F00008600846006828B900201A490870FF20CF
:10190000FFF78EFBFEF78CFC044615480068642147
:101910004843154908602046FEF786FC00BFFEF7E5
:101920007FFC0446104800681049086000200E49FA
:1019300008602046FEF778FC0C48006808490968F2
:10194000B0FBF1F0C0F1640006490870FFF7D1FA6E
:1019500000F00EF86420FFF7B9FBE0E74C00002030
:1019600044000020400000205C00002048000020CF
:101970007CB5002514E069462846FFF7BBFA064609
:1019800066B9094850F8254044B1012C06D0D4E985
:10199000020100EB8100A0640198E064681CC5B2FC
:1019A0003F2DE8D97CBD0000DC14002002F00103CB
:1019B00043B102F002032BB102E0491E002308C02C
:1019C0000029FAD17047000029B1064A1268024383
:1019D000044B1A6004E0034A12688243014B1A6008
:1019E000704700003038024029B1064A12680243AD
:1019F000044B1A6004E0034A12688243014B1A60E8
:101A00007047000044380240F0B500210022002455
:101A1000022500260223324F3F6807F00C0121B156
:101A2000042905D0082937D105E02E4F076036E09C
:101A30002D4F076033E02A4F3F1F3F68C7F38056A2
:101A4000274F3F1F3F6807F03F036EB1264FB7FB9C
:101A5000F3F7DFF88CC0ACF1040CDCF800C0CCF379
:101A6000881C07FB0CF40CE01E4FB7FBF3F7DFF804
:101A700070C0ACF1040CDCF800C0CCF3881C07FB90
:101A80000CF4174F3F1F3F68C7F301477F1C7D00D1
:101A9000B4FBF5F7076002E0124F076000BF00BF1C
:101AA0000F4F3F6807F0F0010909104F7A5C076893
:101AB000D74047600A4F3F6807F4E051890A0B4F4F
:101AC0007A5C4768D7408760054F3F6807F46041FC
:101AD000490B064F7A5C4768D740C760F0BD0000ED
:101AE000083802400024F40000127A0000000020B0
:101AF000704700000CB50020019000903448006849
:101B000040F480303249086000BF3148006800F47A
:101B1000003000900198401C0190009818B901987D
:101B2000B0F5A04FF1D12A48006800F4003010B1A0
:101B30000120009001E0002000900098012846D18B
:101B400023484030006840F080502149403108600F
:101B50002048006840F440401E4908601C48083096
:101B600000681B49083108600846006840F40040DE
:101B700008600846006840F4A05008601648091F35
:101B80000860081F006840F08070091F086000BFEF
:101B90000F48006800F000700028F9D040F205708E
:101BA0000E4908600A480830006820F00300084920
:101BB000083108600846006840F00200086000BF75
:101BC00003480830006800F00C000828F8D10CBD6C
:101BD000003802400070004008544007003C0240BA
:101BE00010B51548006840F47000134908601348A8
:101BF000006840F001001149086000200F490831D9
:101C000008600E4800680E4908400C4908600D48FD
:101C1000091D0860081F006820F48020091F086063
:101C2000002006490C310860FFF764FF4FF00060A8
:101C300001498039086010BD88ED00E0003802409D
:101C4000FFFFF6FE1030002421B1828942F40052D9
:101C5000828104E082894DF6FF731A4082817047C9
:101C600002460020B1F5007F00D100BF13880B4071
:101C70000BB1012000E000207047F0B503460024BE
:101C800000260025002040F66A17B94200D100BFA7
:101C90001846C1F3421401F01F06012707FA06F5A2
:101CA000012C01D10C3004E0022C01D1103000E0F5
:101CB00014301AB107682F43076002E00768AF438A
:101CC0000760F0BD2DE9FF4705460E460024A146FA
:101CD00000BFA046B08900B100BF2C8A24F4405454
:101CE000F08804432C82AC8941F20C608443B088B4
:101CF00031890843718908430443AC81AC8A24F4D8
:101D00004074B0890443AC826846FFF77DFE2048EA
:101D1000854202D01F48854202D1DDF80C9001E0D7
:101D2000DDF80890A88900F4004040B109EBC90033
:101D300000EB091031684900B0FBF1F707E009EB4F
:101D4000C90000EB091031688900B0FBF1F764208D
:101D5000B7FBF0F004012009642101FB1078A88989
:101D600000F4004040B1322000EBC800B0FBF1F0BD
:101D700000F00700044308E0322000EB0810642163
:101D8000B0FBF1F000F00F0004432C81BDE8FF87A9
:101D90000010014000140140C1F308028280704726
:101DA00000BFFEE7014A024900F013B8F51D000824
:101DB0008400002002E008C8121F08C1002AFAD1DE
:101DC00070477047002001E001C1121F002AFBD1BB
:101DD00070472DE9F04116460F460446002503E002
:101DE0003946B047641C6D1C20780028F8D128467D
:101DF000BDE8F08170B504460D46E1B20548FFF735
:101E0000CBFF00BF80210348FFF72AFF0028F9D04D
:101E1000204670BD0010014000B587B0FEF758FEA7
:101E20000320002180220B4BCDE90132CDE90310C4
:101E300004200346084A00900848FEF711FF06AA4E
:101E400007A10420FFF71CF8FEF7BEFE002007B034
:101E500000BD00008800002084020020F903000873
:101E60005374617274205461736B000001000000B0
:101E7000785634120100140001001800E00101003E
:101E80000100100014000200050001003F000100E5
:101E900001000500010018007800010004000100A5
:101EA0000400180008000100040001000100010006
:101EB0008000010016000100010080000100010007
:101EC000010040005800E80301001B7200001000F0
:101ED000010007000A000000000000000000DE0F03
:101EE00000000100020001000300010002000100E7
:101EF00004000100020001000300010002000100D3
:101F000005000100020001000300010002000100C1
:101F100004000100020001000300010002000100B2
:101F200006000100020001000300010002000100A0
:101F30000400010002000100030001000200010092
:101F40000500010002000100030001000200010081
:101F50000400010002000100030001000200010072
:101F6000070001000200010003000100020001005F
:101F70000400010002000100030001000200010052
:101F80000500010002000100030001000200010041
:101F90000400010002000100030001000200010032
:101FA0000600010002000100030001000200010020
:101FB0000400010002000100030001000200010012
:101FC0000500010002000100030001000200010001
:101FD00004000100020001000300010002000100F2
:101FE000002000080000002088000000B41D000848
:101FF0008820000888000020C0210000C41D0008BF
:10200000000000000102030401020304060708099E
:1020100000000000000000000000000000000000C0
:1020200000000000000000000000000000000000B0
:1020300000000000000000000000000000000000A0
:102040000000000000000000000000000000000090
:102050000000000000000000000000000000000080
:102060000000000000000000000000000000000070
:102070000000000000000000000000000000000060
:08208000000000000000000058
:040000050800018965
:00000001FF
