:020000040800F2
:10000000B0A500209D010008291500086311000813
:1000100025150008E7020008A919000800000000E3
:10002000000000000000000000000000751600083D
:10003000EB020008000000002B15000871170008F3
:10004000B7010008B7010008B7010008B7010008B0
:10005000B7010008B7010008B7010008B7010008A0
:10006000B7010008B7010008B7010008B701000890
:10007000B7010008B7010008B7010008B701000880
:10008000B7010008B7010008B7010008B701000870
:10009000B7010008B7010008B7010008B701000860
:1000A000B7010008B7010008B7010008B701000850
:1000B000B7010008B7010008B7010008B701000840
:1000C000B7010008B7010008B7010008B701000830
:1000D000B7010008B7010008B7010008B701000820
:1000E000B7010008B7010008B7010008B701000810
:1000F000B7010008B7010008B7010008B701000800
:10010000B7010008B7010008B7010008B7010008EF
:10011000B7010008B7010008B7010008B7010008DF
:10012000B7010008B7010008B7010008B7010008CF
:10013000B7010008B7010008B7010008B7010008BF
:10014000B7010008B7010008B7010008B7010008AF
:10015000B7010008B7010008B7010008B70100089F
:10016000B7010008B7010008B7010008B70100088F
:10017000B7010008B7010008B7010008B70100087F
:10018000B7010008B7010008DFF80CD000F06EF8E6
:1001900000480047CD480008B0A500200648804729
:1001A00006480047FEE7FEE7FEE7FEE7FEE7FEE75C
:1001B000FEE7FEE7FEE7FEE70918000889010008F0
:1001C00010B5431A934209D28318881803E010F837
:1001D000011D03F8011D521EF9D210BD40EA0103B2
:1001E0009B0703D009E008C9121F08C0042AFAD2ED
:1001F00003E011F8013B00F8013B521EF9D210BD9B
:10020000D2B201E000F8012B491EFBD27047002258
:10021000F6E710B513460A4604461946FFF7F0FF05
:10022000204610BD30B504460020034600E05B1CAC
:10023000934203D2E05CCD5C401BF8D030BD30B5BA
:100240000B46014600202022012409E021FA02F594
:100250009D4205D303FA02F5491B04FA02F528442E
:10026000151EA2F10102F1DC30BD0000064C074D65
:1002700006E0E06840F0010394E807009847103476
:10028000AC42F6D3FFF784FFE48D0008048E00082B
:1002900070B58C1810F8015B15F0070301D110F848
:1002A000013B2A1106D110F8012B03E010F8016B75
:1002B00001F8016B5B1EF9D12B0705D40023521EF8
:1002C0000DD401F8013BFAE710F8013BCB1A921C60
:1002D00003E013F8015B01F8015B521EF9D5A1425E
:1002E000D8D3002070BD00BFFEE7704700B587B0CF
:1002F0000121084601F01AF90121102001F036F918
:1003000007220A211F4800F005FF072209211D4886
:1003100000F000FF00208DF81A0001208DF81B006E
:1003200002208DF818000002059002208DF81900B7
:1003300005A9144800F0A6FE02208DF8180040021E
:10034000059005A90F4800F09DFE4FF46140019013
:100350000020ADF80800ADF80A00ADF80C00ADF8CB
:1003600010000C20ADF80E0001A9074801F0AEFA0C
:100370000121054801F091FA4021034801F084FA77
:1003800007B000BD000002400010014001B5044963
:100390000098086000BF024800680028FBD108BD33
:1003A0004400002010B500F085F900F003FC0121A5
:1003B000002000F0F5FC00F0040028B103480068BC
:1003C00040F010000149086010BD00003C00002012
:1003D00034480068006800F00040E8B9314800681F
:1003E000006800F48070B8B12F4800688068401C35
:1003F0002D49096888602C4800688068012804D16C
:100400002848006828490968086026480068264985
:10041000096848600120704722480068006800F0C1
:100420000040F0B91F480068006800F40070C0B1D7
:100430001C480068006800F4807090B91948006892
:1004400019490968086000201749096848600120B7
:1004500015490968886013480068C0681149086038
:100460001DE010480068006800F00040B8B90D4871
:100470000068006800F4007088B90A4800680068E5
:1004800000F4807058B9084800688068401C06492C
:100490000968886003480068C06802490860002055
:1004A000B9E70000280000202C00002070B50546A8
:1004B0000121002000F074FC00F0040444B10B485A
:1004C000007828B90A4804F0ABFD012007490870FC
:1004D0005CB90648007840B101200649087004481C
:1004E00004F082FD00200149087070BD6800002002
:1004F000BC3E00204000002030B10749896941F02E
:100500000201054A916105E00349896921F0020170
:10051000014A9161704700000090024070B50C469E
:1005200013460021124D286000BF18E000EB411275
:100530004FF00045156044F2F4555560C1EBC1150C
:1005400005EB450504EB850595605D1E8D4204D9DC
:1005500000EB41152035D56000E0D060491C994280
:10056000E4D3044DE860044D044E356070BD0000D6
:100570002800002000900240F43D00202C000020C4
:1005800030B10749896941F40051054A916105E09C
:100590000349896921F40051014A916170470000C3
:1005A0000090024030B50C46134600210F4D2860E4
:1005B00000BF15E000EB41124FF480151560C1EB50
:1005C000C11505EB450504EB850595605D1E8D4263
:1005D00004D900EB41152035D56000E0D060491CFE
:1005E0009942E7D3024D286130BD0000240000206D
:1005F0000090024002680A430260704710B5012172
:10060000480600F0A3FF00214FF0007000F09EFFAD
:1006100010BD01B581B0002000900198009002E06B
:100620000098401E009000980028F9D10CBD70B5CC
:1006300006460C461F21002000F0B2FB0546C5F31C
:100640008205012D06D0022D08D0052D0CD0062DD7
:1006500016D10FE000206061206212E04FF480406C
:100660006061002020620CE0002060614FF40060B7
:10067000206206E04FF480406061C010206200E01C
:1006800000BF00BF70BD000008B500200090084802
:10069000806940F4801006498861084680690090AE
:1006A0004FF6FF70FFF7B5FF01490098886108BD5C
:1006B000009002401CB50121072000F037FF012106
:1006C000880300F053FF012000F0D6FF04200090C3
:1006D00003208DF8050002208DF8040000208DF81D
:1006E000060001208DF807006946404800F0CAFC6A
:1006F0000B2202213D4800F00DFD022000906946CA
:100700003B4800F0BFFC0B220121394800F002FDFC
:10071000022000906946354800F0B4FC0B2201210C
:10072000324800F0F7FC8020009069462F4800F026
:10073000A9FC0B2207212D4800F0ECFC10200090B2
:1007400069462B4800F09EFC0B220421284800F04B
:10075000E1FC202000906946254800F093FC0B2224
:100760000521234800F0D6FC4FF400600090694654
:10077000204800F087FC0B2211461E4800F0CAFCFE
:100780004FF48050009069461A4800F07BFC0B2221
:100790000C21184800F0BEFC4FF400500090694650
:1007A000144800F06FFC0B220D21124800F0B2FC3F
:1007B0000420009003208DF8050001208DF804002E
:1007C00000208DF806008DF807006946084800F003
:1007D00059FC0421064800F0C0FC41F28830FFF7C4
:1007E000D5FD0421024800F0BAFC1CBD0000024007
:1007F000000802400004024000200449096801F09A
:10080000010109B1012000E0002070470090024082
:100810001EB5002100220092019202920C4A126839
:100820001268C2F30D42111F00910A4A1268126841
:100830000292084A1268126892680192044A126889
:10084000D268034B1A609DE81C0080E81C001EBDA6
:10085000280000202C0000202DE9F04188B004463B
:100860000F464FF00008002500200790B94E029077
:1008700001200190B848056925F01C0503A800F087
:1008800085FE049EB548864205D3B548864202D20D
:1008900045F008051AE0B248864205D3AD488642C5
:1008A00002D245F00C0511E0AA48864203D3AD48B8
:1008B000864200D20AE0AB48864205D3AA48864267
:1008C00002D245F0040501E045F01005A24805619B
:1008D0004FF400420021384600F01CFB10B9002004
:1008E00001906AE0A148FFF794FE2068002850D0EC
:1008F00000BF0298401C02900121384600F050FAD7
:1009000000F0040018B99A4902988842F1D3984936
:100910000298884202D1002001904EE0002002900F
:100920004FF480520021384600F0F4FA08B9002054
:10093000019000BF0298401C02900121384600F04F
:100940002FFA00F0200018B9894902988842F1D3A3
:1009500087490298884202D1002001902DE00020B2
:1009600002901F21384600F01BFA804608F0100064
:1009700018B14FF40060206201E00020206208F00E
:10098000040010B10020606116E04FF48040606107
:1009900012E0206AC0F3CF006169C1F34F0140EA61
:1009A00001020021384600F0B5FA08B90020019094
:1009B0006FF07F40FFF72DFE00BF019820B94FF484
:1009C00000602062C00060616348056869480540B6
:1009D000D4E901010843E1680843216908436169DA
:1009E0000843A1690843E1690843216A0843616A31
:1009F0000843A16A0843E16A0843216B0843616B1D
:100A0000084305435448056005684FF6FF70FFF73B
:100A100000FE51480560D4E90E010843216C0843EB
:100A2000616C0843A16C0843E16C0843216D0843E5
:100A3000616D084348494860084645684FF6FF70B5
:100A4000FFF7E7FD444845604349A06D8860E06DCD
:100A5000C860084685694FF641700540B4F86010DB
:100A6000606E40EA0140A16E0843E16E0843216FC9
:100A70000843616F084305433748856185694FF630
:100A8000FF70FFF7C6FD34488561D4E91E010843B5
:100A90003149C8610846C5694FF6FF70FFF7B9FDD7
:100AA0002D48C5613448856934480540D4E92001A2
:100AB0000843D4F888100843D4F88C100843D4F8BD
:100AC00090100843D4F894100843D4F898100843C1
:100AD000D4F89C100843D4F8A010084305432648D6
:100AE000856185694FF6FF70FFF793FD22488561A8
:100AF000D4E929010843D4F8AC100843D4F8B01065
:100B00000843D4F8B41040EA8100D4F8B810084380
:100B100040F4000018490860084605684FF6FF7069
:100B2000FFF777FD14480560006840F08000124927
:100B30000860084605684FF6FF70FFF76AFD0E482B
:100B400005600198012802D108B0BDE8F0810020BD
:100B5000FAE700000087930300800240002D310176
:100B6000C00E160200E1F50580D1F008FFFF0F006E
:100B7000FFFF04000F8120FF00900240233FDEF8BA
:100B800010B50B794C7943EA0422094B03441A64EB
:100B9000CB781B068C7843EA04434C7843EA042361
:100BA0000C7843EA0402024B03445A6410BD00006F
:100BB0000080024010B501214FF0606000F0B6FCEB
:100BC000FFF71CFD00F022F900BFFFF715FE01281A
:100BD000FBD01E4800F044F901201C4908600020A9
:100BE000C8614FF4007088620020C862886348645E
:100BF000C864086548654FF4806048620020C1F809
:100C000080004FF00070C1F884000011C1F88C0022
:100C10000020C1F89400C1F898000420C1F8A00099
:100C2000C005C1F8A4004012C1F8A8008001C1F8B5
:100C3000AC004012C1F8B0004000C1F8B80000217B
:100C40000248FFF709FE0249086010BD003E00207F
:100C50003C00002008B501460020009031B10C484E
:100C6000006840F004000A4A106005E00848006887
:100C700020F00400064A10600548006800904FF616
:100C8000FF70FFF7C6FC024A0098106008BD000024
:100C90000080024008B501460020009031B10C48A8
:100CA000006840F008000A4A106005E00848006843
:100CB00020F00800064A10600548006800904FF6D2
:100CC000FF70FFF7A6FC024A0098106008BD000004
:100CD0000080024070B502460023002500242E4803
:100CE0000068006800F0004008B1002070BD2A488C
:100CF000016840F2F450824208DD92FBF0F392FB6F
:100D0000F0F600FB162010B15B1C00E00123012B64
:100D10000CD1086840F040500860C2F30C004860F5
:100D2000086840F000400860C96826E0002422E01E
:100D3000086820F0405008601CB9086840F08050F6
:100D4000086040F2F4504860581EA0420DD1086877
:100D500040F000500860581EC0EBC01000EB40008F
:100D6000A2EB8005C5F30C004860086840F0004025
:100D70000860C968641C9C42DAD3074801600748D0
:100D8000406900F0040020B10420044E706100208E
:100D900070600120AAE700002400002000900240BB
:100DA00018B502460B460021002000901548016945
:100DB00001F01C014FF4784000EAC22001434FF4D7
:100DC000F86000EA8310014321F0020141F00101C3
:100DD0000C48016100BF0098401C0090094801695F
:100DE00001F0010018B1084C0098A042F3D3064C62
:100DF0000098A04201D1002018BD0248406980B28D
:100E0000FAE7000000800240FFFF0400034800688A
:100E100040F0010001490860704700000090024066
:100E200000B50120FFF736FF0120FFF713FFFFF7A2
:100E30002BFC0120FFF7A4FB0120FFF75DFB00BDA9
:100E400000B50020FFF79CFB0020FFF755FB0020BA
:100E5000FFF700FFFFF718FC0020FFF71BFF00BDA6
:100E600001210160002141608160C16001614FF496
:100E70008041416100218161C1614FF400610162E3
:100E8000002141628162C162016341638163C16388
:100E9000402101642021416400218164C164016515
:100EA00041658165C16501668021416600218166D9
:100EB000C166016741678167C1674FF08061C0F813
:100EC00080104910C0F884100021C0F888104FF439
:100ED0000011C0F88C100021C0F89010C0F89410D8
:100EE000C0F89810C0F89C10C0F8A0104FF0007126
:100EF000C0F8A4104912C0F8A8108901C0F8AC10BD
:100F00004912C0F8B0100021C0F8B410C0F8B810F1
:100F10007047000038B503460C46002100200090C1
:100F20001448016901F01C014FF4784000EAC32025
:100F300001434FF4F86000EA8410014341F00201DC
:100F400041F001010B484261016100BF0098401C63
:100F500000900848016901F0010018B1064D0098A1
:100F6000A842F3D3044D0098A84201D1002038BD17
:100F70000120FCE700800240FFFF04007FB5064629
:100F80000020039096F83100C0F38000002861D063
:100F900036480068002847D0002003904FF4805264
:100FA00000210846FFF7B6FF00BF0398401C0390DE
:100FB00001210020FFF7F4FE00F0200018B92C49B1
:100FC00003988842F1D3002003901F21FFF7E8FE29
:100FD000044604F0100020B14FF400602349086279
:100FE00002E000202149086204F0040018B100204A
:100FF0001E49486103E04FF480401C4948611B4989
:101000000020FFF714FB1B48056818484069174982
:10101000096A08430543174805604FF6FF70FFF75C
:10102000F8FA144805680560FFF7FAFE0020029000
:10103000019000900120104908706B4601AA02A996
:101040000E4803F07BFF0D4804F00DF800200C491A
:1010500008700AE0FFF7F4FE0520074908703046E3
:1010600001F01DFE054803F09FFF7FBD003E0020FC
:10107000FFFF04000080024050000020BC3E002022
:1010800040000020F0B50A4600210023002400BFE4
:101090003DE0012505FA01F3156805EA03049C42C9
:1010A00034D105684F000326BE40B543056015796D
:1010B0004E00B5400668354305601579012D02D014
:1010C0001579022D16D185684F000326BE40B54321
:1010D000856055794E00B540866835438560456822
:1010E00001268E40B5434560456896798E40B6B27C
:1010F00035434560C5684F000326BE40B543C56013
:10110000D5794E00B540C6683543C560491C1029E5
:10111000BFD3F0BDF0B5002300244D07ED0E02FA59
:1011200005F3CE1000F1200555F826504E07F70EB6
:101130000F26BE40B543CF1000F1200646F82750D9
:10114000CE1000F1200555F8265045EA0304CE10D4
:1011500000F1200545F82640F0BD4183704701832A
:10116000704700BFFEE700001FB545480078012822
:1011700002D002287DD112E0022041490870414886
:1011800001F040FD00204049086040A000F00EFC46
:1011900044A000F00BFC49A000F008FC6EE03948C8
:1011A0004068394908600846006800282CD00320B0
:1011B00033490870334801F072FD46A000F0F6FB99
:1011C0004BA000F0F3FB30480068000E00902E4862
:1011D00001780068C0F307432B480088C0F307225A
:1011E0004AA000F0E3FB0020FF231A4619460090B6
:1011F0004BA000F0DBFB01200346A822C021009099
:101200004DA000F0D3FB37E05148006880790428F6
:1012100032DD04201A4908701A4801F040FD4D489B
:1012200003906FF07F4002904B48019001AB02AAFF
:1012300003A9144803F082FE48A000F0B7FB4DA0BC
:1012400000F0B4FB51200023A822C02100902FA061
:1012500000F0ACFB0020FF231A461946009030A096
:1012600000F0A4FB01200346A822C021009032A078
:1012700000E002E000F09AFB00E000BF00BF1FBDED
:1012800050000020BC3E0020640000200A202020E6
:1012900020204C6F6F6B696E6720666F7220202074
:1012A000200A00002020202020444843502073655D
:1012B00072766572202020200A0000002020202065
:1012C00020706C6561736520776169742E2E2E2005
:1012D0000A0000000A20204950206164647265738E
:1012E000732061737369676E6564200A00000000F3
:1012F00020202020627920612044484350207365DB
:10130000727665722020200A0000000049503A20C1
:1013100025642E25642E25642E25640A0000000015
:101320004E45544D41534B3A2025642E25642E25BD
:10133000642E25640A000000476174657761793A7C
:101340002025642E25642E25642E25640A000000C5
:1013500054000020C0A80051C0A801010A2020208C
:1013600020444843502074696D656F7574202020B7
:10137000200A0000202053746174696320495020C2
:10138000616464726573732020200A0000B587B021
:1013900003F006FB03F08EFC0020069005900490FD
:1013A00019481A49002204ABCDE90021029005AA90
:1013B00006A9174803F0B6FC154803F0EFFD1548E1
:1013C000006811280ED1124890F8310040F0040056
:1013D0000F4981F83100084603F045FE01200E490F
:1013E00008700BE00A4803F0DFFD05200A49087089
:1013F0000AA000F0DBFA0FA000F0D8FA1349044865
:1014000003F0EFFD07B000BDA1360008BD370008AE
:10141000BC3E00203C000020500000200A20204E4E
:101420006574776F726B204361626C65206973200D
:10143000200A0000202020206E6F7420636F6E6EE3
:1014400065637465642020200A0000007D0F000899
:1014500010B52948006829490968401AFA2805D3B7
:10146000254800682549086007F07CF82248006894
:1014700023490968401AB0F57A7F05D31E480068F1
:101480001F49086002F03EF81B4800681D490968C2
:10149000401AB0F57A7F02D30020FFF707F816480C
:1014A000006819490968401AB0F5FA7F13D3124849
:1014B00000681549086000F09BFD14480078032877
:1014C00009D012480078042805D010480078052873
:1014D00001D0FFF749FE084800680D490968401A25
:1014E0004EF66021884205D3034800680849086029
:1014F00000F0DAFB10BD000034000020580000208E
:101500005C00002060000020480000205000002007
:101510004C00002010B5024802F068F910BD000030
:10152000BC3E002000BFFEE77047704729B1064A65
:1015300012680243044B1A6004E0034A12688243B3
:10154000014B1A60704700003038024029B1064A4A
:1015500012680243044B1A6004E0034A1268824393
:10156000014B1A60704700001038024029B1064A4A
:1015700012680243044B1A6004E0034A1268824373
:10158000014B1A607047000044380240F0B500215A
:1015900000220024022500260223324F3F6807F074
:1015A0000C0121B1042905D0082937D105E02E4FBF
:1015B000076036E02D4F076033E02A4F3F1F3F683A
:1015C000C7F38056274F3F1F3F6807F03F036EB1B8
:1015D000264FB7FBF3F7DFF88CC0ACF1040CDCF856
:1015E00000C0CCF3881C07FB0CF40CE01E4FB7FBCB
:1015F000F3F7DFF870C0ACF1040CDCF800C0CCF3FA
:10160000881C07FB0CF4174F3F1F3F68C7F30147C7
:101610007F1C7D00B4FBF5F7076002E0124F076006
:1016200000BF00BF0F4F3F6807F0F0010909104FDE
:101630007A5C0768D74047600A4F3F6807F4E0517B
:10164000890A0B4F7A5C4768D7408760054F3F682F
:1016500007F46041490B064F7A5C4768D740C76082
:10166000F0BD0000083802400024F40000127A00A7
:101670001400002070470000014908607047000016
:10168000DC0027420CB5002001900090344800682F
:1016900040F480303249086000BF3148006800F4EF
:1016A000003000900198401C0190009818B90198F2
:1016B000B0F5A04FF1D12A48006800F4003010B115
:1016C0000120009001E0002000900098012846D100
:1016D00023484030006840F0805021494031086084
:1016E0002048006840F440401E4908601C4808300B
:1016F00000681B49083108600846006840F4004053
:1017000008600846006840F4A05008601648091FA9
:101710000860081F006840F08070091F086000BF63
:101720000F48006800F000700028F9D040F2057002
:101730000E4908600A480830006820F00300084994
:10174000083108600846006840F00200086000BFE9
:1017500003480830006800F00C000828F8D10CBDE0
:10176000003802400070004008544007003C02402E
:1017700010B500F07DF8084801680068401C064A72
:101780001060C82907D3002011460860034800688C
:1017900014300249086010BD3800002034000020D9
:1017A00030B515480068154AB0FBF2F1481EB0F19B
:1017B000807F01D301201BE0481E4FF0E0225061E2
:1017C00050170F22002807DA13071D0E0C4B00F0EC
:1017D0000F04241F1D5503E013071C0E094B1C5456
:1017E00000BF00204FF0E022906107201061002030
:1017F00008B100BFFEE730BD00000020A086010058
:1018000018ED00E000E400E010B51548006840F471
:101810007000134908601348006840F00100114946
:10182000086000200F49083108600E4800680E4922
:1018300008400C4908600D48091D0860081F006831
:1018400020F48020091F0860002006490C31086040
:10185000FFF718FF4FF0006001498039086010BDA4
:1018600088ED00E000380240FFFFF6FE1030002453
:101870000448006820B103480068401E0149086020
:10188000704700004400002001F40072B2F5007FB0
:1018900000D100BFCA430280704721B1828942F45F
:1018A0000052828104E082894DF6FF731A408281E2
:1018B000704702460020B1F5007F00D100BF1388B9
:1018C0000B400BB1012000E0002070472DE9FF47DD
:1018D00005460E460024A14600BFA046B08900B1CF
:1018E00000BF2C8A24F44054F08804432C82AC8935
:1018F00041F20C608443B088318908437189084300
:101900000443AC81AC8A24F44074B0890443AC82B3
:101910006846FFF73BFE2048854202D01F488542BB
:1019200002D1DDF80C9001E0DDF80890A88900F400
:10193000004040B109EBC90000EB091031684900D3
:10194000B0FBF1F707E009EBC90000EB09103168C3
:101950008900B0FBF1F76420B7FBF0F00401200927
:10196000642101FB1078A88900F4004040B13220C6
:1019700000EBC800B0FBF1F000F00700044308E002
:10198000322000EB08106421B0FBF1F000F00F00F2
:1019900004432C81BDE8FF87001001400014014082
:1019A000C1F308028280704700BFFEE70FB4054B09
:1019B00010B503A9044A029800F018F810BC5DF8AD
:1019C00014FB0000193800082801002002E008C8B4
:1019D000121F08C1002AFAD170477047002001E0A9
:1019E00001C1121F002AFBD1704700002DE9FF4FF3
:1019F00089B09B460446002506E025280BD05A46B0
:101A00000B999047641C6D1C20780028F5D10DB00F
:101A10002846BDE8F08F0027B8460122474900E07C
:101A2000074314F8013F203B02FA03F00842F7D1C4
:101A300020782E2819D114F8010F47F004072A281E
:101A40000ED06FF02F022078A0F1300109290CD8B8
:101A500008EB880102EB410100EB0108641CF2E78E
:101A60000A98641C50F8048B0A9020780028CED085
:101A7000642808D0692806D075281ED05A460B99CC
:101A800090476D1C58E00A994FF00A0901C90A9164
:101A9000002802DA40422D2102E0390504D52B212D
:101AA0008DF82010012103E0F90704D02021F7E789
:101AB0008A4608AE0DE00021FAE70A994FF00A09BC
:101AC00001C90A91F7E74946FEF7B9FB303106F83C
:101AD000011D0028F7D1ADEB060000F120097807C1
:101AE00001D44FF00108C84502DDA8EB090000E071
:101AF00000208046002706E008A85A46C05D0B99E2
:101B000090476D1C7F1C5745F6DB04E030205A4699
:101B10000B9990476D1CB8F10001A8F10108F5DCA4
:101B200005E016F8010B5A460B9990476D1CB9F168
:101B30000001A9F10109F4DC641C65E70928010032
:101B400070B505460E4600BF05B970BD00BF6C6A92
:101B50004CB16079082806D13068E169884202D129
:101B6000284600F06DF900BFEFE77CB5064600BFE0
:101B700006B97CBD00BF746A00BF04B9F9E700BFB5
:101B800000206082A06A401C70B1A06A1E303C2117
:101B9000B0FBF1F5B5F5803F01D34FF6FF75A58297
:101BA000A08A08B90120A082E06A401C80B1E06AE6
:101BB0001E303C21B0FBF1F5B5F5803F01D34FF667
:101BC000FF756581608908B9012060816089E081C5
:101BD000206B401C80B1206B1E303C21B0FBF1F526
:101BE000B5F5803F01D34FF6FF75A581A08908B9EF
:101BF0000120A081A08920826089A189884204DB1C
:101C0000A089002801DD00206081E07910B1206A00
:101C100001900FE0207F7F2802DCFF21019108E086
:101C2000C02803DB6FF07F41019102E04FF6FF71A6
:101C3000019100BF606A0090009848B900BFE06958
:101C400001990840009000BF009840F0807000901B
:101C50000A21204600F0CEFF6B4601AA04F11C01C8
:101C6000304603F06BF900BF83E72DE9F0410546EC
:101C70006C6A0821204600F0BDFF002204F11C011F
:101C8000284601F01BFB0746A079FF2802DAA0795D
:101C9000401CA0714FF4FA7606F2F310314690FB27
:101CA000F1F02081BDE8F08170B51848056829E0A1
:101CB0006C6A34B3607920B3A08A68B1608A401C32
:101CC00080B26082A18A884206D1284600F0FEFDDB
:101CD000284600F097FF14E0208A40B1218A481E70
:101CE0002082012903D1284601F014F809E0E08997
:101CF00038B1E189481EE081012902D1284600F06F
:101D0000E8FF2D68002DD3D170BD00009C0000209D
:101D10002DE9F05F07460D4616469A4600BF17B9F3
:101D20000020BDE8F09F00BF00BF0DB90020F8E71C
:101D300000BF4FF420724FF49A71362003F0E6F999
:101D40008146B9F1000F01D10020EAE700BF00BFD2
:101D5000032E02D16879032809D1A87920B92A482D
:101D60000068401C28490860274800682860D9F8A6
:101D700004404FF49A712046FEF749FA0120207082
:101D8000607097F83000A070286802F05DFD606018
:101D9000082E0BD0042E09D0072E07D0032E07D112
:101DA0006879052802D06879042801D17868E06054
:101DB0004FF000080BE007F12A0010F8081004F1BA
:101DC0001C0000F8081008F101001FFA80F8B8F1B3
:101DD000060FF0D30D48C4F8EC000123352204F1BE
:101DE000F001002000F0EDF98346324604F1F001E5
:101DF000584600F0F2F98346BAF1000F01D0AAF874
:101E000000B048468DE7000018010020638253634C
:101E100010B500BF00BF08480078401E0649087092
:101E20000846007830B90548006806F03BFE0020FF
:101E30000249086010BD00001401002010010020BC
:101E40002DE9FE4F0646746A0C21204600F0D2FEB2
:101E500002AB042221463046FFF75AFF054665B320
:101E6000D5F804800423322208F1F001BDF80800FF
:101E700000F0A7F90290E06902F0E6FC82465246C3
:101E800008F1F001BDF8080000F0AFF902902A4611
:101E900008F1F001BDF8080000F0CDF91148432326
:101EA000114A2946CDE900601048006806F05FFE3F
:101EB0000746284603F0E5FA01E04FF0FF37A07926
:101EC000FF2802DAA079401CA07142F2107909F2D1
:101ED000F3104FF4FA7190FBF1F020813846BDE821
:101EE000FE8F0000648D0008688D0008100100203E
:101EF0002DE9FE4F07467C6A4FF0000A0020E061A2
:101F00000621204600F076FE02AB0122214638462B
:101F1000FFF7FEFE0546002D42D06E6802233922EF
:101F200006F1F001BDF8080000F04BF902903A8D7F
:101F300006F1F001BDF8080000F070F902900323EB
:101F4000372206F1F001BDF8080000F03AF90290DE
:101F5000D0460DE0224810F8082006F1F001BDF847
:101F6000080000F03AF9029008F1010000F0FF08C3
:101F7000B8F1030FEED32A4606F1F001BDF80800D0
:101F800000F059F917484323174A2946CDE9007054
:101F90001648006806F0EBFD284603F072FA00BF11
:101FA000A079FF2802DAA079401CA071A079062848
:101FB00003DAA1790120884000E03C2000EB4001D9
:101FC000C1EBC0104FF6FF7101EAC00909F2F3102E
:101FD0004FF4FA7190FBF1F020815046BDE8FE8F7E
:101FE0000C010020648D0008688D0008100100209D
:101FF00070B50C48056812E06C6A7CB12089012834
:1020000003DD2089401E208108E02089012805D1B8
:102010002089401E2081284600F0A0FE2D68002D5A
:10202000EAD170BD9C00002070B505460E466C6A72
:102030000020206260621A48C07810B11948C06858
:10204000A0621748007918B116480069E06202E002
:10205000A06A4008E0621248407918B1114840690E
:10206000206304E0A06AC0EBC000C00820633069B0
:10207000E0610B48807938B10A49886902F0E4FBD5
:1020800020620120E07101E00020E0710448C07985
:1020900020B10449C86902F0D7FB606270BD00003E
:1020A000040100209CA0002070B50446656A0C2144
:1020B000284600F09FFD054B1A461146204602F0C7
:1020C0003DFF2046FFF714FF70BD0000648D00083F
:1020D00070B505460E466C6A0748807858B10020F6
:1020E00020810649886802F0AFFBA0613069E06199
:1020F000284600F0C7FC70BD040100209CA0002011
:1021000010B51848007828BB00BF00BF06F088FC57
:10211000154908600846006810B94FF0FF3010BD3F
:1021200011480068407A40F020000F490968487261
:1021300044220E490C48006806F0E2FA43220B499B
:102140000948006806F02CFB00220949064800688F
:1021500006F0A0FC03480078401C024908700020EB
:10216000DDE700001401002010010020648D00084C
:10217000A527000870B505466C6A04B970BD607982
:10218000042809D003DC80B103280FD107E005281B
:1021900003D00A280AD101E000BF00BF00BF002021
:1021A000A071284600F072FA08E007E000BF00BF07
:1021B0000020A0712846FFF79BFE00BF00BF00BFB4
:1021C000DCE730B500BF00BF0446451CA8B20A5585
:1021D0000446451CA8B20B5530BD10B500BF00BF6A
:1021E0000346441CA0B2CA5410BD30B500BF00BFA6
:1021F000150E0346441CA0B2CD54C2F30745034656
:10220000441CA0B2CD54C2F307250346441CA0B21F
:10221000CD540346441CA0B2CA5430BD30B500BFF3
:1022200000BF150A0346441CA0B2CD540346441C0B
:10223000A0B2CA5430BD70B504460D461646FF2202
:102240002046611C8CB22A5404E000222046611C06
:102250008CB22A54442C02D304F0030008B1442C5D
:10226000F3D304F1F00081B2304603F078F970BD89
:102270002DE9F04F8BB08146002007900690C448AE
:10228000002101604160B9F80A002C2803D2881EA1
:102290000BB0BDE8F08FD9F8040005904FF0F00ABC
:1022A000B9F80800089000BF4C460AE06089AAEB24
:1022B00000001FFA80FA61890898401A80B20890DD
:1022C000246814B160895045F0DD14B96FF0010045
:1022D000DEE755460898099060680A9022E10A985E
:1022E000405D049000274FF0FF38A81C1FFA80FBC8
:1022F000AB4501DAB81ECBE76189681C814203DD7A
:10230000691C0A98465C07E0206818B1206840689C
:10231000007800E00020064637460498342834D080
:1023200007DC78B1012811D0032819D0332866D1F1
:1023300021E035283BD0362843D03A284BD03B28E3
:102340005DD152E00020064607465CE000BF042E47
:1023500002D06FF005009BE700BF4FF0060852E087
:10236000042700BFBE4202DA6FF0050090E700BF0D
:102370004FF0070847E000BF042E02D06FF00500C1
:1023800086E700BF4FF003083DE000BF012E02D0FA
:102390006FF005007CE700BF00BFBAF1F00F02D07C
:1023A0006FF0050074E700BF4FF000082BE000BF9E
:1023B000012E02D06FF005006AE700BF4FF0010860
:1023C00021E000BF042E02D06FF0050060E700BFDF
:1023D0004FF0020817E000BF042E02D06FF0050096
:1023E00056E700BF4FF004080DE000BF042E02D0F6
:1023F0006FF005004CE700BF4FF0050803E0002731
:1024000000BF00BF00BF00BF049810B9681C85B2B0
:102410006CE0A819801CB0F5803F02DB6FF0010072
:1024200036E7A819801C85B2002F5FDD00200390DD
:1024300000BF00BF00BF564810F80800B0BB042F13
:1024400001DA384600E0042002905B4603A92046EA
:10245000029A02F0D6FF01460298814202D06FF044
:10246000010015E7042F27DD00BFF91707EB917175
:102470008910A7EB810111B16FF0050008E700BFDB
:102480000120434901F80800039802F0DDF94149B1
:1024900041F82800381FC7B20BF1040080B2019048
:1024A0000198584503DA6FF00100F1E61DE0DDF810
:1024B00004B008F10108BCE7042F04D1039802F02E
:1024C000C3F9039009E000BF012F02D06FF00500AF
:1024D000DEE600BF9DF80C00039001202C4901F8B6
:1024E00008002C49039841F8280000BF6089A842E1
:1024F00017DC6089281A85B261890998401A80B270
:1025000009900998854209DA246800BF14B96FF070
:102510000500BDE600BF60680A9002E06FF00100B0
:10252000B6E600BF3CB10998854204DA0A98405DDE
:10253000FF287FF4D4AE16480078A0B1154908688A
:102540000021134A1170012802D10121079109E0ED
:10255000022802D10121069104E0032802D10121C1
:102560000691079100BF079830B1002007904FF007
:102570006C0AEC20089097E6069830B1002006908F
:102580004FF02C0A6C2008908EE6002080E60000B8
:10259000040100209CA000202DE9FC4707467C6A2E
:1025A0000421204600F026FB01AB032221463846D9
:1025B000FFF7AEFB0546002D42D06E68022339229C
:1025C00006F1F001BDF80400FFF7FBFD01903A8D24
:1025D00006F1F001BDF80400FFF720FE019003238F
:1025E000372206F1F001BDF80400FFF7EAFD019083
:1025F0004FF000080DE0224810F8082006F1F00125
:10260000BDF80400FFF7E9FD019008F1010000F0BA
:10261000FF08B8F1030FEED32A4606F1F001BDF82A
:102620000400FFF708FE4323164A29461648009780
:10263000006806F05FFA8146284602F022FF01E0BA
:102640004FF0FF39A079FF2802DAA079401CA07171
:10265000A0790A2805DAA0794FF47A7110FB01F00D
:1026600001E042F210701FFA80FA0AF2F3104FF400
:10267000FA7190FBF1F020814846BDE8FC8700002C
:102680000C010020688D0008100100202DE9FC5F7E
:102690008046D8F824400321204600F0ABFA01AB75
:1026A000032221464046FFF733FB0646002E54D056
:1026B00075680223392205F1F001BDF80400FFF727
:1026C00080FD01904FF4107205F1F001BDF8040097
:1026D000FFF7A4FD01900423322205F1F001BDF8BB
:1026E0000400FFF76EFD0190E06902F0ADF883464B
:1026F0005A4605F1F001BDF80400FFF776FD0190A0
:102700000323372205F1F001BDF80400FFF759FD5E
:10271000019000270AE02048C25D05F1F001BDF8F4
:102720000400FFF75AFD0190781CC7B2032FF2D3C3
:10273000324605F1F001BDF80400FFF77CFD4323AC
:10274000164A31461648CDF80080006806F0D2F9E6
:102750008146304602F095FE01E04FF0FF39A07946
:10276000FF2802DAA079401CA071A0790A2805DAB6
:10277000A0794FF47A7110FB01F001E042F2107081
:102780001FFA80FA0AF2F3104FF4FA7190FBF1F09D
:1027900020814846BDE8FC9F0C010020688D0008A0
:1027A000100100202DE9F05F1646DDF828B04448FE
:1027B00047687C6AD6F804900CB1207900B97AE0B9
:1027C00000BF00BF70892C2800DA74E099F800007F
:1027D000022800D06FE000250AE007F12A00415DE1
:1027E00009F11C00405D814200D064E0681CC5B264
:1027F00097F83000A84201DD062DEED3D9F8040089
:1028000002F022F82168884200D054E02146304688
:10281000FFF72EFD00B14EE02A48407800B94AE0AB
:10282000D6F804A0284890F80480B8F1050F24D108
:102830006079012810D151463846FFF7F5FB97F82B
:10284000310000F0080018B13846FFF70EFA31E009
:102850003846FFF78AF92DE06079032805D06079C2
:10286000042802D06079052824D151463846FFF764
:10287000DBFB3846FFF779F91CE0B8F1060F0FD102
:102880006079032808D06079012805D06079042890
:1028900002D06079052803D13846FFF705FC09E02E
:1028A000B8F1020F06D16079062803D151463846A7
:1028B000FFF70EFC00BF304602F0E3FDBDE8F09FDD
:1028C000F43E0020040100209CA000202DE9FE43DE
:1028D0000646746A0CB9BDE8FE83607900B9FAE770
:1028E000A06902900020A061E06120626062206324
:1028F000E062A062A08260822082E081304600F027
:10290000D4F988B301AB072221463046FFF700FA1D
:10291000054645B36F680423362207F1F001BDF880
:102920000400FFF74EFC0190029801F08DFF8046F5
:10293000424607F1F001BDF80400FFF756FC019094
:102940002A4607F1F001BDF80400FFF774FC4323A9
:1029500002AA29460D480096006806F0CBF82846E2
:1029600002F08FFD00BF00BF094B1A4611463046EA
:1029700002F0E4FA0021204600F03CF9207918B179
:10298000FFF746FA0020207100BFA4E710010020E5
:10299000648D00082DE9FC4707467C6A0521204626
:1029A00000F028F901AB032221463846FFF7B0F9C1
:1029B0000546002D43D06E680223392206F1F0014E
:1029C000BDF80400FFF7FDFB01903A8D06F1F00120
:1029D000BDF80400FFF722FC01900323372206F123
:1029E000F001BDF80400FFF7ECFB01904FF0000888
:1029F0000DE0224810F8082006F1F001BDF80400AF
:102A0000FFF7EBFB019008F1010000F0FF08B8F1BF
:102A1000030FEED32A4606F1F001BDF80400FFF7DC
:102A20000AFC432304F11802294615480097006860
:102A300006F060F88146284602F023FD01E04FF0E1
:102A4000FF39A079FF2802DAA079401CA071A07993
:102A50000A2805DAA0794FF4FA6110FB01F001E0D1
:102A600044F620601FFA80FA0AF2F3104FF4FA716C
:102A700090FBF1F020814846BDE8FC870C01002066
:102A8000100100202DE9FE4F074600BF1FB96FF06F
:102A90000F00BDE8FE8F00BF7C6A00BF14B96FF065
:102AA0000500F6E700BF0121204600F0A3F802ABC5
:102AB000032221463846FFF72BF90646002E6FD039
:102AC00075680223392205F1F001BDF80800FFF70F
:102AD00078FB02903A8D05F1F001BDF80800FFF790
:102AE0009DFB02900423322205F1F001BDF808009D
:102AF000FFF767FB0290E06901F0A6FE83465A46A5
:102B000005F1F001BDF80800FFF76FFB0290042308
:102B1000362205F1F001BDF80800FFF752FB0290E4
:102B2000A06901F091FE83465A4605F1F001BDF817
:102B30000800FFF75AFB02900323372205F1F0014A
:102B4000BDF80800FFF73DFB02904FF000080DE0D4
:102B5000244810F8082005F1F001BDF80800FFF73F
:102B60003CFB029008F1010000F0FF08B8F1030FF0
:102B7000EED3324605F1F001BDF80800FFF75BFB2C
:102B800019484323194A3146CDE9007018480068B6
:102B900005F0EDFF8146304602F073FC02E0FFE7EE
:102BA0004FF0FF39A079FF2802DAA079401CA0710C
:102BB000A079062803DAA1790120884000E03C20B2
:102BC00000EB4001C1EBC0104FF6FF7101EAC00AF3
:102BD0000AF2F3104FF4FA7190FBF1F020814846AD
:102BE00057E700000C010020648D0008688D000884
:102BF0001001002042798A4203D041710022827183
:102C00000281704770B5044600BF14B96FF00F0021
:102C100070BD00BF00BF94F8310000F0010010B992
:102C20006FF00F00F4E700BF656A208DB0F5107FEC
:102C300002DA4FF0FF30EBE74DB9342001F00AFF24
:102C4000054615B94FF0FF30E2E7656203E02879E9
:102C500008B1FFF7DDF834212846FDF7D8FAFFF771
:102C60004FFA10B14FF0FF30D2E70120287194F8ED
:102C70003100C0F3800028B902212846FFF7BAFFCF
:102C80000020C5E72046FFF733F906462EB120465F
:102C9000FFF71CFE4FF0FF30BAE73046B8E710B53B
:102CA00004462046FFF712FE10BD014679B1486A7E
:102CB00068B14A6A50790A2805D05079052802D0AF
:102CC0005079042801D1012070470020FCE7002042
:102CD000FAE770B505466C6A6079012805D060791D
:102CE0000A2802D06079052813D12846FFF752FE42
:102CF000A189628A881A00EBD0710122B2EB610FC0
:102D000007DCA189628A881A00EBD071C1F34F01F8
:102D1000E18170BD70B505466C6A6079012808D004
:102D200060790A2805D06079052802D060790428E6
:102D300013D12846FFF730FCA18A628A881A00EB7B
:102D4000D0710122B2EB610F07DCA18A628A881A76
:102D500000EBD071C1F34F01218270BD70B5054603
:102D60006C6A60790C2802D06079062803D1284665
:102D7000FFF7BEF82BE0607901280DD1A079052876
:102D800003DC2846FFF77EFE21E02846FFF79EFD84
:102D90002846FFF737FF1AE0607908280AD1A079A2
:102DA000012803DC2846FEF760FF10E02846FEF706
:102DB000DCFE0CE06079032809D1A079022803DA4F
:102DC0002846FFF763FC02E02846FFF791F870BD44
:102DD0000A4600BF00BF114683681B680B6083680A
:102DE0001960704702469068016831B108689368BD
:102DF000186000BF00BF084670470020FCE70000D5
:102E000070B50546002411E004EB4400094901EBCC
:102E1000C000067D4EB104EB440001EBC0008068A9
:102E2000A84202D1204600F0C3F8641C0A2CEBDB58
:102E300070BD0000BCA000202DE9FE4F054688466D
:102E400016464FF00A09CA460A270024BB4600204E
:102E500002900190009000BF64E004EB4400534AEC
:102E600002EBC000017D0A2F02D109B9274657E0C5
:102E7000002955D000BF00BFA5B104EB44024B4B65
:102E800003EBC2022868526890420BD13EB104EBBA
:102E900044001A4602EBC0008068B04202D12046CE
:102EA000BDE8FE8F012928D104EB44003F4A52F8C7
:102EB000300080B104EB440002EBC000428A02986B
:102EC00082422DDBA34604EB4400384A02EBC000EB
:102ED000408A029024E004EB4400344A02EBC00034
:102EE000428A019882421BDBA14604EB44002F4A30
:102EF00002EBC000408A019012E0022910DB04EBD3
:102F000044002A4A02EBC000428A0098824207DB52
:102F1000A24604EB4400254A02EBC000408A009020
:102F2000601C04B20A2C98DB08F0020020B90A2FBA
:102F300005D108F0010010B94FF0FF30B0E70A2FBB
:102F400001DA3C4617E0BAF10A0F02DA544600BF34
:102F50000CE0B9F10A0F01DA4C4607E0BBF10A0FA9
:102F600001DA5C4602E04FF0FF3099E700BF00BF96
:102F7000204600F01DF800BF00BF00BF00BF35B104
:102F800004EB4401094A02EBC101286848600020B3
:102F900004EB4401054A02EBC101488204EB440002
:102FA000114601EBC0008660204679E7BCA00020F6
:102FB00010B5044604EB44000C4951F8300060B1F0
:102FC00004EB4401094A52F8310002F05AFA002099
:102FD00004EB4401054A42F83100002004EB4401AF
:102FE000024A02EBC101087510BD0000BCA0002020
:102FF000F0B587B007460D4600BF0DB907B0F0BD6C
:1030000000BF7C682088B0F5807F08D12079062831
:1030100005D16079042802D16088082803D0384699
:1030200002F02FFAEAE7D4F80E000690A0690590A6
:10303000686808B9002607E005986968884201D1E8
:10304000012000E0002006460EB1012000E0022031
:10305000034604F1080206A9284600F0C1FAE088F8
:10306000B0F5807F03D0B0F5007F19D113E086B1B1
:10307000022206AB04F10800291DCDE90232CDE998
:10308000001005F12A0302462631284600F0CAF94D
:1030900000E000BF05E006A92846FEF751FD00E06C
:1030A00000BF00BF384602F0ECF900BFA6E7000001
:1030B0002DE9FE43044689461546A84600BF00BFD9
:1030C00000BF00BF00BF00BF2146286800F0F9FC28
:1030D00008B1494F85E0287800F0F000E02815D1CC
:1030E00001208DF8040000208DF805005E208DF889
:1030F0000600687800F07F008DF80700A8788DF84A
:103100000800E8788DF8090001AF69E02868A16837
:103110000840D4E90112114088420ED0288880B2BC
:103120004FF6A961884208D0E06810B104F10C089C
:1031300003E06FF00300BDE8FE833048007800EB49
:1031400040002F4901EBC000007D02281BDB2B480B
:10315000007800EB400001EBC0008068A04212D173
:103160002649097801EB4101254A02EBC101D8F853
:1031700000004968884206D1204802784946204626
:1031800000F040F8D7E7002622E006EB46001C4995
:1031900001EBC000007D022818DB06EB460001EBC6
:1031A000C0008068A04211D106EB4601144A02EB30
:1031B000C101D8F800004968884207D10F4806705D
:1031C00032464946204600F01DF8B4E7701CC6B2EE
:1031D0000A2EDADB4A464146204600F06FF8AAE79D
:1031E00000BF4FF400603B4604F12A0249460090BC
:1031F000204600F0B7FA9EE7788C00081C010020FA
:10320000BCA00020F8B505460E46144600BF00BF1E
:1032100004EB4400284901EBC000007D022839D1AD
:1032200004EB440001EBC000408AB0F58E7F11DD55
:1032300004EB44000A4602EBC000011D284600F0E2
:103240003FF938BB032004EB44011B4A02EBC101E8
:1032500008751FE004EB4400174901EBC000408AE9
:10326000B0F5877F16DB04EB44000B4603EBC00090
:1032700000F10C0204EB440003EBC000011D2846E2
:1032800000F02AF930B9032004EB44010A4A02EBAA
:10329000C10108754FF40060009004EB440006493A
:1032A00001EBC00000F10C0305F12A02314628466B
:1032B00000F058FAF8BD0000BCA000202DE9FE4F38
:1032C00080460D46164608F12A0A4FF0FF3002905C
:1032D000002001904146286800F0F3FB38B92878B7
:1032E00000F0F000E02802D00DB1286818B96FF0A6
:1032F0000F00BDE8FE8F424601212846FFF79CFDE6
:103300008146B9F1000F02DA4FFA89F0F1E700BF08
:1033100000BF09F0FF0404EB4400404901EBC0008A
:10332000007D70B90120019004EB44013B4A02EB9F
:10333000C101087504EB4400114601EBC000C0F860
:10334000088000BF00BF019800B93EB92946404639
:1033500000F0B6F802900EB90298CAE700BF00BFAD
:1033600004EB44002D4901EBC000007D022811DB75
:103370002B4804704FF40060009004EB440001EB14
:10338000C00000F10C0352463146404600F0EAF915
:10339000029041E004EB4400204901EBC000007DB5
:1033A000012839D14FF0000B374609E000BF00BFBC
:1033B000387B00F0400010B14FF0010B02E03F6895
:1033C000002FF3D100BFBBF1000F07D032464FF4FE
:1033D00020710E2001F0A3FF074603E03746384670
:1033E00002F0FDF8A7B104EB44000C4951F830009D
:1033F00030B104EB4401094A52F8310002F041F8BF
:1034000004EB4400054941F830700020029002E0CE
:103410004FF0FF30029000BF02986AE7BCA0002086
:103420001C0100202DE9FC5F81460E461746984698
:10343000DDE90CAB0020019000BF00BF4FF420720B
:103440001C210E2001F062FE05461DB94FF0FF3031
:10345000BDE8FC9F00BF00BF6C680F9801F001FA47
:10346000E08000BF00BFD8F80000A060B8F80400FA
:10347000A081DBF80000C4F81200BBF80400E08271
:10348000DAF80000C4F80E000E980068A0614FF44E
:1034900080702080082060800620207104206071E8
:1034A00040F606003B46324629460090484600F06A
:1034B00059F9284601F0E5FF00250198C8E700000A
:1034C00070B504460D46034A2946204600F004F82C
:1034D00070BD0000788C00087FB504460D46164686
:1034E0000121074A201D04F12A038DE825000391DC
:1034F000324619462046FFF795FF04B070BD000024
:103500007E8C000870B5002464E004EB440033496D
:1035100001EBC000057D002D5BD004EB440001EB06
:10352000C000408A401C04EB44012C4A02EBC1015C
:10353000488204EB4400114601EBC000408AB0F51C
:10354000967F0DDA04EB440001EBC000007D0128FA
:103550000AD104EB440001EBC000408A052803DBDC
:103560002046FFF725FD34E004EB44001B4901EB46
:10357000C000007D032807D1042004EB4401174A52
:1035800002EBC101087524E004EB4400134901EB90
:10359000C000007D042807D1022004EB44010F4A3B
:1035A00002EBC101087514E004EB44000B4901EB88
:1035B000C000007D01280CD104EB44020B4603EB54
:1035C000C202111D04EB440203EBC2029068FFF734
:1035D00077FF641C0A2C98DB70BD0000BCA00020A3
:1035E0002DE9F84306460D461746984600BF00BF32
:1035F0005DB1286848B13146286800F062FA20B908
:10360000287800F0F000E02803D16FF00F00BDE84B
:10361000F883324641462846FFF70EFC0446002C4C
:1036200001DA60B2F3E7022004EB44011B4A02EB2B
:10363000C101087504EB4400114601EBC00086602F
:1036400004EB440001EBC0003968C160B988018215
:10365000002004EB440102EBC101488204EB44006A
:10366000114651F83000B0B104EB440051F83090ED
:10367000002004EB440142F831004FF400603B4667
:1036800006F12A0249460090304600F06BF84846A1
:1036900001F0F7FE00BF0020B9E70000BCA0002049
:1036A0002DE9F04104460E464FF00E0860890E28C1
:1036B00000DC4FE0E07B18B996F83400401CE07362
:1036C0006568AF89287800F00100B0B1287801283A
:1036D00009D1687888B9A8785E280ED1607B40F05F
:1036E0001000607309E006221D492846FCF79AFD88
:1036F00018B9607B40F008006073082F03D0B7F55D
:10370000C16F22D110E096F8310000F0080000B936
:1037100020E04146204601F06BFF00B11AE031463F
:10372000204600F0E1FA11E096F8310000F00800C0
:1037300000B90FE04146204601F05AFF00B109E010
:1037400031462046FFF754FC00E003E000BF0020B4
:10375000BDE8F081204601F094FE0020F8E700006B
:10376000788C00082DE9F04706460D461746984626
:10377000DDF82090484601F074F882460E21284674
:1037800001F08AFC00B115E06C68A4F80CA0D8F830
:1037900000002060B8F80400A0803868C4F8060073
:1037A000B888608100BF00BF29463046B2699047A3
:1037B000BDE8F0876FF00100FAE7000010B504469D
:1037C00000BF00BF652084F832006E213320015510
:1037D000044860610448A061204600F013FF002007
:1037E00010BD0000B13000086947000870B50446FC
:1037F000204600F047FF064616B94FF0FF3070BD77
:103800002146304622699047054615B1304601F001
:1038100038FE2846F3E7000070B504460D46E1B2D5
:103820000548FEF7BDF800BF80210348FEF741F8C8
:103830000028F9D0204670BD0010014070B5054643
:103840000C4622460321284600F0CCF870BD00004B
:103850002DE9FF5F05468A4661488068039003981A
:1038600000780007860E142E00DAAFE0688904287D
:1038700000D2ABE06868047814B1082C7ED100E077
:103880009FE0DFF85C9109F114095548007D00F0D4
:10389000F000E02800D19DE0514A1168506900F025
:1038A00010F900B196E02889082800D28EE0284659
:1038B00000F0DCF820B1284601F0E3FDBDE8FF9FF1
:1038C00006F10E01284601F0E7FB90B32889304449
:1038D0001FFA80FB2889584500DD7BE04FF42072F9
:1038E00059460E2001F012FC074607B972E07989AB
:1038F00006F10800814203D2384601F0C2FD69E0BA
:10390000324678680399FCF75BFC3146384601F093
:103910006FFE28B100BF00BF384601F0B2FD59E08C
:103920002946384601F013FD20B1384601F0A9FDC3
:1039300050E004E0284601F0A4FD3D4608E006F111
:103940000E01284601F054FE10B100BF00BF41E057
:10395000D5F804803146284601F09EFBF0B96F6827
:10396000D9F80000F8601E4800693861002088F826
:103970000000A8F80200FF20387200E00FE00020ED
:10398000788101200021FF230A46CDE9010A009138
:103990004946284600F0A6FA834600BF11E0032CF2
:1039A0000ED00B2C0CD00C2C0AD0042C08D0052CDB
:1039B00006D00D2C04D00E2C02D0112C00D000BF4C
:1039C00000BF00BF284601F05CFD77E7284601F004
:1039D00058FD73E7284601F054FD00BF6EE7000074
:1039E000F43E00202DE9FF470746884691464FF4F4
:1039F00020722421222001F089FB05460DB9BDE883
:103A0000FF8700BF00BFD7F804A06C6884F800806F
:103A100084F801900020A080E08079686A6802F153
:103A200008001C22FCF7CCFBDAF80C00039003A87A
:103A300000F0E2FB06465EB100206080012000211C
:103A4000FF2303AACDE901060091284600F04AFAB7
:103A5000284601F016FD00BFD1E770B505460C46BB
:103A600022460B212846FFF7BDFF70BDF0B5064684
:103A700000270024354619E06989686800F0F7FEE0
:103A80000444A0B200EB1444688900EBD0714910E3
:103A9000A0EB410149B10FB9012000E00020074629
:103AA000E0B2C4F3072141EA00242D68002DE3D1E0
:103AB00027B1E0B2C4F3072141EA0024E04380B219
:103AC000F0BD18B502460092D04300B10AB90120FA
:103AD00018BD91F8310000F0020008B90020F7E7A6
:103AE0004868904201D10020F2E700988B681840A6
:103AF000D1E901342340984208D1886822EA0000C5
:103B00008C68E343984201D10120E1E70020DFE720
:103B10002DE9F74F8CB004460F464FF00008398D61
:103B2000A1F11400C11700EB5171C1F3CF0A1420A9
:103B3000059060680990DDF8249099F8000000F085
:103B40000F001421B1EB800F04D06FF005000FB00F
:103B5000BDE8F08F00BF6089142802DA6FF005001D
:103B6000F5E700BFB9F8060000F07BFE049004986A
:103B7000C0F30C000790049800F4005003902089D3
:103B800014381FFA80FBA4E04FF6FF7000EACA0069
:103B9000584501DD584603E04FF6FF7000EACA00C1
:103BA00008904FF4207214210E2001F0AFFA054660
:103BB00005B994E000BF00BF142268680999FCF7BA
:103BC000FFFAD5F8049008980A9047E061890598B3
:103BD000081A80B2029000BF00BF02990A9888427A
:103BE00001DA0A9800E002988046B8F1000F03D18C
:103BF00000200590246831E000F048FB06461EB91D
:103C0000284601F03EFC6AE06168059808443346A6
:103C100041224146CDE90008002001F027FB0B902E
:103C20000B9830B9304600F036FB284601F029FCED
:103C300055E0204601F0D3FC74612A4830612846E3
:103C40000B9901F03CFB0A98A0EB080080B20A90A7
:103C50000A9810B100200590246800BF0A98002837
:103C6000B4D10598404480B20590388D1438584539
:103C700001DB012000E0002006900798C0F30C0053
:103C80000490069808B1039818B1049840F40050C5
:103C90000490049800F0E5FDA9F806000899143195
:103CA00088B200F0DEFDA9F802000020A9F80A00A1
:103CB0007B69294638460E9A9847284601F0E1FB71
:103CC0000898ABEB00001FFA80FB0798504480B2C5
:103CD0000790BBF1000F7FF457AF002037E74FF09C
:103CE000FF3034E7E54500082DE9F04707460E466A
:103CF0004FF0010A7D6828780421B1EB201F05D020
:103D0000384601F0BEFB0020BDE8F08728780007A8
:103D10004FEA9068688800F0A4FD814639894945DA
:103D200003DD4946384601F01AFC7889404505DB39
:103D30003889484502DBB8F1140F04DA384601F03F
:103D4000A0FB0020E0E7286957494861E86808615E
:103D50000846007D00F0F000E0280AD196F8310016
:103D600000F0010018B1706808B134461CE000246E
:103D70001AE0304600F09CF808B1344614E0002404
:103D80004948007D7F280FD04848046809E0B442C4
:103D900000D105E0204600F08BF800B103E000BF41
:103DA0002468002CF3D100BF64B9687A112809D1C6
:103DB00005EB08004188B1F5884F02D134464FF039
:103DC000000A00BFBAF1000F13D03748006980B174
:103DD000354908693146FFF774FE28B93248007C3E
:103DE00000F0F000E02804D1384601F04AFB002042
:103DF0008AE724B9384601F044FB002084E7E888CC
:103E00004FF63F71084038B1384600F0F1F80746E8
:103E10000FB9002078E77D6823480460466085601C
:103E200028780007800E204988814146384601F0F5
:103E3000DFFB687A01280DD0062806D011280ED1A4
:103E40003146384604F0EAFC22E03146384602F0BA
:103E50008FF81DE031463846FFF7FAFC18E01249AA
:103E600048692146FFF72DFE70B90F48007D00F02C
:103E7000F000E02808D00FFA88F1384601F046FB40
:103E800002213846FFF7DAFC384601F0FAFA00BFA3
:103E900000BF00200449086048608860888108618C
:103EA000486100BF30E70000F43E00209C00002085
:103EB00010B5044694F8310000F0010070B160685C
:103EC00060B1074840696168884205D00449486983
:103ED0002146FFF7F6FD08B1012010BD0020FCE7E8
:103EE000F43E00202DE9FE4F07460C461546984645
:103EF000DDE90C9A0E9EA34625B10CB1206808B9E5
:103F000006F1040B43462A4659463846CDE9009A45
:103F1000029600F003F8BDE8FE8F00002DE9F84F8F
:103F200005460F4690469A46DDF828B00C9E00BF25
:103F300000BFB8F1000F3AD04FF014091421284601
:103F400001F0AAF818B16FF00100BDE8F88F6C68B5
:103F500000BF00BF84F808A00B986072D8F800007A
:103F6000206148464FEAE97109EB9171C1F387017D
:103F700041F04001217084F801B0288900F071FC03
:103F800060800020E0801848008800F06AFCA08073
:103F900015480088401C144908801FB91348006860
:103FA000E06001E03868E0600020608109E0688935
:103FB000142802DA6FF00100C7E76C6820690090EE
:103FC000E846308D48B12889318D884205DD42466A
:103FD00031462846FFF79CFDB7E742462946304662
:103FE00073699847B1E700001E010020648D000846
:103FF0002DE9F14F84B004984568287800F00F004F
:104000001421B1EB800F00D0EDE0E88800F029FC2E
:10401000C0F30C004FF6FF7101EAC00A688800F097
:1040200020FC074628780007810E02910299B942C8
:1040300000DDD8E00298381A87B2049801F066F9DA
:1040400006466B48018888190A280ADD3146284649
:1040500000F084FA20B16648008830440A2800DD68
:10406000C1E06448046811E06069E968884209D1E8
:10407000A0692969884205D1A089A988884201D10F
:10408000012000E0002000B102E02468002CEBD108
:1040900000BF34B93146284600F0E6F9044694B929
:1040A000A1E0E88800F0DDFBC0F30C0058B9E0891E
:1040B00000F0D7FBC0F30C0028B11422294604F10C
:1040C0000800FCF77DF8E888012121EA50100190F2
:1040D000019850B10AEB070188B2504503DB4FF657
:1040E000EB71884200DD73E000BF2046019A04991D
:1040F00000F0DAF883460BF1010000B968E03C48B3
:10410000008830443A490880019840B10AEB070121
:1041100088B2A083A17F41F00101A17700BFBBF16C
:10412000010F53D1A08B143080B2009060684068BA
:10413000D0F8009060684568142204F10801284610
:10414000FCF73EF8009800F08CFB68800020E880C7
:104150006881606804900DE0D9F804000390142190
:10416000484601F045FA4946049801F0A8F803983A
:10417000D0F80090B9F1000FEED11E4800688442DB
:1041800002D14FF000080EE01A48D0F8008006E097
:10419000D8F80000A04200D104E0D8F80080B8F1BF
:1041A000000FF5D100BF4146204600F047F90498C2
:1041B00001F0ACF8064600BF00BF0D480088801B28
:1041C0000B490880049805B0BDE8F08F0020FAE79D
:1041D00000BF00BF606828B900BF00BF00212046B3
:1041E00000F02CF900BF049801F04BF90020EAE739
:1041F000240100202001002010B50246214801685A
:1042000021E091F8310000F00100D8B191F83100BF
:10421000C0F38000B0B14868A0B110688B68184046
:10422000D1E901342340984201D1084610BD91F8EC
:10423000310000F0020028B91068CB68984201D123
:104240000846F3E709680029DBD10F480068A0B1F0
:104250000D48006890F8310000F0010068B10A488C
:10426000006890F83100C0F3800030B10648006863
:10427000406810B110787F2801D10020D6E70248AD
:104280000068D3E79C000020A000002010B50520A6
:1042900000F036FD10BD10B5044600BF00BF21463A
:1042A000052000F0F3FC10BD2DE9F74F84B0074660
:1042B0008846002501200190D8F804000290029958
:1042C000488800F0CEFA8346029800780007800EF6
:1042D00003900398584503DD681E07B0BDE8F08FD2
:1042E0000398ABEB00001FFA80FB0299C88800F02E
:1042F000B8FAC0F30C004FF6FF7101EAC00A00BF24
:1043000000BFD8F8044000202060A4F804A00AEB05
:104310000B00E080E088504502DA4FF0FF30DCE728
:10432000D7F804903EE0D9F80460A088B1888842AC
:1043300020DAC4F800909DB1A088E988884203DBA8
:10434000E088B188884202DD4FF0FF30C5E7C5F84C
:104350000080E888A18888420BD00020019008E006
:10436000E088B188884202DD4FF0FF30B5E7C7F83A
:1043700004801AE0A088B188884202D14FF0FF3053
:10438000ABE7A088F188884202DA4FF0FF30A4E75B
:104390002DB1E888B188884201D000200190D6F87C
:1043A00000903546B9F1000FBDD100BFB9F1000F43
:1043B0000FD155B100BF00BFC5F80080E888A188C3
:1043C000884206D00020019003E000BF00BFC7F87C
:1043D0000480069818B9B87F00F0010060B3019816
:1043E00020B3786818B178684068808810B10020E0
:1043F00001901BE02546D4F800900BE0D9F804406A
:10440000E888A188884202D00020019005E0254676
:10441000D4F80090B9F1000FF0D100BF019828B195
:1044200000BF00BF00BF00BF00BF00BF019808B1C0
:10443000012052E7002050E700204EE770B5044607
:104440000D4608480068A04203D10649206808606C
:1044500003E000BF00BF206828602146042000F070
:1044600015FC70BD2001002070B505460E460420E5
:1044700000F046FC044664B93146284600F06EF868
:10448000B04203DB042000F03BFC04460CB90020E2
:1044900070BD20212046FBF7BAFE0F20E0770648CA
:1044A00000682060044804601422294604F10800D2
:1044B000FBF786FE2046EBE7200100202DE9F047C0
:1044C00004468946002600BF00BFB9F1000F01D0A5
:1044D00000BF00BF6068D0F80480B8F80400C0B91D
:1044E0006568D8F800006060142204F1080168686B
:1044F000FBF766FE01212846FFF7AFFA284600F0D9
:1045000005FF074600BF00BFF01986B2284600F03D
:10451000B8FF656810E0D5F80480AA46D8F80050C6
:10452000504600F0F3FE074600BF00BFF01986B208
:10453000504600F0A6FF00BF002DECD149462046B2
:10454000FFF77CFF00BF00BF03480088801B0249C3
:1045500008803046BDE8F087240100202DE9F84F9F
:1045600005468946002700BF0026B246002000907D
:1045700083461B48046821E06069E968884207D1E6
:10458000A0692969884203D1A089A988884201D0FD
:10459000012000E0002068B10BF1010B1EB9264696
:1045A000CDF800A006E0E07FF17F884202DC2646DD
:1045B000CDF800A0206800B1A2462468002CDBD111
:1045C0002EB130460099FFF779FF804647444F45AA
:1045D00002DABBF1010FC7DC3846BDE8F88F0000F6
:1045E0002001002070B505462C4600BF00BF00BF6B
:1045F00000BF606910B1606900F043FF2046FFF71B
:104600004AFE70BD70B50446062084F830000220D2
:1046100084F82A0000212B2001552C2001552D2043
:1046200001552E2001552F20015504F12A010020AB
:10463000FCF7A6FA40F2DC5020850A2084F831000D
:1046400005220C490C48FBF7ADFF05220B490C482D
:10465000FBF764FF002507E0074901EB45104FF425
:104660004001FBF7C7FF6D1C052DF5DBFCF7D8FB00
:1046700070BD000030200020CC0100206C02002022
:104680002C0100202DE9F04F87B00024A14600271F
:10469000A3466846FCF7BCF89DE8070003AB07C3D8
:1046A00003980690DDF810A0069881B24FF4C1720D
:1046B000002000F02BFD8046B8F1000F2ED0059EA3
:1046C00000BF454628E06F894FF0000915E040F231
:1046D000F4531A1B0AEB04016B6803EB0900FBF7A8
:1046E0006FFDF668D6F808A040F2F450001B3F1AA0
:1046F00040F2F450001B81440024381940F2F45178
:104700008842E4D80AEB04016A6802EB09003A46E1
:10471000FBF756FD3C442D68002DD4D1059E4FF08B
:10472000000B05E04FF000403060F6680BF1010B24
:104730000B48006880685845F4D80020084909688B
:1047400088600848406900F0800020B18020054959
:10475000486100208860404607B0BDE8F08F000047
:104760002C000020009002402DE9F84F8B46344881
:104770000068806800904FF0000900240026A246DF
:104780002F48D0F8008000BF5D4644E0D8F8000014
:1047900000F0004010B16FF0010743E06E894FF068
:1047A000000A25E040F2F4531A1B6B6803EB0A0180
:1047B000009B1819FBF704FDD8F80C80D8F800000E
:1047C00000F0004010B16FF007072BE0D8F80800A8
:1047D000009040F2F450001B361A40F2F450001BD7
:1047E000824440F2F450001B48441FFA80F9002430
:1047F000301940F2F4518842D4D86A6802EB0A01B9
:10480000009A10193246FBF7DBFC344409EB060032
:104810001FFA80F92D68002DB8D14846FCF75AFAE6
:10482000002700BF0748406900F0200020B1202089
:1048300004494861002048603846BDE8F88F000010
:1048400024000020009002400146080601F47F4247
:1048500040EA022001F47F0240EA122040EA11609F
:10486000704701460806000C40EA11207047F8B571
:1048700005460A462B4600200090002103F0010661
:1048800036B1002A04DD13F8010B8DF80100521E29
:104890001C4603E034F8027B3944921E012AF9DCFD
:1048A000002A02DD20788DF80000BDF800000144E8
:1048B00088B200EB114188B200EB114126B1C8B2B9
:1048C000C1F3072747EA002188B2F8BDFBF70EFDC8
:1048D000FCF766FFFBF766FDFCF758FD06A0FDF749
:1048E00065F808E0FBF774FD08B1FCF713FE00F073
:1048F000F7FEFCF7ADFDF5E7496E697420425350B1
:1049000020537563636573732C2053797374656DDD
:10491000206973207374617274210D0A0000000015
:1049200070B5054605B970BD05F0030020B100BFA4
:1049300000BF00BF00BFF6E7A5F1080415480068F6
:10494000844205D305F10C0013490968884204D953
:1049500000BF00BF00BF00BFE5E7207920B900BF5E
:1049600000BF00BF00BFDEE7204600F047F820B9D7
:1049700000BF00BF00BF00BFD5E70020207107487F
:104980000068844201D205480460204600F052FECF
:1049900000BFC8E76C0000207000002074000020F9
:1049A00010B500BF00BF114820F003001049086097
:1049B000084604684FF42050208000206080207159
:1049C0004FF4205000F084FE0A4908600120096875
:1049D00008714FF4205007490968088005490968A3
:1049E0004880034800680449086010BD0F3F00205C
:1049F0006C00002070000020740000202DE9F041C0
:104A00000446204600F0AAF80546208800F060FE23
:104A10000646608800F05CFE07462088B0F5205FFF
:104A200010D86088B0F5205F0CD86088A84202D00A
:104A30003888A84206D106480068864205D07088AA
:104A4000A84202D00020BDE8F0810120FBE7000071
:104A5000700000202DE9F0478046B8F1000F02D128
:104A60000020BDE8F08708F1030020F0030085B2C4
:104A70000C2D00D20C25B5F5205F01D8454501DA93
:104A80000020EEE73348006800F068F806465BE077
:104A9000304600F01DFE04462079002850D12188C0
:104AA00006F10800081AA8424AD3218806F1080036
:104AB000091A05F1140081421DD306F108002844AB
:104AC0001FFA80F900BF00BF484600F001FE07460C
:104AD00000213971218839807E80A4F8009001205E
:104AE00020713888B0F5205F07D0388800F0F0FDDD
:104AF000A0F8029001E0012020711648006884426D
:104B000015D11448D0F800A004E0BAF8000000F075
:104B1000DFFD82469AF8040018B10F48006882450C
:104B2000F3D10C48C0F800A000BF00BF00BF00BF19
:104B300000BF00BF00BF00BF00BF04F1080090E746
:104B4000304600F0C5FD0688C5F52050B0429FD81C
:104B5000002086E774000020700000200146024813
:104B60000088081A80B270476C0000202DE9F84FC9
:104B700081468B460BF1030020F0030085B20C2D1B
:104B800000D20C25B5F5205F01D85D4502DA002082
:104B9000BDE8F88F00BF00BF39480068814503D3E6
:104BA00038480068814503D300BF00BF4846EFE79F
:104BB000A9F108084046FFF7D1FF0646B8F80010F3
:104BC000881B08381FFA80FA00BF00BF554501DD79
:104BD0000020DDE7554501D14846D9E7B8F8000087
:104BE00000F076FD0446207920BB00BF00BF20887E
:104BF000009006F10800284487B223480068A042CC
:104C000004D1384600F064FD1F490860384600F0C2
:104C10005FFD044600202071009820806680A8F87F
:104C200000702088B0F5205F03D0208800F050FD90
:104C3000478023E005F1140050451FD806F1080015
:104C4000284487B200BF00BF384600F041FD04464B
:104C50000D480068844201D20B4804600020207196
:104C6000B8F8000020806680A8F800702088B0F5B1
:104C7000205F03D0208800F02BFD4780484687E75F
:104C80006C000020700000207400002070B5044605
:104C90000D4600BF092C00DB70BD00BF05B9FBE766
:104CA000034951F824002946FEF792F800BFF3E7C4
:104CB000F08C000810B5002406E0054951F82400E6
:104CC00000F008F8601C84B2092CF6D310BD000077
:104CD000F08C000810B50023846823604368DB1C57
:104CE00023F00301002207E083681B680B608368E0
:104CF000196003881944521C43889342F4DC10BDA8
:104D000070B5044600BF092C01DB002070BD00BF58
:104D1000034951F82400FEF765F805462846F5E7F3
:104D2000F08C00082DE9F04704460D4616461F4654
:104D3000DDE9098ADDF8209000BF14B90020BDE844
:104D4000F08700BF00BFB8F1000F01D10020F6E7E7
:104D500000BF05B92D4D06B92C4E07B92B4F0020C9
:104D60006060A060E0602A4860610020208584F8CF
:104D700031006062E061C4F820902648007884F831
:104D80003400C4F810A03B4632462946204600F0C5
:104D9000D5F82046C04708B10020D0E700BF94F8FE
:104DA0003420FF2A02D1002284F8342000211A4A3C
:104DB000106811E000BF00BF491C00BF00BF90F8A1
:104DC000342094F834309A4205D194F83420521C9F
:104DD00084F8342002E000680028EBD100BF0028EE
:104DE000DDD194F83400FE2803D100200949087071
:104DF00004E094F83400401C064908700648006836
:104E0000206005480460204699E70000648D000892
:104E1000354F0008A40000209C00002070B5044617
:104E20000D462946204601F0D9FC2946204603F0CC
:104E3000DFFD70BD10B503460868DC68A04201D1F3
:104E4000012000E0002030B909B9002000E0086826
:104E5000D860012010BD0020FCE7F8B505460C46DF
:104E6000164600BF00BF00BF00BF206869688842C7
:104E700001D1012000E0002090B92068009068680E
:104E8000306069463046FFF7C9FF0CB9002000E0EA
:104E9000206868600121284600F02CF80120F8BD48
:104EA0000020FCE710B5034608689C68A04201D1C9
:104EB000012000E0002030B909B9002000E00868B6
:104EC0009860012010BD0020FCE7000002466AB196
:104ED0000748016808E091F83400401CC0B29042D5
:104EE00001D10846704709680029F4D10020F9E78C
:104EF0009C00002070B504460D4600BF00BF94F82A
:104F0000310000F0040020B194F8310000F00100FD
:104F100000B970BD05F0010050B1606840B194F86F
:104F2000310000F0080018B1211D2046FEF7C8FA34
:104F300000BFEEE703466FF00B0070472DE9F84F16
:104F400080460C4615461E464FF00009CA4604B975
:104F5000114C05B9104D06B90F4E0CB1206808B9B7
:104F6000012000E00020074627B16A46214640465E
:104F7000FFF773FF4A4629464046FFF793FF524624
:104F800031464046FFF756FF27B96A46214640465C
:104F9000FFF763FFBDE8F88F648D000801490860E2
:104FA00070470000A000002010B5044600BF04B9FF
:104FB00010BD00BF94F8310000F0010078B100BFCF
:104FC00094F8310000F0FE0084F8310000BF94F83E
:104FD000310000F0080010B12046FDF711FF00BFBE
:104FE000E6E700B1C161704710B5044600BF04B9DF
:104FF00010BD00BF94F8310000F0040070B100BF94
:1050000094F8310000F0FB0084F8310000BF00BFCD
:10501000E06910B12046E169884700BF00BFE7E7BB
:1050200010B5044600BF04B910BD00BF94F83100AC
:1050300000F00400A8B900BF94F8310040F004006B
:1050400084F8310000BF2046FDF794F80321204684
:10505000FFF750FF00BFE06910B12046E1698847C3
:1050600000BF00BFE0E710B5044600BF04B910BDA3
:1050700000BF94F8310000F0010058B900BF94F867
:10508000310040F0010084F8310000BF03212046C8
:10509000FFF730FF00BFEAE770B504460D46002277
:1050A0002946204600F001F870BD70B5034615464C
:1050B00000BF00BF13B1B1F5803F01D3012070BD27
:1050C00009B90020FBE78AB21889104480B29042E7
:1050D00001DA0120F3E71E7B06F0800038B1586842
:1050E000441A03F11000844207D20120E7E715B10A
:1050F0005868441A01E00120E1E75C6058891044D7
:1051000058811889104418810020D8E72DE9FE4FF6
:1051100082460D4690465746B8F1010F0AD0B8F1C5
:10512000410F06D0B8F5C17F0BD0B8F5207F7CD1F8
:105130004AE000BF42462946002000F07DF80446C0
:1051400077E0002400200290A94600BF0820FFF766
:10515000D7FD064636B914B1204600F092F900207A
:10516000BDE8FE8FF81C20F00300C0F5FA7080B295
:10517000484501DD484605E0F81C20F00300C0F575
:10518000FA7080B283460020CDE9008006F110005D
:105190003844C01C20F003015B464A46304600F00C
:1051A000CFF900BF00BF00BF00BF0CB9344601E01B
:1051B000029806600296A9EB0B001FFA80F90027FF
:1051C000B9F1000FC2DC34E0F81C20F00301E81C48
:1051D00020F00300084486B206F110001FFA80F99F
:1051E000E81C20F00300B04204D8E81C20F00300C3
:1051F000484501D90020B3E74846FFF72BFC044699
:105200000CB90020ACE70020CDE9008004F11000CB
:105210003844C01C20F003012B462A46204600F0EB
:105220008FF900BF00BF04E0FFE700BF00BF002010
:1052300096E700BF204693E72DE9FC4106460C4661
:10524000174600BF00BF0720FFF75AFD054615B9F6
:105250000020BDE8FC810020234622463146CDE9EE
:105260000070284600F06CF92846F2E72DE9FC5F53
:1052700005460C4617469846DDE90C9BAA460AF1FE
:10528000030020F003002044584502D90020BDE867
:10529000FC9FB9F1000F06D00AF1030020F00300D3
:1052A00000EB090600E00026022023462246314694
:1052B000CDE90070404600F043F94046E7E710B5FD
:1052C000024600BF02B101B910BD00BF104604E0A4
:1052D00003890C892344038100680368002BF7D1FC
:1052E00000BF00BF00BF00BF03890C8923440381B6
:1052F000016000BFE8E730B505460C462146284668
:10530000FFF7DDFF204600F06AF930BD01460020BE
:1053100002E0421C90B209680029FAD170472DE9D9
:10532000F04107460D46144621892A463846FFF7C4
:10533000EDFE064616B90020BDE8F0812146304654
:1053400000F005F8804600BF00BF3046F4E72DE9C5
:10535000F04105460C460026002700BF25B11CB1D0
:1053600028892189884203DA6FF00F00BDE8F081B7
:1053700000BF00BF6889801B6189C91B884203D3B5
:105380006089A0EB070802E06889A0EB0608626864
:10539000D1196A6890194246FAF712FF4644474409
:1053A00000BF00BF00BF00BF6089B84201D800271E
:1053B00024686889B04208D100262D6800BF1DB955
:1053C00014B16FF00F00D1E700BF54B1608921899B
:1053D000884206D100BF206810B16FF00500C5E714
:1053E00000BF55B168892989884206D100BF286865
:1053F00010B16FF00500B9E700BF002CBAD1002052
:10540000B4E72DE9F05F8046894616461D464FF009
:10541000000AD34600BFB8F1000F02D10020BDE85A
:10542000F09F00BF00BFB9F1000F01D10020F6E7E7
:1054300000BF444620E035B16089A84203DC6089A2
:10544000281A85B217E06089401B87B2B74200DD99
:1054500037466268511909EB0A003A46FAF7B0FE7E
:105460000BEB07001FFA80FB0AEB07001FFA80FA1C
:10547000F01B86B2002524680EB1002CDBD1584603
:10548000CDE72DE9F047044624B900BF00BF002056
:10549000BDE8F087002635E000BF00BFA07B401EBE
:1054A00000F0FF0884F80E80B8F1000F28D12768BB
:1054B000207B00F00F05607B00F0020038B1A146B0
:1054C00000BF00BF2046D9F81010884714E0022D15
:1054D00004D121460820FFF7D9FB0DE0012D04D1AE
:1054E00021460720FFF7D2FB06E01DB92046FFF753
:1054F00017FA01E000BF00BF701CC6B23C4600E0D6
:10550000002400BF002CC7D13046C1E770B5044667
:105510000D4601222946204600F001F870BD70B505
:1055200005460C461646002C04DA6142284600F077
:105530005FF870BD324621462846FFF7B6FDF8E712
:1055400070B5DDE9044500260660416002814381B3
:1055500004734573012686730026C67370BD2DE95A
:10556000F04106460F4600BF00BF3089B84201DC5B
:10557000BDE8F0813089C01B1FFA80F83D463446F3
:1055800009E06089281A85B22089A0EB08002081F3
:10559000246800BF00BF6089A842F2DB207B00F0D6
:1055A0000F0080B96089A8420DD0607B00F0020036
:1055B00048B9A088001B284481B22046FFF7D6FADC
:1055C000044600BF00BF658160892081206810B15A
:1055D0002068FFF756FF0020206000BFC8E730B109
:1055E00000BF817B491C817300BF00BF00BF7047B3
:1055F00010B5024600BF00BF12B1B1F5803F01D324
:10560000012010BD09B90020FBE78BB200BF508913
:10561000984201DA0120F4E700BF5468506808445A
:1056200050605089C01A50811089C01A1081002022
:10563000E7E700002DE9F041044600BF00BF00BFCE
:1056400000BF00BF00BF00BF00BF208800F040F8CF
:105650000546AC4219D02879B8B91B480068854284
:1056600013D01A480068A84201D11848046028885D
:1056700020802888B0F5205F07D02046FFF76EFA1B
:105680000746288800F024F84780608800F020F85A
:105690000646A64215D0307998B90C480068A04259
:1056A00001D10A480660208830802088B0F5205F4C
:1056B00007D03046FFF752FA0746208800F008F876
:1056C0004780BDE8F08100007000002074000020D9
:1056D0000146024800680844704700006C00002042
:1056E0002DE9F04100F026F8074600BF0F48046896
:1056F0000CB9BDE8F0816068381AB0F1004F01D3F1
:10570000012000E0002000B1F3E7084920680860AC
:10571000A568E66806496068086021460620FFF72C
:10572000B5FA0DB13046A847E0E70000F0000020D0
:10573000F400002001480068704700003400002099
:105740002DE9F04104460E46174600BF00BFFFF7A3
:10575000F1FF05193A463146284600F003F8BDE846
:10576000F08100002DE9F04106460F4690460620E4
:10577000FFF7C6FA04461CB900BF00BFBDE8F081C0
:1057800000202060A760C4F80C806660184800689C
:1057900010B917480460F1E715496068096849685D
:1057A000401AB0F1004F01D3012000E0002028B1E1
:1057B0000F48006820600E48046017E00C48056838
:1057C00011E0286850B1606829684968401AB0F152
:1057D000004F01D3012000E0002018B128682060AC
:1057E0002C6002E02D68002DEBD100BF00BFC5E7A3
:1057F000F00000202DE9FF5F04460E4600BF0CB903
:10580000BDE8FF9F00BF00BF00BF207D0A2807D171
:105810002146324801F0EFFA204600F017FB5AE02B
:105820004FF0000AD346276DD4F82480D4F88C506A
:10583000D4F81090207DE8B9E08A38B300BF28483A
:105840000068A04205D126480068C0682449086065
:105850000DE02349086806E0C168A14202D1E16871
:10586000C16002E0C0680028F6D100BF00BF002080
:10587000E0600BE0B246B4F816B000BF214619480C
:1058800001F0B9FA01201849087000BF206F10B16B
:10589000206F02F0A9FAE06E10B1E06E02F0A4FAF7
:1058A000BAF1000F0AD0208B211D23464246CDE9D4
:1058B000001B02903946204602F057FA207D0390E3
:1058C000204600F0C3FA00BF1DB16FF00C0148463E
:1058D000A84700BF00BF00BF92E70000BC00002047
:1058E000B0000020B8000020C000002010B5044621
:1058F00001212046FFF77EFF10BD000070B5054670
:105900000120FFF7FDF904461CBB00F017FB00F077
:1059100081FE0120FFF7F4F90446CCB9092000F01C
:1059200053FE0120FFF7ECF9044684B9082000F08B
:105930004BFE0120FFF7E4F904463CB9284600F08D
:105940000FFE0120FFF7DCF9044600BF00BF00BFD7
:1059500000BF3CB398212046FAF759FC1434657017
:1059600041F2D060A4F850004010E082A082FF20F5
:1059700004F8090C4FF40670E0830620A0856085CA
:10598000C01FA0830120A08607480068E060074888
:105990000078A07241F2D060E0860548E0660548D4
:1059A000E067143C204670BDAC000020C20000201F
:1059B000D57A000800DD6D0010B5044600BF14B9AB
:1059C0006FF00F0010BD00BF207D012805D000BF83
:1059D000608B40F01000608300BF0121204600F082
:1059E00001F8EFE73EB504460D4600BF00BF002DAD
:1059F0004AD0207D042802D0207D072844D1606F42
:105A000020B9208D40F6683188423DD000BF00BFEC
:105A1000208BE18A221DCDE90021029023462046F9
:105A2000626A216D02F0A1F9204601F0BFF900BFC2
:105A300000BF39480068A04205D137480068C068F7
:105A4000354908600DE03449086806E0C168A142A4
:105A500002D1E168C16002E0C0680028F6D100BF51
:105A600000BF0020E06000BF01202C49087000BF8B
:105A70002B480068A04202D102F086FD02E02046D9
:105A800000F0E4F900203EBD207D20B1012824D0A3
:105A900002283AD12CE0E08AD8B100BF2148006842
:105AA000A04205D11F480068C0681E4908600DE08B
:105AB0001C49086806E0C168A14202D1E168C160E2
:105AC00002E0C0680028F6D100BF00BF0020E060FF
:105AD00000BF204600F0BAF91BE0204600F0B8FDF8
