:020000040800F2
:1000000000040020450100089B010008930100083E
:10001000970100088D0100086D0300080000000032
:100020000000000000000000000000009F01000828
:1000300091010008000000009D01000889020008ED
:100040005F0100085F0100085F0100085F01000810
:100050005F0100085F0100085F0100085F01000800
:100060005F0100085F0100085F0100085F010008F0
:100070005F0100085F0100085F0100085F010008E0
:100080005F0100085F0100085F0100085F010008D0
:100090005F0100085F0100085F0100085F010008C0
:1000A0005F0100085F0100085F0100085F010008B0
:1000B0005F0100085F0100085F0100085F010008A0
:1000C0005F0100085F0100085F0100085F01000890
:1000D0005F0100085F0100085F0100085F01000880
:1000E0005F0100085F0100085F0100085F01000870
:1000F0005F0100085F0100085F0100085F01000860
:100100005F0100085F0100085F0100085F0100084F
:100110005F0100085F0100085F0100085F0100083F
:100120005F0100085F0100085F0100085F0100082F
:10013000DFF80CD000F018F8004800478F030008E3
:10014000000400200648804706480047FEE7FEE717
:10015000FEE7FEE7FEE7FEE7FEE7FEE7FEE7FEE777
:100160008D02000831010008064C074D06E0E068EA
:1001700040F0010394E8070098471034AC42F6D3EE
:10018000FFF7DAFF94030008A403000800BFFEE7AE
:10019000704700BFFEE700BFFEE77047704770473B
:1001A00010B500F001F810BD0CB5002001900090D2
:1001B0003348006840F480303149086000BF30485F
:1001C000006800F4003000900198401C01900098F5
:1001D00018B90198B0F5A06FF1D12948006800F472
:1001E000003010B10120009001E000200090009844
:1001F000012843D12348006840F0100021490860DD
:100200000846006820F0030008600846006840F0D7
:10021000020008601A48406819494860084640686A
:1002200048600846406840F480604860084640687E
:1002300020F47C1048600846406840F4E8104860AC
:100240000846006840F08070086000BF0C480068F5
:1002500000F000700028F9D00948406820F0030041
:10026000074948600846406840F00200486000BF07
:100270000348406800F00C000828F9D10CBD0000CC
:1002800000100240002002407047000010B51448E2
:10029000006840F0010012490860084640681149B2
:1002A00008400F494860084600680F4908400C495B
:1002B00008600846006820F480200860084640680E
:1002C00020F4FE0048604FF41F00886000F010F832
:1002D000FFF766FF4FF000600449086010BD0000A2
:1002E000001002400000FFF8FFFFF6FE08ED00E0FE
:1002F0004FF48A70134948614FF4F07088611248D6
:10030000124908604FF0BB30091D086010481149C0
:1003100008604FF0BB30091D08600F480F490860A6
:100320000F48091D08600C480E4908600E484860D7
:1003300041F211004FF0204108614FF40070486114
:100340007047000000100240BB44BB440014014051
:10035000BB4444B400180140BBBBBB44001C01407B
:100360004444BBBB00200140444B444400BFFEE773
:1003700002E008C8121F08C1002AFAD1704770476E
:10038000002001E001C1121F002AFBD1704700BF0D
:10039000FEE70000A40300080000002000040000A5
:0403A00080030008CE
:0400000508000131BD
:00000001FF
